{
  "contractName": "helloWorld",
  "abi": [
    {
      "inputs": [],
      "name": "helloworld",
      "outputs": [
        {
          "internalType": "string",
          "name": "",
          "type": "string"
        }
      ],
      "stateMutability": "pure",
      "type": "function"
    }
  ],
  "bytecode": "0x608060405234801561001057600080fd5b5061017c806100206000396000f3fe608060405234801561001057600080fd5b506004361061002b5760003560e01c80632f2f485914610030575b600080fd5b61003861004e565b60405161004591906100c4565b60405180910390f35b60606040518060400160405280600c81526020017f48656c6c6f20576f726c642e0000000000000000000000000000000000000000815250905090565b6000610096826100e6565b6100a081856100f1565b93506100b0818560208601610102565b6100b981610135565b840191505092915050565b600060208201905081810360008301526100de818461008b565b905092915050565b600081519050919050565b600082825260208201905092915050565b60005b83811015610120578082015181840152602081019050610105565b8381111561012f576000848401525b50505050565b6000601f19601f830116905091905056fea264697066735822122032fcf763dcb1eaef3ab6299b4c966588371938de1a157680755af3af8d373d9964736f6c63430008000033",
  "immutableReferences": {},
  "source": "pragma solidity >=0.8.0;\n\ncontract helloWorld {\n    function helloworld() public pure returns (string memory) {\n        return \"Hello World.\";\n    }\n}\n",
  "sourcePath": "/home/rajnishyadav/Downloads/Blockchain/j_Extra/test3/contracts/helloWorld.sol",
  "compiler": {
    "name": "solc",
    "version": "0.8.0+commit.c7dfd78e.Emscripten.clang"
  },
  "schemaVersion": "3.2.2-next.0",
  "updatedAt": "2022-11-29T07:06:37.178Z",
  "devdoc": {
    "kind": "dev",
    "methods": {},
    "version": 1
  },
  "userdoc": {
    "kind": "user",
    "methods": {},
    "version": 1
  }
}