{
  "contractName": "supplyChain",
  "abi": [
    {
      "anonymous": false,
      "inputs": [
        {
          "indexed": false,
          "internalType": "string",
          "name": "orderno",
          "type": "string"
        }
      ],
      "name": "MfgTrigger",
      "type": "event"
    },
    {
      "anonymous": false,
      "inputs": [
        {
          "indexed": false,
          "internalType": "string",
          "name": "orderno",
          "type": "string"
        }
      ],
      "name": "OrderGenerated",
      "type": "event"
    },
    {
      "anonymous": false,
      "inputs": [
        {
          "indexed": false,
          "internalType": "string",
          "name": "orderno",
          "type": "string"
        },
        {
          "indexed": false,
          "internalType": "uint256",
          "name": "category",
          "type": "uint256"
        },
        {
          "indexed": false,
          "internalType": "string",
          "name": "report",
          "type": "string"
        }
      ],
      "name": "ReportSubmit",
      "type": "event"
    },
    {
      "anonymous": false,
      "inputs": [
        {
          "indexed": false,
          "internalType": "string",
          "name": "orderno",
          "type": "string"
        }
      ],
      "name": "SupplyTrigger",
      "type": "event"
    },
    {
      "inputs": [
        {
          "internalType": "string",
          "name": "_partName",
          "type": "string"
        },
        {
          "internalType": "uint256",
          "name": "_quantity",
          "type": "uint256"
        },
        {
          "internalType": "string",
          "name": "_date",
          "type": "string"
        },
        {
          "internalType": "uint256",
          "name": "_price",
          "type": "uint256"
        },
        {
          "internalType": "string",
          "name": "_nameOfYourCompany",
          "type": "string"
        }
      ],
      "name": "A_manufactureRequest",
      "outputs": [
        {
          "internalType": "bytes32",
          "name": "",
          "type": "bytes32"
        }
      ],
      "stateMutability": "nonpayable",
      "type": "function"
    },
    {
      "inputs": [
        {
          "internalType": "bytes32",
          "name": "_manufactureRequestedHash",
          "type": "bytes32"
        }
      ],
      "name": "B_supplierResponse",
      "outputs": [
        {
          "internalType": "bytes32",
          "name": "",
          "type": "bytes32"
        }
      ],
      "stateMutability": "nonpayable",
      "type": "function"
    },
    {
      "inputs": [
        {
          "internalType": "address payable",
          "name": "_supplierAddress",
          "type": "address"
        }
      ],
      "name": "C_paymentToSupplierByManufacturer",
      "outputs": [],
      "stateMutability": "payable",
      "type": "function",
      "payable": true
    },
    {
      "inputs": [
        {
          "internalType": "address",
          "name": "_manufactureAddress",
          "type": "address"
        },
        {
          "internalType": "string",
          "name": "_productName",
          "type": "string"
        },
        {
          "internalType": "uint256",
          "name": "_productPrice",
          "type": "uint256"
        },
        {
          "internalType": "string",
          "name": "_date",
          "type": "string"
        },
        {
          "internalType": "uint256",
          "name": "_quantity",
          "type": "uint256"
        }
      ],
      "name": "D_creatingCar",
      "outputs": [
        {
          "internalType": "bytes32",
          "name": "",
          "type": "bytes32"
        }
      ],
      "stateMutability": "nonpayable",
      "type": "function"
    },
    {
      "inputs": [
        {
          "internalType": "string",
          "name": "_customerName",
          "type": "string"
        },
        {
          "internalType": "uint256",
          "name": "_customerQuantity",
          "type": "uint256"
        },
        {
          "internalType": "address payable",
          "name": "_payingToManufacturer",
          "type": "address"
        }
      ],
      "name": "E_shippedCarToCustomer",
      "outputs": [
        {
          "internalType": "bytes32",
          "name": "",
          "type": "bytes32"
        }
      ],
      "stateMutability": "payable",
      "type": "function",
      "payable": true
    },
    {
      "inputs": [
        {
          "internalType": "bytes32",
          "name": "_customerCreatedHash",
          "type": "bytes32"
        }
      ],
      "name": "F_getCustomerDetail",
      "outputs": [
        {
          "internalType": "string",
          "name": "customerName",
          "type": "string"
        },
        {
          "internalType": "uint256",
          "name": "customerQuantity",
          "type": "uint256"
        },
        {
          "internalType": "string",
          "name": "customerProductName",
          "type": "string"
        },
        {
          "internalType": "uint256",
          "name": "customerPrice",
          "type": "uint256"
        }
      ],
      "stateMutability": "view",
      "type": "function",
      "constant": true
    },
    {
      "inputs": [
        {
          "internalType": "bytes32",
          "name": "_manufacturerCreatedHash",
          "type": "bytes32"
        }
      ],
      "name": "G_getCarDetails",
      "outputs": [
        {
          "internalType": "string",
          "name": "manufacturerPartName",
          "type": "string"
        },
        {
          "internalType": "string",
          "name": "manufactureName",
          "type": "string"
        },
        {
          "internalType": "uint256",
          "name": "manufacturePrice",
          "type": "uint256"
        },
        {
          "internalType": "string",
          "name": "manufactureDate",
          "type": "string"
        },
        {
          "internalType": "uint256",
          "name": "manufactureQuantity",
          "type": "uint256"
        }
      ],
      "stateMutability": "view",
      "type": "function",
      "constant": true
    },
    {
      "inputs": [
        {
          "internalType": "bytes32",
          "name": "_supplierCreatedHash",
          "type": "bytes32"
        }
      ],
      "name": "H_getingSupplierDetails",
      "outputs": [
        {
          "internalType": "string",
          "name": "supplierName",
          "type": "string"
        },
        {
          "internalType": "string",
          "name": "supplierPartName",
          "type": "string"
        },
        {
          "internalType": "uint256",
          "name": "supplierQuantity",
          "type": "uint256"
        },
        {
          "internalType": "uint256",
          "name": "supplierPrice",
          "type": "uint256"
        },
        {
          "internalType": "string",
          "name": "supplierDate",
          "type": "string"
        }
      ],
      "stateMutability": "view",
      "type": "function",
      "constant": true
    },
    {
      "inputs": [
        {
          "internalType": "bytes32",
          "name": "_manufactureRequestCreatedHash",
          "type": "bytes32"
        }
      ],
      "name": "I_getManufactureRequest",
      "outputs": [
        {
          "internalType": "string",
          "name": "_partName",
          "type": "string"
        },
        {
          "internalType": "uint256",
          "name": "_quantity",
          "type": "uint256"
        },
        {
          "internalType": "string",
          "name": "_date",
          "type": "string"
        },
        {
          "internalType": "string",
          "name": "_nameOfCompany",
          "type": "string"
        }
      ],
      "stateMutability": "view",
      "type": "function",
      "constant": true
    },
    {
      "inputs": [
        {
          "internalType": "bytes32",
          "name": "_hash",
          "type": "bytes32"
        }
      ],
      "name": "J_ownerOfHash",
      "outputs": [
        {
          "internalType": "address",
          "name": "_ownerAddress",
          "type": "address"
        },
        {
          "internalType": "string",
          "name": "_ownerName",
          "type": "string"
        },
        {
          "internalType": "string",
          "name": "_productName",
          "type": "string"
        },
        {
          "internalType": "string",
          "name": "_productStatus",
          "type": "string"
        },
        {
          "internalType": "string",
          "name": "_paymentStatus",
          "type": "string"
        }
      ],
      "stateMutability": "view",
      "type": "function",
      "constant": true
    }
  ],
  "bytecode": "0x60806040526000600360006101000a81548160ff02191690831515021790555034801561002b57600080fd5b50613e588061003b6000396000f3fe6080604052600436106100915760003560e01c8063bae99b5b11610059578063bae99b5b146101c5578063c31f8e6114610206578063cfb4535614610222578063fdc0f72d14610262578063fed58e461461029f57610091565b8063055ce346146100965780631837fd12146100d75780631f5281ab1461011457806336e9be5314610144578063856c080e14610185575b600080fd5b3480156100a257600080fd5b506100bd60048036038101906100b89190612e54565b6102dc565b6040516100ce9594939291906136a1565b60405180910390f35b3480156100e357600080fd5b506100fe60048036038101906100f99190612dad565b61050c565b60405161010b9190613686565b60405180910390f35b61012e60048036038101906101299190612e7d565b610db8565b60405161013b9190613686565b60405180910390f35b34801561015057600080fd5b5061016b60048036038101906101669190612e54565b611278565b60405161017c959493929190613617565b60405180910390f35b34801561019157600080fd5b506101ac60048036038101906101a79190612e54565b611552565b6040516101bc94939291906137cb565b60405180910390f35b3480156101d157600080fd5b506101ec60048036038101906101e79190612e54565b6116db565b6040516101fd959493929190613709565b60405180910390f35b610220600480360381019061021b9190612d84565b61190a565b005b34801561022e57600080fd5b5061024960048036038101906102449190612e54565b611db5565b6040516102599493929190613771565b60405180910390f35b34801561026e57600080fd5b5061028960048036038101906102849190612e54565b611fc8565b6040516102969190613686565b60405180910390f35b3480156102ab57600080fd5b506102c660048036038101906102c19190612ee4565b612758565b6040516102d39190613686565b60405180910390f35b60608060006060600060016000878152602001908152602001600020600b01600160008881526020019081526020016000206005016001600089815260200190815260200160002060080154600160008a8152602001908152602001600020600a01600160008b81526020019081526020016000206007015484805461036190613cf6565b80601f016020809104026020016040519081016040528092919081815260200182805461038d90613cf6565b80156103da5780601f106103af576101008083540402835291602001916103da565b820191906000526020600020905b8154815290600101906020018083116103bd57829003601f168201915b505050505094508380546103ed90613cf6565b80601f016020809104026020016040519081016040528092919081815260200182805461041990613cf6565b80156104665780601f1061043b57610100808354040283529160200191610466565b820191906000526020600020905b81548152906001019060200180831161044957829003601f168201915b5050505050935081805461047990613cf6565b80601f01602080910402602001604051908101604052809291908181526020018280546104a590613cf6565b80156104f25780601f106104c7576101008083540402835291602001916104f2565b820191906000526020600020905b8154815290600101906020018083116104d557829003601f168201915b505050505091509450945094509450945091939590929450565b6000600860009054906101000a900473ffffffffffffffffffffffffffffffffffffffff1673ffffffffffffffffffffffffffffffffffffffff168673ffffffffffffffffffffffffffffffffffffffff161461056857600080fd5b600860009054906101000a900473ffffffffffffffffffffffffffffffffffffffff1673ffffffffffffffffffffffffffffffffffffffff163373ffffffffffffffffffffffffffffffffffffffff16146105c257600080fd5b60018214610605576040517f08c379a00000000000000000000000000000000000000000000000000000000081526004016105fc90613ab1565b60405180910390fd5b60011515600360009054906101000a900460ff1615151461065b576040517f08c379a000000000000000000000000000000000000000000000000000000000815260040161065290613ad1565b60405180910390fd5b600080600080815260200190815260200160002060140154116106b3576040517f08c379a00000000000000000000000000000000000000000000000000000000081526004016106aa90613a71565b60405180910390fd5b6040518060400160405280600a81526020017f436172204672616d652000000000000000000000000000000000000000000000815250600080808152602001908152602001600020600b019080519060200190610711929190612b98565b506040518060400160405280600b81526020017f43617220456e67696e652000000000000000000000000000000000000000000081525060008060018152602001908152602001600020600b019080519060200190610771929190612b98565b506040518060400160405280600b81526020017f4361722048616e646c652000000000000000000000000000000000000000000081525060008060028152602001908152602001600020600b0190805190602001906107d1929190612b98565b5060016000600454815260200190815260200160002060040160008060038152602001908152602001600020600b0190805461080c90613cf6565b610817929190612c1e565b506040518060400160405280600681526020017f4a616775617200000000000000000000000000000000000000000000000000008152506000808081526020019081526020016000206005019080519060200190610876929190612b98565b508460008080815260200190815260200160002060090190805190602001906108a0929190612b98565b50670de0b6b3a7640000846108b59190613bce565b6000808081526020019081526020016000206008018190555082600080808152602001908152602001600020600a0190805190602001906108f7929190612b98565b508160008080815260200190815260200160002060070181905550600080808152602001908152602001600020600b0160008060018152602001908152602001600020600b0160008060028152602001908152602001600020600b0160008060038152602001908152602001600020600b0160008080815260200190815260200160002060050160008080815260200190815260200160002060090160008080815260200190815260200160002060080154600080808152602001908152602001600020600a01600080808152602001908152602001600020600701546040516020016109ec9998979695949392919061381e565b604051602081830303815290604052805190602001206005819055506000806000808152602001908152602001600020600b0160008060018152602001908152602001600020600b01604051602001610a469291906135e8565b6040516020818303038152906040529050600080600060028152602001908152602001600020600b0160008060038152602001908152602001600020600b01604051602001610a969291906135e8565b60405160208183030381529060405290508181604051602001610aba9291906135b9565b604051602081830303815290604052600160006005548152602001908152602001600020600b019080519060200190610af4929190612b98565b506040518060400160405280600681526020017f4a616775617200000000000000000000000000000000000000000000000000008152506001600060055481526020019081526020016000206005019080519060200190610b56929190612b98565b50866001600060055481526020019081526020016000206009019080519060200190610b83929190612b98565b50670de0b6b3a764000086610b989190613bce565b6001600060055481526020019081526020016000206008018190555084600160006005548152602001908152602001600020600a019080519060200190610be0929190612b98565b5083600160006005548152602001908152602001600020600701819055503360026000600554815260200190815260200160002060000160006101000a81548173ffffffffffffffffffffffffffffffffffffffff021916908373ffffffffffffffffffffffffffffffffffffffff1602179055506040518060400160405280601281526020017f4a6167756172204d616e756163747572657200000000000000000000000000008152506002600060055481526020019081526020016000206001019080519060200190610cb6929190612b98565b50866001600060055481526020019081526020016000206010019080519060200190610ce3929190612b98565b506040518060400160405280600981526020017f436172204d6164656400000000000000000000000000000000000000000000008152506001600060055481526020019081526020016000206011019080519060200190610d45929190612b98565b506040518060400160405280601681526020017f4e6f742059657420437573746f6d6572204f72646572000000000000000000008152506001600060055481526020019081526020016000206012019080519060200190610da7929190612b98565b506005549250505095945050505050565b600060018314610dfd576040517f08c379a0000000000000000000000000000000000000000000000000000000008152600401610df4906139f1565b60405180910390fd5b600860009054906101000a900473ffffffffffffffffffffffffffffffffffffffff1673ffffffffffffffffffffffffffffffffffffffff168273ffffffffffffffffffffffffffffffffffffffff1614610e8d576040517f08c379a0000000000000000000000000000000000000000000000000000000008152600401610e8490613a51565b60405180910390fd5b600160006005548152602001908152602001600020600801543414610ee7576040517f08c379a0000000000000000000000000000000000000000000000000000000008152600401610ede90613a91565b60405180910390fd5b8173ffffffffffffffffffffffffffffffffffffffff166108fc349081150290604051600060405180830381858888f19350505050158015610f2d573d6000803e3d6000fd5b506040518060400160405280601081526020017f5061796d656e7420436f6d706c657465000000000000000000000000000000008152506001600060055481526020019081526020016000206012019080519060200190610f8f929190612b98565b506040518060400160405280601681526020017f2044656c69766572656420546f20437573746f6d6572000000000000000000008152506001600060055481526020019081526020016000206011019080519060200190610ff1929190612b98565b5082600160006005548152602001908152602001600020600701546110169190613c28565b6001600060055481526020019081526020016000206007018190555083600080808152602001908152602001600020600c01908051906020019061105b929190612b98565b5082600080808152602001908152602001600020600d0181905550600080808152602001908152602001600020600c01600080808152602001908152602001600020600d01546040516020016110b2929190613959565b6040516020818303038152906040528051906020012060068190555083600160006006548152602001908152602001600020600c0190805190602001906110fa929190612b98565b5082600160006006548152602001908152602001600020600d0181905550600160006005548152602001908152602001600020600901600160006006548152602001908152602001600020600e0190805461115490613cf6565b61115f929190612c1e565b5082600160006005548152602001908152602001600020600801546111849190613bce565b600160006006548152602001908152602001600020600f01819055503360026000600554815260200190815260200160002060000160006101000a81548173ffffffffffffffffffffffffffffffffffffffff021916908373ffffffffffffffffffffffffffffffffffffffff160217905550836002600060055481526020019081526020016000206001019080519060200190611223929190612b98565b5060016000600554815260200190815260200160002060090160016000600554815260200190815260200160002060100190805461126090613cf6565b61126b929190612c1e565b5060055490509392505050565b60006060806060806002600087815260200190815260200160002060000160009054906101000a900473ffffffffffffffffffffffffffffffffffffffff166002600088815260200190815260200160002060010160016000898152602001908152602001600020601001600160008a8152602001908152602001600020601101600160008b815260200190815260200160002060120183805461131b90613cf6565b80601f016020809104026020016040519081016040528092919081815260200182805461134790613cf6565b80156113945780601f1061136957610100808354040283529160200191611394565b820191906000526020600020905b81548152906001019060200180831161137757829003601f168201915b505050505093508280546113a790613cf6565b80601f01602080910402602001604051908101604052809291908181526020018280546113d390613cf6565b80156114205780601f106113f557610100808354040283529160200191611420565b820191906000526020600020905b81548152906001019060200180831161140357829003601f168201915b5050505050925081805461143390613cf6565b80601f016020809104026020016040519081016040528092919081815260200182805461145f90613cf6565b80156114ac5780601f10611481576101008083540402835291602001916114ac565b820191906000526020600020905b81548152906001019060200180831161148f57829003601f168201915b505050505091508080546114bf90613cf6565b80601f01602080910402602001604051908101604052809291908181526020018280546114eb90613cf6565b80156115385780601f1061150d57610100808354040283529160200191611538565b820191906000526020600020905b81548152906001019060200180831161151b57829003601f168201915b505050505090509450945094509450945091939590929450565b606060006060600060016000868152602001908152602001600020600c0160016000878152602001908152602001600020600d015460016000888152602001908152602001600020600e0160016000898152602001908152602001600020600f01548380546115c090613cf6565b80601f01602080910402602001604051908101604052809291908181526020018280546115ec90613cf6565b80156116395780601f1061160e57610100808354040283529160200191611639565b820191906000526020600020905b81548152906001019060200180831161161c57829003601f168201915b5050505050935081805461164c90613cf6565b80601f016020809104026020016040519081016040528092919081815260200182805461167890613cf6565b80156116c55780601f1061169a576101008083540402835291602001916116c5565b820191906000526020600020905b8154815290600101906020018083116116a857829003601f168201915b5050505050915093509350935093509193509193565b606080600080606060016000878152602001908152602001600020600001600160008881526020019081526020016000206004016001600089815260200190815260200160002060010154600160008a815260200190815260200160002060020154600160008b815260200190815260200160002060030184805461175f90613cf6565b80601f016020809104026020016040519081016040528092919081815260200182805461178b90613cf6565b80156117d85780601f106117ad576101008083540402835291602001916117d8565b820191906000526020600020905b8154815290600101906020018083116117bb57829003601f168201915b505050505094508380546117eb90613cf6565b80601f016020809104026020016040519081016040528092919081815260200182805461181790613cf6565b80156118645780601f1061183957610100808354040283529160200191611864565b820191906000526020600020905b81548152906001019060200180831161184757829003601f168201915b5050505050935080805461187790613cf6565b80601f01602080910402602001604051908101604052809291908181526020018280546118a390613cf6565b80156118f05780601f106118c5576101008083540402835291602001916118f0565b820191906000526020600020905b8154815290600101906020018083116118d357829003601f168201915b505050505090509450945094509450945091939590929450565b600960009054906101000a900473ffffffffffffffffffffffffffffffffffffffff1673ffffffffffffffffffffffffffffffffffffffff168173ffffffffffffffffffffffffffffffffffffffff161461199a576040517f08c379a000000000000000000000000000000000000000000000000000000000815260040161199190613a31565b60405180910390fd5b600860009054906101000a900473ffffffffffffffffffffffffffffffffffffffff1673ffffffffffffffffffffffffffffffffffffffff163373ffffffffffffffffffffffffffffffffffffffff1614611a2a576040517f08c379a0000000000000000000000000000000000000000000000000000000008152600401611a2190613af1565b60405180910390fd5b346001600060075481526020019081526020016000206017015414611a84576040517f08c379a0000000000000000000000000000000000000000000000000000000008152600401611a7b90613b11565b60405180910390fd5b60011515600360009054906101000a900460ff16151514611ada576040517f08c379a0000000000000000000000000000000000000000000000000000000008152600401611ad190613a11565b60405180910390fd5b8073ffffffffffffffffffffffffffffffffffffffff166108fc349081150290604051600060405180830381858888f19350505050158015611b20573d6000803e3d6000fd5b506040518060400160405280601081526020017f5061796d656e7420436f6d706c657465000000000000000000000000000000008152506001600060045481526020019081526020016000206012019080519060200190611b82929190612b98565b506040518060400160405280601a81526020017f2044656c69766572656420546f204d616e7566616374757265720000000000008152506001600060045481526020019081526020016000206011019080519060200190611be4929190612b98565b506040518060400160405280601a81526020017f2044656c69766572656420546f204d616e7566616374757265720000000000008152506001600060075481526020019081526020016000206011019080519060200190611c46929190612b98565b506040518060400160405280601181526020017f5061796d656e7420436f6d706c657465640000000000000000000000000000008152506001600060075481526020019081526020016000206012019080519060200190611ca8929190612b98565b50600860009054906101000a900473ffffffffffffffffffffffffffffffffffffffff1660026000600454815260200190815260200160002060000160006101000a81548173ffffffffffffffffffffffffffffffffffffffff021916908373ffffffffffffffffffffffffffffffffffffffff160217905550600160006007548152602001908152602001600020601601600260006004548152602001908152602001600020600101908054611d5e90613cf6565b611d69929190612c1e565b50600160006004548152602001908152602001600020600401600160006004548152602001908152602001600020601001908054611da690613cf6565b611db1929190612c1e565b5050565b606060006060806001600086815260200190815260200160002060130160016000878152602001908152602001600020601401546001600088815260200190815260200160002060150160016000898152602001908152602001600020601601838054611e2190613cf6565b80601f0160208091040260200160405190810160405280929190818152602001828054611e4d90613cf6565b8015611e9a5780601f10611e6f57610100808354040283529160200191611e9a565b820191906000526020600020905b815481529060010190602001808311611e7d57829003601f168201915b50505050509350818054611ead90613cf6565b80601f0160208091040260200160405190810160405280929190818152602001828054611ed990613cf6565b8015611f265780601f10611efb57610100808354040283529160200191611f26565b820191906000526020600020905b815481529060010190602001808311611f0957829003601f168201915b50505050509150808054611f3990613cf6565b80601f0160208091040260200160405190810160405280929190818152602001828054611f6590613cf6565b8015611fb25780601f10611f8757610100808354040283529160200191611fb2565b820191906000526020600020905b815481529060010190602001808311611f9557829003601f168201915b5050505050905093509350935093509193509193565b600033600960006101000a81548173ffffffffffffffffffffffffffffffffffffffff021916908373ffffffffffffffffffffffffffffffffffffffff160217905550600060016000848152602001908152602001600020601301805461202e90613cf6565b80601f016020809104026020016040519081016040528092919081815260200182805461205a90613cf6565b80156120a75780601f1061207c576101008083540402835291602001916120a7565b820191906000526020600020905b81548152906001019060200180831161208a57829003601f168201915b5050505050905060006001600085815260200190815260200160002060140154905060006001600086815260200190815260200160002060150180546120ec90613cf6565b80601f016020809104026020016040519081016040528092919081815260200182805461211890613cf6565b80156121655780601f1061213a57610100808354040283529160200191612165565b820191906000526020600020905b81548152906001019060200180831161214857829003601f168201915b50505050509050600060016000878152602001908152602001600020601601805461218f90613cf6565b80601f01602080910402602001604051908101604052809291908181526020018280546121bb90613cf6565b80156122085780601f106121dd57610100808354040283529160200191612208565b820191906000526020600020905b8154815290600101906020018083116121eb57829003601f168201915b505050505090506000670de0b6b3a7640000600160008981526020019081526020016000206017015461223b9190613bce565b90506040518060400160405280600481526020017f5461746100000000000000000000000000000000000000000000000000000000815250600080808152602001908152602001600020600001908051906020019061229b929190612b98565b508460008080815260200190815260200160002060040190805190602001906122c5929190612b98565b508360008080815260200190815260200160002060010181905550826000808081526020019081526020016000206003019080519060200190612309929190612b98565b50806000808081526020019081526020016000206002018190555081600080808152602001908152602001600020601601908051906020019061234d929190612b98565b5060008080815260200190815260200160002060000160008080815260200190815260200160002060040160008080815260200190815260200160002060010154600080808152602001908152602001600020600301600080808152602001908152602001600020600201546000808081526020019081526020016000206016016040516020016123e3969594939291906138dc565b604051602081830303815290604052805190602001206004819055506040518060400160405280600581526020017f20546174610000000000000000000000000000000000000000000000000000008152506001600060045481526020019081526020016000206000019080519060200190612460929190612b98565b5084600160006004548152602001908152602001600020600401908051906020019061248d929190612b98565b50836001600060045481526020019081526020016000206001018190555080600160006004548152602001908152602001600020600201819055508260016000600454815260200190815260200160002060030190805190602001906124f4929190612b98565b50816001600060045481526020019081526020016000206016019080519060200190612521929190612b98565b506040518060400160405280601081526020017f41636365707465642026204d61646564000000000000000000000000000000008152506001600060075481526020019081526020016000206011019080519060200190612583929190612b98565b506040518060400160405280601081526020017f41636365707465642026204d616465640000000000000000000000000000000081525060016000600454815260200190815260200160002060110190805190602001906125e5929190612b98565b506040518060400160405280600781526020017f50656e64696e67000000000000000000000000000000000000000000000000008152506001600060045481526020019081526020016000206012019080519060200190612647929190612b98565b506001600360006101000a81548160ff0219169083151502179055503360026000600454815260200190815260200160002060000160006101000a81548173ffffffffffffffffffffffffffffffffffffffff021916908373ffffffffffffffffffffffffffffffffffffffff1602179055506040518060400160405280600d81526020017f5461746120537570706c69657200000000000000000000000000000000000000815250600260006004548152602001908152602001600020600101908051906020019061271b929190612b98565b50846001600060045481526020019081526020016000206010019080519060200190612748929190612b98565b5060045495505050505050919050565b600033600860006101000a81548173ffffffffffffffffffffffffffffffffffffffff021916908373ffffffffffffffffffffffffffffffffffffffff1602179055508560008080815260200190815260200160002060130190805190602001906127c4929190612b98565b508460008080815260200190815260200160002060140181905550836000808081526020019081526020016000206015019080519060200190612808929190612b98565b50670de0b6b3a76400008361281d9190613bce565b6000808081526020019081526020016000206017018190555081600080808152602001908152602001600020601601908051906020019061285f929190612b98565b5060008080815260200190815260200160002060130160008080815260200190815260200160002060140154600080808152602001908152602001600020601501600080808152602001908152602001600020601701546000808081526020019081526020016000206016016040516020016128df959493929190613989565b60405160208183030381529060405280519060200120600781905550856001600060075481526020019081526020016000206013019080519060200190612927929190612b98565b508460016000600754815260200190815260200160002060140181905550836001600060075481526020019081526020016000206015019080519060200190612971929190612b98565b50670de0b6b3a7640000836129869190613bce565b600160006007548152602001908152602001600020601701819055508160016000600754815260200190815260200160002060160190805190602001906129ce929190612b98565b506040518060400160405280601581526020017f4e6f742041636365707465642054696c6c204e6f7700000000000000000000008152506001600060075481526020019081526020016000206011019080519060200190612a30929190612b98565b506040518060400160405280600781526020017f50656e64696e67000000000000000000000000000000000000000000000000008152506001600060075481526020019081526020016000206012019080519060200190612a92929190612b98565b50600082604051602001612aa6919061358c565b60405160208183030381529060405290508087604051602001612aca92919061355d565b6040516020818303038152906040526001600060075481526020019081526020016000206010019080519060200190612b04929190612b98565b503360026000600754815260200190815260200160002060000160006101000a81548173ffffffffffffffffffffffffffffffffffffffff021916908373ffffffffffffffffffffffffffffffffffffffff160217905550826002600060075481526020019081526020016000206001019080519060200190612b88929190612b98565b5060075491505095945050505050565b828054612ba490613cf6565b90600052602060002090601f016020900481019282612bc65760008555612c0d565b82601f10612bdf57805160ff1916838001178555612c0d565b82800160010185558215612c0d579182015b82811115612c0c578251825591602001919060010190612bf1565b5b509050612c1a9190612cab565b5090565b828054612c2a90613cf6565b90600052602060002090601f016020900481019282612c4c5760008555612c9a565b82601f10612c5d5780548555612c9a565b82800160010185558215612c9a57600052602060002091601f016020900482015b82811115612c99578254825591600101919060010190612c7e565b5b509050612ca79190612cab565b5090565b5b80821115612cc4576000816000905550600101612cac565b5090565b6000612cdb612cd684613b62565b613b31565b905082815260208101848484011115612cf357600080fd5b612cfe848285613cb4565b509392505050565b600081359050612d1581613dc6565b92915050565b600081359050612d2a81613ddd565b92915050565b600081359050612d3f81613df4565b92915050565b600082601f830112612d5657600080fd5b8135612d66848260208601612cc8565b91505092915050565b600081359050612d7e81613e0b565b92915050565b600060208284031215612d9657600080fd5b6000612da484828501612d1b565b91505092915050565b600080600080600060a08688031215612dc557600080fd5b6000612dd388828901612d06565b955050602086013567ffffffffffffffff811115612df057600080fd5b612dfc88828901612d45565b9450506040612e0d88828901612d6f565b935050606086013567ffffffffffffffff811115612e2a57600080fd5b612e3688828901612d45565b9250506080612e4788828901612d6f565b9150509295509295909350565b600060208284031215612e6657600080fd5b6000612e7484828501612d30565b91505092915050565b600080600060608486031215612e9257600080fd5b600084013567ffffffffffffffff811115612eac57600080fd5b612eb886828701612d45565b9350506020612ec986828701612d6f565b9250506040612eda86828701612d1b565b9150509250925092565b600080600080600060a08688031215612efc57600080fd5b600086013567ffffffffffffffff811115612f1657600080fd5b612f2288828901612d45565b9550506020612f3388828901612d6f565b945050604086013567ffffffffffffffff811115612f5057600080fd5b612f5c88828901612d45565b9350506060612f6d88828901612d6f565b925050608086013567ffffffffffffffff811115612f8a57600080fd5b612f9688828901612d45565b9150509295509295909350565b612fac81613c5c565b82525050565b612fbb81613c80565b82525050565b6000612fcc82613ba7565b612fd68185613bb2565b9350612fe6818560208601613cc3565b612fef81613db5565b840191505092915050565b600061300582613ba7565b61300f8185613bc3565b935061301f818560208601613cc3565b80840191505092915050565b6000815461303881613cf6565b6130428186613bb2565b9450600182166000811461305d576001811461306f576130a2565b60ff19831686526020860193506130a2565b61307885613b92565b60005b8381101561309a5781548189015260018201915060208101905061307b565b808801955050505b50505092915050565b600081546130b881613cf6565b6130c28186613bc3565b945060018216600081146130dd57600181146130ee57613121565b60ff19831686528186019350613121565b6130f785613b92565b60005b83811015613119578154818901526001820191506020810190506130fa565b838801955050505b50505092915050565b6000613137601283613bc3565b91507f52657175657374656420466f72205061727400000000000000000000000000006000830152601282019050919050565b6000613177602083613bb2565b91507f596f752043616e6e6f74204f72646572204d6f7265205468616e2031204361726000830152602082019050919050565b60006131b7601a83613bb2565b91507f537570706c6965722050617274204973204e6f74204d616465640000000000006000830152602082019050919050565b60006131f7600183613bc3565b91507f20000000000000000000000000000000000000000000000000000000000000006000830152600182019050919050565b6000613237601483613bb2565b91507f537570706c696572204973204e6f742053616d650000000000000000000000006000830152602082019050919050565b6000613277604183613bb2565b91507f4d616e756661637475726572204164647265737320497320496e636f7272656360008301527f74204f72204d616e7566616374757265204e6f74204d6164652054686520436160208301527f72000000000000000000000000000000000000000000000000000000000000006040830152606082019050919050565b6000613303602783613bb2565b91507f456e74657220416c6c205265717569726564204669656c6420496e204d616e7560008301527f66616374757265000000000000000000000000000000000000000000000000006020830152604082019050919050565b6000613369604483613bb2565b91507f204d616e756661637475726520416e6420437573746f6d65722050726963652060008301527f4e6f74204d61746368696e6720446570656e64696e672055706f6e205175616e60208301527f74697479000000000000000000000000000000000000000000000000000000006040830152606082019050919050565b60006133f5601d83613bb2565b91507f43616e6e6f74204d616465204d6f7265205468616e204f6e65204361720000006000830152602082019050919050565b6000613435602183613bb2565b91507f576974686f757420416c6c205061727473204361722043616e6e6f74204d616460008301527f65000000000000000000000000000000000000000000000000000000000000006020830152604082019050919050565b600061349b600083613bc3565b9150600082019050919050565b60006134b5601683613bb2565b91507f4d616e75666163757265204973204e6f742053616d65000000000000000000006000830152602082019050919050565b60006134f5603283613bb2565b91507f204f646572696e672054696d6520507269636520416e642043757272656e742060008301527f5072696365204e6f74204d61746368696e6700000000000000000000000000006020830152604082019050919050565b61355781613caa565b82525050565b60006135698285612ffa565b9150613574826131ea565b91506135808284612ffa565b91508190509392505050565b60006135988284612ffa565b91506135a3826131ea565b91506135ae8261312a565b915081905092915050565b60006135c58285612ffa565b91506135d08261348e565b91506135dc8284612ffa565b91508190509392505050565b60006135f482856130ab565b91506135ff826131ea565b915061360b82846130ab565b91508190509392505050565b600060a08201905061362c6000830188612fa3565b818103602083015261363e8187612fc1565b905081810360408301526136528186612fc1565b905081810360608301526136668185612fc1565b9050818103608083015261367a8184612fc1565b90509695505050505050565b600060208201905061369b6000830184612fb2565b92915050565b600060a08201905081810360008301526136bb8188612fc1565b905081810360208301526136cf8187612fc1565b90506136de604083018661354e565b81810360608301526136f08185612fc1565b90506136ff608083018461354e565b9695505050505050565b600060a08201905081810360008301526137238188612fc1565b905081810360208301526137378187612fc1565b9050613746604083018661354e565b613753606083018561354e565b81810360808301526137658184612fc1565b90509695505050505050565b6000608082019050818103600083015261378b8187612fc1565b905061379a602083018661354e565b81810360408301526137ac8185612fc1565b905081810360608301526137c08184612fc1565b905095945050505050565b600060808201905081810360008301526137e58187612fc1565b90506137f4602083018661354e565b81810360408301526138068185612fc1565b9050613815606083018461354e565b95945050505050565b6000610120820190508181036000830152613839818c61302b565b9050818103602083015261384d818b61302b565b90508181036040830152613861818a61302b565b90508181036060830152613875818961302b565b90508181036080830152613889818861302b565b905081810360a083015261389d818761302b565b90506138ac60c083018661354e565b81810360e08301526138be818561302b565b90506138ce61010083018461354e565b9a9950505050505050505050565b600060c08201905081810360008301526138f6818961302b565b9050818103602083015261390a818861302b565b9050613919604083018761354e565b818103606083015261392b818661302b565b905061393a608083018561354e565b81810360a083015261394c818461302b565b9050979650505050505050565b60006040820190508181036000830152613973818561302b565b9050613982602083018461354e565b9392505050565b600060a08201905081810360008301526139a3818861302b565b90506139b2602083018761354e565b81810360408301526139c4818661302b565b90506139d3606083018561354e565b81810360808301526139e5818461302b565b90509695505050505050565b60006020820190508181036000830152613a0a8161316a565b9050919050565b60006020820190508181036000830152613a2a816131aa565b9050919050565b60006020820190508181036000830152613a4a8161322a565b9050919050565b60006020820190508181036000830152613a6a8161326a565b9050919050565b60006020820190508181036000830152613a8a816132f6565b9050919050565b60006020820190508181036000830152613aaa8161335c565b9050919050565b60006020820190508181036000830152613aca816133e8565b9050919050565b60006020820190508181036000830152613aea81613428565b9050919050565b60006020820190508181036000830152613b0a816134a8565b9050919050565b60006020820190508181036000830152613b2a816134e8565b9050919050565b6000604051905081810181811067ffffffffffffffff82111715613b5857613b57613d86565b5b8060405250919050565b600067ffffffffffffffff821115613b7d57613b7c613d86565b5b601f19601f8301169050602081019050919050565b60008190508160005260206000209050919050565b600081519050919050565b600082825260208201905092915050565b600081905092915050565b6000613bd982613caa565b9150613be483613caa565b9250817fffffffffffffffffffffffffffffffffffffffffffffffffffffffffffffffff0483118215151615613c1d57613c1c613d28565b5b828202905092915050565b6000613c3382613caa565b9150613c3e83613caa565b925082821015613c5157613c50613d28565b5b828203905092915050565b6000613c6782613c8a565b9050919050565b6000613c7982613c8a565b9050919050565b6000819050919050565b600073ffffffffffffffffffffffffffffffffffffffff82169050919050565b6000819050919050565b82818337600083830152505050565b60005b83811015613ce1578082015181840152602081019050613cc6565b83811115613cf0576000848401525b50505050565b60006002820490506001821680613d0e57607f821691505b60208210811415613d2257613d21613d57565b5b50919050565b7f4e487b7100000000000000000000000000000000000000000000000000000000600052601160045260246000fd5b7f4e487b7100000000000000000000000000000000000000000000000000000000600052602260045260246000fd5b7f4e487b7100000000000000000000000000000000000000000000000000000000600052604160045260246000fd5b6000601f19601f8301169050919050565b613dcf81613c5c565b8114613dda57600080fd5b50565b613de681613c6e565b8114613df157600080fd5b50565b613dfd81613c80565b8114613e0857600080fd5b50565b613e1481613caa565b8114613e1f57600080fd5b5056fea264697066735822122035768247fc498ee4d4a4de22df416845f07c104aa14d916f5a4878be671d3f3d64736f6c63430008000033",
  "immutableReferences": {},
  "source": "// SPDX-License-Identifier: MIT\n\npragma solidity ^0.8.0;\n\ncontract supplyChain{\n  struct Order {\n    string supplierName;\n    uint supplierQuantity;\n    uint supplierPrice;\n    string supplierDate;\n    string supplierPartName;\n\n\n    string manufactureName;\n    uint manufactureReuiredPartQuantity;\n    uint manufactureQuantity;\n    uint manufacturePrice;\n    string manufactureProductName;\n    string manufactureDate;\n    string manufacturerPartName;\n\n\n    string customerName;\n    uint customerQuantity;\n    string customerProductName;\n    uint customerPrice;\n\n    // string owner;\n    string productName;\n    string productStatus;\n    string paymentStatus;\n\n    //for manufacture request\n      string  partName ;\n      uint quantity ;\n      string  date ;\n      string nameOfYourCompany;\n      uint256 price;\n\n\n  }\n  struct Owner{\n    address ownerAddress;\n    string ownerName;\n  }\n\n  mapping(uint=>Order) registry; //saving data like array\n  mapping(bytes32=>Order) details;// saving data like unique hash form\n  mapping(bytes32=>Owner) owner;\n\n  bool requiredParts=false;\n  bytes32 supplierCreatedHash;\n  bytes32 manufacturerCreatedHash;\n  bytes32 customerCreatedHash;\n  bytes32 manufactureRequestCreatedHash;\n\n  address manufactureAddress;\n  address supplierAddress;\n  address customerAddress;\n\n  event OrderGenerated(string orderno);\n  event MfgTrigger(string orderno);\n  event SupplyTrigger(string orderno);\n  event ReportSubmit(string orderno, uint category, string report);\n\n\nfunction A_manufactureRequest(string memory _partName , uint _quantity , string memory _date , uint _price , string memory _nameOfYourCompany)  public returns(bytes32){\n  //setting owner\n  manufactureAddress =msg.sender;\n  //saving data\n  registry[0].partName = _partName;\n  registry[0].quantity = _quantity;\n  registry[0].date = _date;\n  registry[0].price = _price*10**18;\n  registry[0].nameOfYourCompany=_nameOfYourCompany;\n   //creating hash\n      manufactureRequestCreatedHash = keccak256(abi.encode(\n                                                           registry[0].partName ,\n                                                           registry[0].quantity ,\n                                                           registry[0].date ,\n                                                           registry[0].price ,\n                                                           registry[0].nameOfYourCompany\n                                                          )\n                                               );\n  // saving data on hash\n  details[manufactureRequestCreatedHash].partName = _partName;\n  details[manufactureRequestCreatedHash].quantity = _quantity;\n  details[manufactureRequestCreatedHash].date = _date;\n  details[manufactureRequestCreatedHash].price = _price*10**18;\n  details[manufactureRequestCreatedHash].nameOfYourCompany=_nameOfYourCompany;\n  details[manufactureRequestCreatedHash].productStatus = \"Not Accepted Till Now\";\n  details[manufactureRequestCreatedHash].paymentStatus = \"Pending\";\n  //saving data for hash detail function\n  string memory a = string(abi.encodePacked(_nameOfYourCompany,' ','Requested For Part'));\n  details[manufactureRequestCreatedHash].productName=string(abi.encodePacked(a,' ',_partName));\n  owner[manufactureRequestCreatedHash].ownerAddress = msg.sender;\n  owner[manufactureRequestCreatedHash].ownerName = _nameOfYourCompany;\n return manufactureRequestCreatedHash;\n}\n\n\n  function B_supplierResponse(bytes32 _manufactureRequestedHash) public returns(bytes32){\n    supplierAddress =msg.sender;\n  //for balance\n    string memory _partName = details[_manufactureRequestedHash].partName ;\n   uint _quantity = details[_manufactureRequestedHash].quantity;\n  string memory _date= details[_manufactureRequestedHash].date ;\n  string memory _nameOfYourCompany = details[_manufactureRequestedHash].nameOfYourCompany;\n  uint _price = details[_manufactureRequestedHash].price*10**18;\n     //saving supplier data\n      registry[0].supplierName = 'Tata';\n      registry[0].supplierPartName = _partName;\n      registry[0].supplierQuantity =_quantity;\n      registry[0].supplierDate = _date;\n      registry[0].supplierPrice = _price;\n      registry[0].nameOfYourCompany = _nameOfYourCompany;\n      //creating hash\n      supplierCreatedHash = keccak256(abi.encode(\n                           registry[0].supplierName,\n                           registry[0].supplierPartName ,\n                           registry[0].supplierQuantity ,\n                           registry[0].supplierDate,\n                           registry[0].supplierPrice,\n                           registry[0].nameOfYourCompany\n                          )\n               );\n\n     // saving data to 32bytes mapping to get all details\n      details[supplierCreatedHash].supplierName = ' Tata';\n      details[supplierCreatedHash].supplierPartName = _partName;\n      details[supplierCreatedHash].supplierQuantity = _quantity;\n      details[supplierCreatedHash].supplierPrice = _price;\n      details[supplierCreatedHash].supplierDate = _date;\n      details[supplierCreatedHash].nameOfYourCompany = _nameOfYourCompany;\n      details[manufactureRequestCreatedHash].productStatus = \"Accepted & Maded\";\n      details[supplierCreatedHash].productStatus = \"Accepted & Maded\";\n      details[supplierCreatedHash].paymentStatus =\"Pending\";\n      requiredParts  = true; // setting required part so manufacture cant made product without parts\n      //setting part ownership to supplier\n      owner[supplierCreatedHash].ownerAddress = msg.sender;\n      owner[supplierCreatedHash].ownerName = 'Tata Supplier';\n      details[supplierCreatedHash].productName = _partName ;\n      return supplierCreatedHash;\n  }\n\n  function C_paymentToSupplierByManufacturer(address payable _supplierAddress)public payable{\n    require(_supplierAddress == supplierAddress , \"Supplier Is Not Same\" );\n    require(msg.sender == manufactureAddress , \"Manufacure Is Not Same\" );\n    require(details[manufactureRequestCreatedHash].price == msg.value,\" Odering Time Price And Current Price Not Matching\");\n    require(requiredParts == true,'Supplier Part Is Not Maded');\n    _supplierAddress.transfer(msg.value);\n    details[supplierCreatedHash].paymentStatus =\"Payment Complete\";\n    details[supplierCreatedHash].productStatus = \" Delivered To Manufacturer\";\n    details[manufactureRequestCreatedHash].productStatus = \" Delivered To Manufacturer\";\n    details[manufactureRequestCreatedHash].paymentStatus =\"Payment Completed\";\n      //transfering ownership supplier to manufacturer\n    owner[supplierCreatedHash].ownerAddress = manufactureAddress ;\n    owner[supplierCreatedHash].ownerName = details[manufactureRequestCreatedHash].nameOfYourCompany ;\n    details[supplierCreatedHash].productName = details[supplierCreatedHash].supplierPartName ;\n  }\n\n\n\n  function D_creatingCar(address _manufactureAddress , string memory _productName , uint _productPrice , string memory _date , uint _quantity) public returns(bytes32){\n    require(_manufactureAddress == manufactureAddress);\n    require(msg.sender==manufactureAddress);\n    require(_quantity==1,\"Cannot Made More Than One Car\");\n    require(requiredParts == true,'Without All Parts Car Cannot Made');\n    require(registry[0].quantity > 0,'Enter All Required Field In Manufacture');\n      //saving supplier data\n      registry[0].manufacturerPartName = 'Car Frame ';\n      registry[1].manufacturerPartName = 'Car Engine ';\n      registry[2].manufacturerPartName = 'Car Handle ';\n      registry[3].manufacturerPartName = details[supplierCreatedHash].supplierPartName;\n      registry[0].manufactureName = 'Jaguar';\n      registry[0].manufactureProductName = _productName;\n      registry[0].manufacturePrice = _productPrice*10**18;\n      registry[0].manufactureDate = _date;\n      registry[0].manufactureQuantity = _quantity;\n\n      //creating hash\n      manufacturerCreatedHash = keccak256(abi.encode(\n                                       registry[0].manufacturerPartName ,\n                                       registry[1].manufacturerPartName ,\n                                       registry[2].manufacturerPartName,\n                                       registry[3].manufacturerPartName,\n                                       registry[0].manufactureName,\n                                       registry[0].manufactureProductName,\n                                       registry[0].manufacturePrice ,\n                                       registry[0].manufactureDate,\n                                       registry[0].manufactureQuantity\n                          )\n               );\n\n     // saving data to 32bytes mapping to get all details\n      string memory a = string(abi.encodePacked(registry[0].manufacturerPartName,' ',registry[1].manufacturerPartName));\n      string memory b = string(abi.encodePacked(registry[2].manufacturerPartName,' ',registry[3].manufacturerPartName));\n      details[manufacturerCreatedHash].manufacturerPartName = string(abi.encodePacked(a,'',b));\n      details[manufacturerCreatedHash].manufactureName = 'Jaguar';\n      details[manufacturerCreatedHash].manufactureProductName = _productName;\n      details[manufacturerCreatedHash].manufacturePrice =_productPrice*10**18;\n      details[manufacturerCreatedHash].manufactureDate = _date;\n      details[manufacturerCreatedHash].manufactureQuantity = _quantity;\n      //setting carownership to manufacturer\n      owner[manufacturerCreatedHash].ownerAddress = msg.sender;\n      owner[manufacturerCreatedHash].ownerName = 'Jaguar Manuacturer';\n       details[manufacturerCreatedHash].productName =_productName ;\n       details[manufacturerCreatedHash].productStatus = \"Car Maded\" ;\n       details[manufacturerCreatedHash].paymentStatus = \"Not Yet Customer Order\" ;\n      return manufacturerCreatedHash;\n  \n  }\n\n  function E_shippedCarToCustomer(string memory _customerName , uint _customerQuantity , address payable _payingToManufacturer )public payable returns(bytes32){\n    // payment\n       require(_customerQuantity==1,\"You Cannot Order More Than 1 Car\");\n       require(_payingToManufacturer==manufactureAddress,\"Manufacturer Address Is Incorrect Or Manufacture Not Made The Car\");\n       require(msg.value ==details[manufacturerCreatedHash].manufacturePrice,\" Manufacture And Customer Price Not Matching Depending Upon Quantity\");\n    _payingToManufacturer.transfer(msg.value);\n    details[manufacturerCreatedHash].paymentStatus =\"Payment Complete\";\n    details[manufacturerCreatedHash].productStatus = \" Delivered To Customer\";\n      details[manufacturerCreatedHash].manufactureQuantity = details[manufacturerCreatedHash].manufactureQuantity-_customerQuantity;\n      //saving supplier data\n    registry[0].customerName = _customerName;\n    registry[0].customerQuantity =_customerQuantity;\n    //creating hash\n      customerCreatedHash = keccak256(abi.encode(\n                                                     registry[0].customerName,\n                                                     registry[0].customerQuantity\n                                                    )\n                                         );\n      // saving data to 32bytes mapping to get all details\n        details[customerCreatedHash].customerName = _customerName;\n        details[customerCreatedHash].customerQuantity =_customerQuantity;         \n        details[customerCreatedHash].customerProductName = details[manufacturerCreatedHash].manufactureProductName ;\n         details[customerCreatedHash].customerPrice = details[manufacturerCreatedHash].manufacturePrice * _customerQuantity;                     \n      //transfering hash ownership manufacture to customer\n      owner[manufacturerCreatedHash].ownerAddress = msg.sender;\n      owner[manufacturerCreatedHash].ownerName = _customerName;\n      details[manufacturerCreatedHash].productName =details[manufacturerCreatedHash].manufactureProductName ;\n\n         return manufacturerCreatedHash;\n  }\n\n  function F_getCustomerDetail(bytes32 _customerCreatedHash)view public returns(string memory customerName , uint customerQuantity , string memory customerProductName , uint customerPrice){\n    return (\n              details[_customerCreatedHash].customerName ,\n              details[_customerCreatedHash].customerQuantity ,\n               details[_customerCreatedHash].customerProductName ,\n               details[_customerCreatedHash].customerPrice\n             );\n  }\n\n  function G_getCarDetails(bytes32 _manufacturerCreatedHash) view public returns(string memory manufacturerPartName , string memory manufactureName ,uint manufacturePrice , string memory manufactureDate , uint manufactureQuantity )\n  {\n      return (\n              details[_manufacturerCreatedHash].manufacturerPartName ,\n              details[_manufacturerCreatedHash].manufactureName ,\n              details[_manufacturerCreatedHash].manufacturePrice ,\n             details[_manufacturerCreatedHash].manufactureDate ,\n               details[_manufacturerCreatedHash].manufactureQuantity\n             );\n             \n  }\n\n  function H_getingSupplierDetails(bytes32 _supplierCreatedHash)public view returns(string memory supplierName , string memory supplierPartName , uint supplierQuantity , uint supplierPrice , string memory supplierDate )\n  {\n      return (\n                details[_supplierCreatedHash].supplierName,\n                details[_supplierCreatedHash].supplierPartName ,\n                details[_supplierCreatedHash].supplierQuantity ,\n                details[_supplierCreatedHash].supplierPrice ,\n                details[_supplierCreatedHash].supplierDate \n      );\n  }\n\n  function I_getManufactureRequest(bytes32 _manufactureRequestCreatedHash)view public returns(string memory _partName , uint _quantity , string memory _date , string memory _nameOfCompany){\n    return(\n           details[_manufactureRequestCreatedHash].partName,\n           details[_manufactureRequestCreatedHash].quantity,\n           details[_manufactureRequestCreatedHash].date,\n           details[_manufactureRequestCreatedHash].nameOfYourCompany\n          );\n  }\n\n  function J_ownerOfHash(bytes32 _hash) view public returns(address _ownerAddress , string memory _ownerName , string memory _productName ,string memory _productStatus , string memory _paymentStatus ){\n    return(\n            owner[_hash].ownerAddress,\n            owner[_hash].ownerName,\n            details[_hash].productName,\n            details[_hash].productStatus,\n            details[_hash].paymentStatus\n          );\n  }\n \n}",
  "sourcePath": "/home/rajnishyadav/Downloads/BC/7SupplyChain/contracts/supplyChain.sol",
  "compiler": {
    "name": "solc",
    "version": "0.8.0+commit.c7dfd78e.Emscripten.clang"
  },
  "schemaVersion": "3.2.2-next.0",
  "updatedAt": "2022-07-04T06:12:45.881Z",
  "networkType": "ethereum",
  "devdoc": {
    "kind": "dev",
    "methods": {},
    "version": 1
  },
  "userdoc": {
    "kind": "user",
    "methods": {},
    "version": 1
  }
}