{
  "contractName": "HashedTimelock",
  "abi": [
    {
      "anonymous": false,
      "inputs": [
        {
          "indexed": true,
          "internalType": "bytes32",
          "name": "contractId",
          "type": "bytes32"
        },
        {
          "indexed": true,
          "internalType": "address",
          "name": "sender",
          "type": "address"
        },
        {
          "indexed": true,
          "internalType": "address",
          "name": "receiver",
          "type": "address"
        },
        {
          "indexed": false,
          "internalType": "uint256",
          "name": "amount",
          "type": "uint256"
        },
        {
          "indexed": false,
          "internalType": "bytes32",
          "name": "hashlock",
          "type": "bytes32"
        },
        {
          "indexed": false,
          "internalType": "uint256",
          "name": "timelock",
          "type": "uint256"
        }
      ],
      "name": "LogHTLCNew",
      "type": "event"
    },
    {
      "anonymous": false,
      "inputs": [
        {
          "indexed": true,
          "internalType": "bytes32",
          "name": "contractId",
          "type": "bytes32"
        }
      ],
      "name": "LogHTLCRefund",
      "type": "event"
    },
    {
      "anonymous": false,
      "inputs": [
        {
          "indexed": true,
          "internalType": "bytes32",
          "name": "contractId",
          "type": "bytes32"
        }
      ],
      "name": "LogHTLCWithdraw",
      "type": "event"
    },
    {
      "inputs": [
        {
          "internalType": "address payable",
          "name": "_receiver",
          "type": "address"
        },
        {
          "internalType": "bytes32",
          "name": "_hashlock",
          "type": "bytes32"
        },
        {
          "internalType": "uint256",
          "name": "_timelock",
          "type": "uint256"
        }
      ],
      "name": "newContract",
      "outputs": [
        {
          "internalType": "bytes32",
          "name": "contractId",
          "type": "bytes32"
        }
      ],
      "stateMutability": "payable",
      "type": "function",
      "payable": true
    },
    {
      "inputs": [],
      "name": "balance",
      "outputs": [
        {
          "internalType": "uint256",
          "name": "",
          "type": "uint256"
        }
      ],
      "stateMutability": "view",
      "type": "function",
      "constant": true
    },
    {
      "inputs": [
        {
          "internalType": "bytes32",
          "name": "_contractId",
          "type": "bytes32"
        },
        {
          "internalType": "string",
          "name": "_preimage",
          "type": "string"
        }
      ],
      "name": "withdraw",
      "outputs": [
        {
          "internalType": "bool",
          "name": "",
          "type": "bool"
        }
      ],
      "stateMutability": "nonpayable",
      "type": "function"
    },
    {
      "inputs": [
        {
          "internalType": "bytes32",
          "name": "_contractId",
          "type": "bytes32"
        }
      ],
      "name": "refund",
      "outputs": [
        {
          "internalType": "bool",
          "name": "",
          "type": "bool"
        }
      ],
      "stateMutability": "nonpayable",
      "type": "function"
    },
    {
      "inputs": [
        {
          "internalType": "bytes32",
          "name": "_contractId",
          "type": "bytes32"
        }
      ],
      "name": "getContract",
      "outputs": [
        {
          "internalType": "address",
          "name": "sender",
          "type": "address"
        },
        {
          "internalType": "address",
          "name": "receiver",
          "type": "address"
        },
        {
          "internalType": "uint256",
          "name": "amount",
          "type": "uint256"
        },
        {
          "internalType": "bytes32",
          "name": "hashlock",
          "type": "bytes32"
        },
        {
          "internalType": "uint256",
          "name": "timelock",
          "type": "uint256"
        },
        {
          "internalType": "bool",
          "name": "withdrawn",
          "type": "bool"
        },
        {
          "internalType": "bool",
          "name": "refunded",
          "type": "bool"
        },
        {
          "internalType": "string",
          "name": "preimage",
          "type": "string"
        }
      ],
      "stateMutability": "view",
      "type": "function",
      "constant": true
    }
  ],
  "bytecode": "0x608060405234801561001057600080fd5b506119c1806100206000396000f3fe60806040526004361061004a5760003560e01c806306a536651461004f578063335ef5bd1461008c5780637249fbb6146100bc578063b69ef8a8146100f9578063e16c7d9814610124575b600080fd5b34801561005b57600080fd5b5061007660048036038101906100719190610ef7565b610168565b6040516100839190611502565b60405180910390f35b6100a660048036038101906100a19190610e56565b61049f565b6040516100b3919061151d565b60405180910390f35b3480156100c857600080fd5b506100e360048036038101906100de9190610ea5565b6107f5565b6040516100f09190611502565b60405180910390f35b34801561010557600080fd5b5061010e610ae9565b60405161011b91906116b8565b60405180910390f35b34801561013057600080fd5b5061014b60048036038101906101469190610ea5565b610af1565b60405161015f98979695949392919061147d565b60405180910390f35b60008261017481610c89565b6101b3576040517f08c379a00000000000000000000000000000000000000000000000000000000081526004016101aa90611578565b60405180910390fd5b83836000816040516020016101c89190611466565b6040516020818303038152906040528051906020012060001c905060008160001b9050806000808681526020019081526020016000206003015414610242576040517f08c379a000000000000000000000000000000000000000000000000000000000815260040161023990611678565b60405180910390fd5b873373ffffffffffffffffffffffffffffffffffffffff1660008083815260200190815260200160002060010160009054906101000a900473ffffffffffffffffffffffffffffffffffffffff1673ffffffffffffffffffffffffffffffffffffffff16146102e6576040517f08c379a00000000000000000000000000000000000000000000000000000000081526004016102dd90611558565b60405180910390fd5b6000151560008083815260200190815260200160002060050160009054906101000a900460ff1615151461034f576040517f08c379a000000000000000000000000000000000000000000000000000000000815260040161034690611618565b60405180910390fd5b4260008083815260200190815260200160002060040154116103a6576040517f08c379a000000000000000000000000000000000000000000000000000000000815260040161039d90611698565b60405180910390fd5b60008060008b81526020019081526020016000209050888160060190805190602001906103d4929190610cf7565b5060018160050160006101000a81548160ff0219169083151502179055508060010160009054906101000a900473ffffffffffffffffffffffffffffffffffffffff1673ffffffffffffffffffffffffffffffffffffffff166108fc82600201549081150290604051600060405180830381858888f19350505050158015610460573d6000803e3d6000fd5b50897fd6fd4c8e45bf0c70693141c7ce46451b6a6a28ac8386fca2ba914044e0e2391660405160405180910390a2600197505050505050505092915050565b60008034116104e3576040517f08c379a00000000000000000000000000000000000000000000000000000000081526004016104da90611638565b60405180910390fd5b81428111610526576040517f08c379a000000000000000000000000000000000000000000000000000000000815260040161051d90611538565b60405180910390fd5b600233863487876040516020016105419594939291906113f0565b60405160208183030381529060405260405161055d919061144f565b602060405180830381855afa15801561057a573d6000803e3d6000fd5b5050506040513d601f19601f8201168201806040525081019061059d9190610ece565b91506105a882610c89565b156105e8576040517f08c379a00000000000000000000000000000000000000000000000000000000081526004016105df906115b8565b60405180910390fd5b6040518061010001604052803373ffffffffffffffffffffffffffffffffffffffff1681526020018673ffffffffffffffffffffffffffffffffffffffff1681526020016116b481526020018581526020018481526020016000151581526020016000151581526020016040518060200160405280600081525081525060008084815260200190815260200160002060008201518160000160006101000a81548173ffffffffffffffffffffffffffffffffffffffff021916908373ffffffffffffffffffffffffffffffffffffffff16021790555060208201518160010160006101000a81548173ffffffffffffffffffffffffffffffffffffffff021916908373ffffffffffffffffffffffffffffffffffffffff16021790555060408201518160020155606082015181600301556080820151816004015560a08201518160050160006101000a81548160ff02191690831515021790555060c08201518160050160016101000a81548160ff02191690831515021790555060e082015181600601908051906020019061077f929190610cf7565b509050508473ffffffffffffffffffffffffffffffffffffffff163373ffffffffffffffffffffffffffffffffffffffff16837f329a8316ed9c3b2299597538371c2944c5026574e803b1ec31d6113e1cd67bde3488886040516107e5939291906116d3565b60405180910390a4509392505050565b60008161080181610c89565b610840576040517f08c379a000000000000000000000000000000000000000000000000000000000815260040161083790611578565b60405180910390fd5b823373ffffffffffffffffffffffffffffffffffffffff1660008083815260200190815260200160002060000160009054906101000a900473ffffffffffffffffffffffffffffffffffffffff1673ffffffffffffffffffffffffffffffffffffffff16146108e4576040517f08c379a00000000000000000000000000000000000000000000000000000000081526004016108db90611658565b60405180910390fd5b6000151560008083815260200190815260200160002060050160019054906101000a900460ff1615151461094d576040517f08c379a0000000000000000000000000000000000000000000000000000000008152600401610944906115f8565b60405180910390fd5b6000151560008083815260200190815260200160002060050160009054906101000a900460ff161515146109b6576040517f08c379a00000000000000000000000000000000000000000000000000000000081526004016109ad90611598565b60405180910390fd5b42600080838152602001908152602001600020600401541115610a0e576040517f08c379a0000000000000000000000000000000000000000000000000000000008152600401610a05906115d8565b60405180910390fd5b6000806000868152602001908152602001600020905060018160050160016101000a81548160ff0219169083151502179055508060000160009054906101000a900473ffffffffffffffffffffffffffffffffffffffff1673ffffffffffffffffffffffffffffffffffffffff166108fc82600201549081150290604051600060405180830381858888f19350505050158015610aaf573d6000803e3d6000fd5b50847f989b3a845197c9aec15f8982bbb30b5da714050e662a7a287bb1a94c81e2e70e60405160405180910390a260019350505050919050565b600047905090565b6000806000806000806000606060001515610b0b8a610c89565b15151415610b495760008060008060008060008360001b93506040518060200160405280600081525097509750975097509750975097509750610c7e565b60008060008b815260200190815260200160002090508060000160009054906101000a900473ffffffffffffffffffffffffffffffffffffffff168160010160009054906101000a900473ffffffffffffffffffffffffffffffffffffffff168260020154836003015484600401548560050160009054906101000a900460ff168660050160019054906101000a900460ff1687600601808054610bec9061184e565b80601f0160208091040260200160405190810160405280929190818152602001828054610c189061184e565b8015610c655780601f10610c3a57610100808354040283529160200191610c65565b820191906000526020600020905b815481529060010190602001808311610c4857829003601f168201915b5050505050905098509850985098509850985098509850505b919395975091939597565b60008073ffffffffffffffffffffffffffffffffffffffff1660008084815260200190815260200160002060000160009054906101000a900473ffffffffffffffffffffffffffffffffffffffff1673ffffffffffffffffffffffffffffffffffffffff1614159050919050565b828054610d039061184e565b90600052602060002090601f016020900481019282610d255760008555610d6c565b82601f10610d3e57805160ff1916838001178555610d6c565b82800160010185558215610d6c579182015b82811115610d6b578251825591602001919060010190610d50565b5b509050610d799190610d7d565b5090565b5b80821115610d96576000816000905550600101610d7e565b5090565b6000610dad610da88461173b565b61170a565b905082815260208101848484011115610dc557600080fd5b610dd084828561180c565b509392505050565b600081359050610de781611946565b92915050565b600081359050610dfc8161195d565b92915050565b600081519050610e118161195d565b92915050565b600082601f830112610e2857600080fd5b8135610e38848260208601610d9a565b91505092915050565b600081359050610e5081611974565b92915050565b600080600060608486031215610e6b57600080fd5b6000610e7986828701610dd8565b9350506020610e8a86828701610ded565b9250506040610e9b86828701610e41565b9150509250925092565b600060208284031215610eb757600080fd5b6000610ec584828501610ded565b91505092915050565b600060208284031215610ee057600080fd5b6000610eee84828501610e02565b91505092915050565b60008060408385031215610f0a57600080fd5b6000610f1885828601610ded565b925050602083013567ffffffffffffffff811115610f3557600080fd5b610f4185828601610e17565b9150509250929050565b610f5c610f57826117ba565b611892565b82525050565b610f6b816117a8565b82525050565b610f82610f7d826117a8565b611880565b82525050565b610f91816117cc565b82525050565b610fa0816117d8565b82525050565b610fb7610fb2826117d8565b6118a4565b82525050565b6000610fc88261176b565b610fd28185611781565b9350610fe281856020860161181b565b80840191505092915050565b6000610ff982611776565b611003818561178c565b935061101381856020860161181b565b61101c81611928565b840191505092915050565b600061103282611776565b61103c818561179d565b935061104c81856020860161181b565b80840191505092915050565b600061106560238361178c565b91507f74696d656c6f636b2074696d65206d75737420626520696e207468652066757460008301527f75726500000000000000000000000000000000000000000000000000000000006020830152604082019050919050565b60006110cb601a8361178c565b91507f776974686472617761626c653a206e6f742072656365697665720000000000006000830152602082019050919050565b600061110b60198361178c565b91507f636f6e7472616374496420646f6573206e6f74206578697374000000000000006000830152602082019050919050565b600061114b601d8361178c565b91507f726566756e6461626c653a20616c72656164792077697468647261776e0000006000830152602082019050919050565b600061118b60178361178c565b91507f436f6e747261637420616c7265616479206578697374730000000000000000006000830152602082019050919050565b60006111cb60238361178c565b91507f726566756e6461626c653a2074696d656c6f636b206e6f74207965742070617360008301527f73656400000000000000000000000000000000000000000000000000000000006020830152604082019050919050565b6000611231601c8361178c565b91507f726566756e6461626c653a20616c726561647920726566756e646564000000006000830152602082019050919050565b6000611271601f8361178c565b91507f776974686472617761626c653a20616c72656164792077697468647261776e006000830152602082019050919050565b60006112b160158361178c565b91507f6d73672e76616c7565206d757374206265203e203000000000000000000000006000830152602082019050919050565b60006112f160168361178c565b91507f726566756e6461626c653a206e6f742073656e646572000000000000000000006000830152602082019050919050565b6000611331601c8361178c565b91507f686173686c6f636b206861736820646f6573206e6f74206d61746368000000006000830152602082019050919050565b600061137160318361178c565b91507f776974686472617761626c653a2074696d656c6f636b2074696d65206d75737460008301527f20626520696e20746865206675747572650000000000000000000000000000006020830152604082019050919050565b6113d381611802565b82525050565b6113ea6113e582611802565b6118c0565b82525050565b60006113fc8288610f71565b60148201915061140c8287610f4b565b60148201915061141c82866113d9565b60208201915061142c8285610fa6565b60208201915061143c82846113d9565b6020820191508190509695505050505050565b600061145b8284610fbd565b915081905092915050565b60006114728284611027565b915081905092915050565b600061010082019050611493600083018b610f62565b6114a0602083018a610f62565b6114ad60408301896113ca565b6114ba6060830188610f97565b6114c760808301876113ca565b6114d460a0830186610f88565b6114e160c0830185610f88565b81810360e08301526114f38184610fee565b90509998505050505050505050565b60006020820190506115176000830184610f88565b92915050565b60006020820190506115326000830184610f97565b92915050565b6000602082019050818103600083015261155181611058565b9050919050565b60006020820190508181036000830152611571816110be565b9050919050565b60006020820190508181036000830152611591816110fe565b9050919050565b600060208201905081810360008301526115b18161113e565b9050919050565b600060208201905081810360008301526115d18161117e565b9050919050565b600060208201905081810360008301526115f1816111be565b9050919050565b6000602082019050818103600083015261161181611224565b9050919050565b6000602082019050818103600083015261163181611264565b9050919050565b60006020820190508181036000830152611651816112a4565b9050919050565b60006020820190508181036000830152611671816112e4565b9050919050565b6000602082019050818103600083015261169181611324565b9050919050565b600060208201905081810360008301526116b181611364565b9050919050565b60006020820190506116cd60008301846113ca565b92915050565b60006060820190506116e860008301866113ca565b6116f56020830185610f97565b61170260408301846113ca565b949350505050565b6000604051905081810181811067ffffffffffffffff82111715611731576117306118f9565b5b8060405250919050565b600067ffffffffffffffff821115611756576117556118f9565b5b601f19601f8301169050602081019050919050565b600081519050919050565b600081519050919050565b600081905092915050565b600082825260208201905092915050565b600081905092915050565b60006117b3826117e2565b9050919050565b60006117c5826117e2565b9050919050565b60008115159050919050565b6000819050919050565b600073ffffffffffffffffffffffffffffffffffffffff82169050919050565b6000819050919050565b82818337600083830152505050565b60005b8381101561183957808201518184015260208101905061181e565b83811115611848576000848401525b50505050565b6000600282049050600182168061186657607f821691505b6020821081141561187a576118796118ca565b5b50919050565b600061188b826118ae565b9050919050565b600061189d826118ae565b9050919050565b6000819050919050565b60006118b982611939565b9050919050565b6000819050919050565b7f4e487b7100000000000000000000000000000000000000000000000000000000600052602260045260246000fd5b7f4e487b7100000000000000000000000000000000000000000000000000000000600052604160045260246000fd5b6000601f19601f8301169050919050565b60008160601b9050919050565b61194f816117ba565b811461195a57600080fd5b50565b611966816117d8565b811461197157600080fd5b50565b61197d81611802565b811461198857600080fd5b5056fea2646970667358221220930cb36a2e1bf54ab653b587a96d4d2d3016c45f32e673dfb71ee2bfa5b9c59b64736f6c63430008000033",
  "immutableReferences": {},
  "source": "// SPDX-License-Identifier: MIT\npragma solidity >=0.4.22 <0.9.0;\n\n\n// /**\n//  * @title Hashed Timelock Contracts (HTLCs) on Ethereum ETH.\n//  *\n//  * This contract provides a way to create and keep HTLCs for ETH.\n//  *\n//  * See HashedTimelockERC20.sol for a contract that provides the same functions\n//  * for ERC20 tokens.\n//  *\n//  * Protocol:\n//  *\n//  *  1) newContract(receiver, hashlock, timelock) - a sender calls this to create\n//  *      a new HTLC and gets back a 32 byte contract id\n//  *  2) withdraw(contractId, preimage) - once the receiver knows the preimage of\n//  *      the hashlock hash they can claim the ETH with this function\n//  *  3) refund() - after timelock has expired and if the receiver did not\n//  *      withdraw funds the sender / creator of the HTLC can get their ETH\n//  *      back with this function.\n//  */\ncontract HashedTimelock {\n\n    event LogHTLCNew(\n        bytes32 indexed contractId,\n        address indexed sender,\n        address indexed receiver,\n        uint amount,\n        bytes32 hashlock,\n        uint timelock\n    );\n    event LogHTLCWithdraw(bytes32 indexed contractId);\n    event LogHTLCRefund(bytes32 indexed contractId);\n\n    struct LockContract {\n        address payable sender;\n        address payable receiver;\n        uint amount;\n        bytes32 hashlock; // sha-2 sha256 hash\n        uint timelock; // UNIX timestamp seconds - locked UNTIL this time\n        bool withdrawn;\n        bool refunded;\n        string preimage;\n    }\n\n    modifier fundsSent() {\n        require(msg.value > 0, \"msg.value must be > 0\");\n        _;\n    }\n    modifier futureTimelock(uint _time) {\n        // only requirement is the timelock time is after the last blocktime (now).\n        // probably want something a bit further in the future then this.\n        // but this is still a useful sanity check:\n        require(_time > block.timestamp, \"timelock time must be in the future\");\n        _;\n    }\n    modifier contractExists(bytes32 _contractId) {\n        require(haveContract(_contractId), \"contractId does not exist\");\n        _;\n    }\n    modifier hashlockMatches(bytes32 _contractId, string memory _x) {\n        uint256 a = uint(keccak256(abi.encodePacked(_x)));\n        bytes32 b = bytes32(a);\n        require(\n            contracts[_contractId].hashlock == b,\n            \"hashlock hash does not match\"\n        );\n        _;\n    }\n    modifier withdrawable(bytes32 _contractId) {\n        require(contracts[_contractId].receiver == msg.sender, \"withdrawable: not receiver\");\n        require(contracts[_contractId].withdrawn == false, \"withdrawable: already withdrawn\");\n        require(contracts[_contractId].timelock > block.timestamp, \"withdrawable: timelock time must be in the future\");\n        _;\n    }\n    modifier refundable(bytes32 _contractId) {\n        require(contracts[_contractId].sender == msg.sender, \"refundable: not sender\");\n        require(contracts[_contractId].refunded == false, \"refundable: already refunded\");\n        require(contracts[_contractId].withdrawn == false, \"refundable: already withdrawn\");\n        require(contracts[_contractId].timelock <= block.timestamp, \"refundable: timelock not yet passed\");\n        _;\n    }\n\n    mapping (bytes32 => LockContract) contracts;\n\n    function newContract(address payable _receiver, bytes32 _hashlock, uint _timelock)\n        external\n        payable\n        fundsSent\n        futureTimelock(_timelock)\n        returns (bytes32 contractId)\n    {\n        contractId = sha256(\n            abi.encodePacked(\n                msg.sender,\n                _receiver,\n                msg.value,\n                _hashlock,\n                _timelock\n            )\n        );\n\n        // Reject if a contract already exists with the same parameters. The\n        // sender must change one of these parameters to create a new distinct\n        // contract.\n        if (haveContract(contractId))\n            revert(\"Contract already exists\");\n\n        contracts[contractId] = LockContract(\n            payable(msg.sender),\n            _receiver,\n            5812,\n            _hashlock,\n            _timelock,\n            false,\n            false,\n            \"\"\n        );\n\n        emit LogHTLCNew(\n            contractId,\n            msg.sender,\n            _receiver,\n            msg.value,\n            _hashlock,\n            _timelock\n        );\n    }\n function balance() public view returns(uint){\n     return address(this).balance;\n }\n    \n    function withdraw(bytes32 _contractId, string memory _preimage)\n        external\n        contractExists(_contractId)\n        hashlockMatches(_contractId, _preimage)\n        withdrawable(_contractId)\n        returns (bool)\n    {\n        LockContract storage c = contracts[_contractId];\n        c.preimage = _preimage;\n        c.withdrawn = true;\n        c.receiver.transfer(c.amount);\n        emit LogHTLCWithdraw(_contractId);\n        return true;\n    }\n\n    /**\n     * @dev Called by the sender if there was no withdraw AND the time lock has\n     * expired. This will refund the contract amount.\n     *\n     * @param _contractId Id of HTLC to refund from.\n     * @return bool true on success\n     */\n    function refund(bytes32 _contractId)\n        external\n        contractExists(_contractId)\n        refundable(_contractId)\n        returns (bool)\n    {\n        LockContract storage c = contracts[_contractId];\n        c.refunded = true;\n        c.sender.transfer(c.amount);\n        emit LogHTLCRefund(_contractId);\n        return true;\n    }\n\n    // /**\n    //  * @dev Get contract details.\n    //  * @param _contractId HTLC contract id\n    //  * @return All parameters in struct LockContract for _contractId HTLC\n    //  */\n    function getContract(bytes32 _contractId)\n        public\n        view\n        returns (\n            address sender,\n            address receiver,\n            uint amount,\n            bytes32 hashlock,\n            uint timelock,\n            bool withdrawn,\n            bool refunded,\n            string memory preimage\n        )\n    {\n        if (haveContract(_contractId) == false)\n            return (address(0), address(0), 0, 0, 0, false, false, \"\");\n        LockContract storage c = contracts[_contractId];\n        return (\n            c.sender,\n            c.receiver,\n            c.amount,\n            c.hashlock,\n            c.timelock,\n            c.withdrawn,\n            c.refunded,\n            c.preimage\n        );\n    }\n\n    /**\n     * @dev Is there a contract with id _contractId.\n     * @param _contractId Id into contracts mapping.\n     */\n    function haveContract(bytes32 _contractId)\n        internal\n        view\n        returns (bool exists)\n    {\n        exists = (contracts[_contractId].sender != address(0));\n    }\n\n}",
  "sourcePath": "/home/rajnishyadav/Downloads/Blockchain/j_Extra/alice/contracts/HashedTimelock.sol",
  "compiler": {
    "name": "solc",
    "version": "0.8.0+commit.c7dfd78e.Emscripten.clang"
  },
  "schemaVersion": "3.2.2-next.0",
  "updatedAt": "2022-11-11T10:59:27.342Z",
  "networkType": "ethereum",
  "devdoc": {
    "kind": "dev",
    "methods": {
      "refund(bytes32)": {
        "details": "Called by the sender if there was no withdraw AND the time lock has expired. This will refund the contract amount.",
        "params": {
          "_contractId": "Id of HTLC to refund from."
        },
        "returns": {
          "_0": "bool true on success"
        }
      }
    },
    "version": 1
  },
  "userdoc": {
    "kind": "user",
    "methods": {},
    "version": 1
  }
}