{
  "contractName": "ICO",
  "abi": [
    {
      "inputs": [
        {
          "internalType": "uint256",
          "name": "initialSupply",
          "type": "uint256"
        }
      ],
      "stateMutability": "nonpayable",
      "type": "constructor"
    },
    {
      "anonymous": false,
      "inputs": [
        {
          "indexed": true,
          "internalType": "address",
          "name": "sender",
          "type": "address"
        },
        {
          "indexed": true,
          "internalType": "address",
          "name": "receiver",
          "type": "address"
        },
        {
          "indexed": false,
          "internalType": "uint256",
          "name": "fundTransfered",
          "type": "uint256"
        },
        {
          "indexed": false,
          "internalType": "uint256",
          "name": "tokensIssued",
          "type": "uint256"
        }
      ],
      "name": "TokenBuy",
      "type": "event"
    },
    {
      "inputs": [
        {
          "internalType": "address",
          "name": "addr",
          "type": "address"
        }
      ],
      "name": "getBalance",
      "outputs": [
        {
          "internalType": "uint256",
          "name": "",
          "type": "uint256"
        }
      ],
      "stateMutability": "view",
      "type": "function",
      "constant": true
    },
    {
      "inputs": [
        {
          "internalType": "uint256",
          "name": "calculatedTokensPassingToContract",
          "type": "uint256"
        }
      ],
      "name": "transfer",
      "outputs": [],
      "stateMutability": "payable",
      "type": "function",
      "payable": true
    },
    {
      "inputs": [
        {
          "internalType": "uint256",
          "name": "calculatedTokensPassingToContract",
          "type": "uint256"
        }
      ],
      "name": "buyTokensWithEther",
      "outputs": [],
      "stateMutability": "payable",
      "type": "function",
      "payable": true
    }
  ],
  "bytecode": "0x6080604052670de0b6b3a76400006004553480156200001d57600080fd5b5060405162000d2938038062000d2983398181016040528101906200004391906200010a565b6004548162000053919062000136565b6000803373ffffffffffffffffffffffffffffffffffffffff1673ffffffffffffffffffffffffffffffffffffffff1681526020019081526020016000208190555060045481620000a5919062000136565b60038190555033600160006101000a81548173ffffffffffffffffffffffffffffffffffffffff021916908373ffffffffffffffffffffffffffffffffffffffff16021790555050620001ea565b6000815190506200010481620001d0565b92915050565b6000602082840312156200011d57600080fd5b60006200012d84828501620000f3565b91505092915050565b6000620001438262000197565b9150620001508362000197565b9250817fffffffffffffffffffffffffffffffffffffffffffffffffffffffffffffffff04831182151516156200018c576200018b620001a1565b5b828202905092915050565b6000819050919050565b7f4e487b7100000000000000000000000000000000000000000000000000000000600052601160045260246000fd5b620001db8162000197565b8114620001e757600080fd5b50565b610b2f80620001fa6000396000f3fe6080604052600436106100345760003560e01c806312514bba1461003957806324c253c114610055578063f8b2cb4f14610071575b600080fd5b610053600480360381019061004e9190610809565b6100ae565b005b61006f600480360381019061006a9190610809565b610288565b005b34801561007d57600080fd5b50610098600480360381019061009391906107e0565b61076e565b6040516100a591906108c7565b60405180910390f35b600160009054906101000a900473ffffffffffffffffffffffffffffffffffffffff1673ffffffffffffffffffffffffffffffffffffffff166108fc349081150290604051600060405180830381858888f19350505050158015610116573d6000803e3d6000fd5b5080600080600160009054906101000a900473ffffffffffffffffffffffffffffffffffffffff1673ffffffffffffffffffffffffffffffffffffffff1673ffffffffffffffffffffffffffffffffffffffff168152602001908152602001600020600082825461018791906109fd565b92505081905550806000803373ffffffffffffffffffffffffffffffffffffffff1673ffffffffffffffffffffffffffffffffffffffff16815260200190815260200160002060008282546101dc919061091c565b9250508190555034600260008282546101f5919061091c565b92505081905550600160009054906101000a900473ffffffffffffffffffffffffffffffffffffffff1673ffffffffffffffffffffffffffffffffffffffff163373ffffffffffffffffffffffffffffffffffffffff167f662fffd2e2fb751e0e978097e1169c484196033934fe5ebbb20e66baf883fe87348460405161027d9291906108e2565b60405180910390a350565b600a6064601960035461029b91906109a3565b6102a59190610972565b6102af91906109a3565b3411156102f1576040517f08c379a00000000000000000000000000000000000000000000000000000000081526004016102e8906108a7565b60405180910390fd5b6064604b60035461030291906109a3565b61030c9190610972565b600080600160009054906101000a900473ffffffffffffffffffffffffffffffffffffffff1673ffffffffffffffffffffffffffffffffffffffff1673ffffffffffffffffffffffffffffffffffffffff168152602001908152602001600020541180156103f3575060648060035461038591906109a3565b61038f9190610972565b600080600160009054906101000a900473ffffffffffffffffffffffffffffffffffffffff1673ffffffffffffffffffffffffffffffffffffffff1673ffffffffffffffffffffffffffffffffffffffff1681526020019081526020016000205411155b1561040657610401816100ae565b61076b565b6064603260035461041791906109a3565b6104219190610972565b600080600160009054906101000a900473ffffffffffffffffffffffffffffffffffffffff1673ffffffffffffffffffffffffffffffffffffffff1673ffffffffffffffffffffffffffffffffffffffff1681526020019081526020016000205411801561050957506064604b60035461049b91906109a3565b6104a59190610972565b600080600160009054906101000a900473ffffffffffffffffffffffffffffffffffffffff1673ffffffffffffffffffffffffffffffffffffffff1673ffffffffffffffffffffffffffffffffffffffff1681526020019081526020016000205411155b156105285761052360028261051e9190610972565b6100ae565b61076a565b6064601960035461053991906109a3565b6105439190610972565b600080600160009054906101000a900473ffffffffffffffffffffffffffffffffffffffff1673ffffffffffffffffffffffffffffffffffffffff1673ffffffffffffffffffffffffffffffffffffffff1681526020019081526020016000205411801561062b5750606460326003546105bd91906109a3565b6105c79190610972565b600080600160009054906101000a900473ffffffffffffffffffffffffffffffffffffffff1673ffffffffffffffffffffffffffffffffffffffff1673ffffffffffffffffffffffffffffffffffffffff1681526020019081526020016000205411155b1561064a576106456003826106409190610972565b6100ae565b610769565b6064600160035461065b91906109a3565b6106659190610972565b600080600160009054906101000a900473ffffffffffffffffffffffffffffffffffffffff1673ffffffffffffffffffffffffffffffffffffffff1673ffffffffffffffffffffffffffffffffffffffff1681526020019081526020016000205411801561074d5750606460196003546106df91906109a3565b6106e99190610972565b600080600160009054906101000a900473ffffffffffffffffffffffffffffffffffffffff1673ffffffffffffffffffffffffffffffffffffffff1673ffffffffffffffffffffffffffffffffffffffff1681526020019081526020016000205411155b15610768576107676004826107629190610972565b6100ae565b5b5b5b5b50565b60008060008373ffffffffffffffffffffffffffffffffffffffff1673ffffffffffffffffffffffffffffffffffffffff168152602001908152602001600020549050919050565b6000813590506107c581610acb565b92915050565b6000813590506107da81610ae2565b92915050565b6000602082840312156107f257600080fd5b6000610800848285016107b6565b91505092915050565b60006020828403121561081b57600080fd5b6000610829848285016107cb565b91505092915050565b600061083f60228361090b565b91507f54752061616d69722068616920626861692068756d7365206e6120686f70796560008301527f67610000000000000000000000000000000000000000000000000000000000006020830152604082019050919050565b6108a181610a63565b82525050565b600060208201905081810360008301526108c081610832565b9050919050565b60006020820190506108dc6000830184610898565b92915050565b60006040820190506108f76000830185610898565b6109046020830184610898565b9392505050565b600082825260208201905092915050565b600061092782610a63565b915061093283610a63565b9250827fffffffffffffffffffffffffffffffffffffffffffffffffffffffffffffffff0382111561096757610966610a6d565b5b828201905092915050565b600061097d82610a63565b915061098883610a63565b92508261099857610997610a9c565b5b828204905092915050565b60006109ae82610a63565b91506109b983610a63565b9250817fffffffffffffffffffffffffffffffffffffffffffffffffffffffffffffffff04831182151516156109f2576109f1610a6d565b5b828202905092915050565b6000610a0882610a63565b9150610a1383610a63565b925082821015610a2657610a25610a6d565b5b828203905092915050565b6000610a3c82610a43565b9050919050565b600073ffffffffffffffffffffffffffffffffffffffff82169050919050565b6000819050919050565b7f4e487b7100000000000000000000000000000000000000000000000000000000600052601160045260246000fd5b7f4e487b7100000000000000000000000000000000000000000000000000000000600052601260045260246000fd5b610ad481610a31565b8114610adf57600080fd5b50565b610aeb81610a63565b8114610af657600080fd5b5056fea26469706673582212204753593de2be53442f21ed61737ff96ba53a432042f086c426d17e5de961478164736f6c63430008000033",
  "immutableReferences": {},
  "source": "// SPDX-License-Identifier: MIT\npragma solidity ^0.8.0;\n\ncontract ICO {\n    mapping(address => uint256) balances; // mapping(address => uint256)  _balances;\n    address payable tokenFundsAddress; // Address of the wallet holding the token funds when they are first created\n    uint256 amountRaised; // Keep track of ETH funds raised\n    uint256 check;\n    // This generates a public event on the blockchain that will notify listening clients\n    event TokenBuy(\n        address indexed sender,\n        address indexed receiver,\n        uint256 fundTransfered,\n        uint256 tokensIssued\n    );\n    uint gbtoken = 1*1 ether;\n    constructor(uint256 initialSupply) {\n        balances[msg.sender] = initialSupply * gbtoken;\n        check = initialSupply * gbtoken;\n        tokenFundsAddress = payable(msg.sender);\n    }\n\n    function getBalance(address addr) public view returns (uint256) {\n        return balances[addr];\n    }\n\n    function transfer(uint256 calculatedTokensPassingToContract) public payable {\n        tokenFundsAddress.transfer(msg.value);\n        balances[tokenFundsAddress] -= (calculatedTokensPassingToContract);\n        balances[msg.sender] += (calculatedTokensPassingToContract);\n        amountRaised += msg.value;\n        emit TokenBuy(msg.sender, tokenFundsAddress, msg.value, calculatedTokensPassingToContract);\n    }\n\n    function buyTokensWithEther(uint calculatedTokensPassingToContract) public payable {\n        if(msg.value > ((check * 25)/100)*10 ){\n            revert(\"Tu aamir hai bhai humse na hopyega\");\n        }\n        else{\n           if(balances[tokenFundsAddress]>(check*75)/100 && balances[tokenFundsAddress] <= (check*100)/100){\n           transfer(calculatedTokensPassingToContract);\n           }\n           else if( balances[tokenFundsAddress]>(check*50)/100 && balances[tokenFundsAddress] <= (check*75)/100){\n            transfer(calculatedTokensPassingToContract/2);\n           }\n           else if( balances[tokenFundsAddress] > (check*25)/100 && balances[tokenFundsAddress] <= ((check*50)/100)){\n               transfer(calculatedTokensPassingToContract/3);\n           }\n           else if(balances[tokenFundsAddress] > (check*1)/100 && balances[tokenFundsAddress] <= (check*25)/100){\n               transfer(calculatedTokensPassingToContract/4);\n           }\n        }\n    }\n}",
  "sourcePath": "/home/rajnishyadav/Downloads/Blockchain/9_ICO/contracts/ICO.sol",
  "compiler": {
    "name": "solc",
    "version": "0.8.0+commit.c7dfd78e.Emscripten.clang"
  },
  "schemaVersion": "3.2.2-next.0",
  "updatedAt": "2022-07-11T10:01:00.108Z",
  "networkType": "ethereum",
  "devdoc": {
    "kind": "dev",
    "methods": {},
    "version": 1
  },
  "userdoc": {
    "kind": "user",
    "methods": {},
    "version": 1
  }
}