{
  "contractName": "HTLC",
  "abi": [
    {
      "inputs": [
        {
          "internalType": "address",
          "name": "_recipient",
          "type": "address"
        },
        {
          "internalType": "address",
          "name": "_token",
          "type": "address"
        },
        {
          "internalType": "uint256",
          "name": "_amount",
          "type": "uint256"
        }
      ],
      "stateMutability": "nonpayable",
      "type": "constructor"
    },
    {
      "inputs": [],
      "name": "amount",
      "outputs": [
        {
          "internalType": "uint256",
          "name": "",
          "type": "uint256"
        }
      ],
      "stateMutability": "view",
      "type": "function",
      "constant": true
    },
    {
      "inputs": [],
      "name": "hash",
      "outputs": [
        {
          "internalType": "bytes32",
          "name": "",
          "type": "bytes32"
        }
      ],
      "stateMutability": "view",
      "type": "function",
      "constant": true
    },
    {
      "inputs": [],
      "name": "lockTime",
      "outputs": [
        {
          "internalType": "uint256",
          "name": "",
          "type": "uint256"
        }
      ],
      "stateMutability": "view",
      "type": "function",
      "constant": true
    },
    {
      "inputs": [],
      "name": "owner",
      "outputs": [
        {
          "internalType": "address",
          "name": "",
          "type": "address"
        }
      ],
      "stateMutability": "view",
      "type": "function",
      "constant": true
    },
    {
      "inputs": [],
      "name": "recipient",
      "outputs": [
        {
          "internalType": "address",
          "name": "",
          "type": "address"
        }
      ],
      "stateMutability": "view",
      "type": "function",
      "constant": true
    },
    {
      "inputs": [],
      "name": "secret",
      "outputs": [
        {
          "internalType": "string",
          "name": "",
          "type": "string"
        }
      ],
      "stateMutability": "view",
      "type": "function",
      "constant": true
    },
    {
      "inputs": [],
      "name": "startTime",
      "outputs": [
        {
          "internalType": "uint256",
          "name": "",
          "type": "uint256"
        }
      ],
      "stateMutability": "view",
      "type": "function",
      "constant": true
    },
    {
      "inputs": [],
      "name": "token",
      "outputs": [
        {
          "internalType": "contract IERC20",
          "name": "",
          "type": "address"
        }
      ],
      "stateMutability": "view",
      "type": "function",
      "constant": true
    },
    {
      "inputs": [],
      "name": "fund",
      "outputs": [],
      "stateMutability": "nonpayable",
      "type": "function"
    },
    {
      "inputs": [
        {
          "internalType": "string",
          "name": "_secret",
          "type": "string"
        }
      ],
      "name": "withdraw",
      "outputs": [],
      "stateMutability": "nonpayable",
      "type": "function"
    },
    {
      "inputs": [],
      "name": "refund",
      "outputs": [],
      "stateMutability": "nonpayable",
      "type": "function"
    },
    {
      "inputs": [],
      "name": "balance",
      "outputs": [
        {
          "internalType": "uint256",
          "name": "",
          "type": "uint256"
        }
      ],
      "stateMutability": "view",
      "type": "function",
      "constant": true
    }
  ],
  "bytecode": "0x60806040526127106001557ffd69353b27210d2567bc0ade61674bbc3fc01a558a61c2a0cb2b13d96f9387cd60001b6003553480156200003e57600080fd5b5060405162000f3a38038062000f3a833981810160405281019062000064919062000165565b82600460006101000a81548173ffffffffffffffffffffffffffffffffffffffff021916908373ffffffffffffffffffffffffffffffffffffffff16021790555033600560006101000a81548173ffffffffffffffffffffffffffffffffffffffff021916908373ffffffffffffffffffffffffffffffffffffffff1602179055508060068190555081600760006101000a81548173ffffffffffffffffffffffffffffffffffffffff021916908373ffffffffffffffffffffffffffffffffffffffff1602179055505050506200022d565b6000815190506200014881620001f9565b92915050565b6000815190506200015f8162000213565b92915050565b6000806000606084860312156200017b57600080fd5b60006200018b8682870162000137565b93505060206200019e8682870162000137565b9250506040620001b1868287016200014e565b9150509250925092565b6000620001c882620001cf565b9050919050565b600073ffffffffffffffffffffffffffffffffffffffff82169050919050565b6000819050919050565b6200020481620001bb565b81146200021057600080fd5b50565b6200021e81620001ef565b81146200022a57600080fd5b50565b610cfd806200023d6000396000f3fe608060405234801561001057600080fd5b50600436106100b45760003560e01c80638da5cb5b116100715780638da5cb5b14610157578063aa8c217c14610175578063b60d428814610193578063b69ef8a81461019d578063d1efd30d146101bb578063fc0c546a146101d9576100b4565b806309bd5a60146100b95780630d668087146100d757806331fb67c2146100f5578063590e1ae31461011157806366d003ac1461011b57806378e9792514610139575b600080fd5b6100c16101f7565b6040516100ce9190610997565b60405180910390f35b6100df6101fd565b6040516100ec9190610a2f565b60405180910390f35b61010f600480360381019061010a919061079e565b610203565b005b61011961035b565b005b610123610482565b604051610130919061091c565b60405180910390f35b6101416104a8565b60405161014e9190610a2f565b60405180910390f35b61015f6104ae565b60405161016c919061091c565b60405180910390f35b61017d6104d4565b60405161018a9190610a2f565b60405180910390f35b61019b6104da565b005b6101a5610597565b6040516101b29190610a2f565b60405180910390f35b6101c36105a1565b6040516101d091906109cd565b60405180910390f35b6101e161062f565b6040516101ee91906109b2565b60405180910390f35b60035481565b60015481565b600354816040516020016102179190610905565b604051602081830303815290604052805190602001201461026d576040517f08c379a0000000000000000000000000000000000000000000000000000000008152600401610264906109ef565b60405180910390fd5b8060029080519060200190610283929190610655565b50600760009054906101000a900473ffffffffffffffffffffffffffffffffffffffff1673ffffffffffffffffffffffffffffffffffffffff1663a9059cbb600460009054906101000a900473ffffffffffffffffffffffffffffffffffffffff166006546040518363ffffffff1660e01b815260040161030592919061096e565b602060405180830381600087803b15801561031f57600080fd5b505af1158015610333573d6000803e3d6000fd5b505050506040513d601f19601f820116820180604052508101906103579190610775565b5050565b60015460005461036b9190610ad2565b42116103ac576040517f08c379a00000000000000000000000000000000000000000000000000000000081526004016103a390610a0f565b60405180910390fd5b600760009054906101000a900473ffffffffffffffffffffffffffffffffffffffff1673ffffffffffffffffffffffffffffffffffffffff1663a9059cbb600560009054906101000a900473ffffffffffffffffffffffffffffffffffffffff166006546040518363ffffffff1660e01b815260040161042d92919061096e565b602060405180830381600087803b15801561044757600080fd5b505af115801561045b573d6000803e3d6000fd5b505050506040513d601f19601f8201168201806040525081019061047f9190610775565b50565b600460009054906101000a900473ffffffffffffffffffffffffffffffffffffffff1681565b60005481565b600560009054906101000a900473ffffffffffffffffffffffffffffffffffffffff1681565b60065481565b42600081905550600760009054906101000a900473ffffffffffffffffffffffffffffffffffffffff1673ffffffffffffffffffffffffffffffffffffffff166323b872dd33306006546040518463ffffffff1660e01b815260040161054293929190610937565b602060405180830381600087803b15801561055c57600080fd5b505af1158015610570573d6000803e3d6000fd5b505050506040513d601f19601f820116820180604052508101906105949190610775565b50565b6000600654905090565b600280546105ae90610be0565b80601f01602080910402602001604051908101604052809291908181526020018280546105da90610be0565b80156106275780601f106105fc57610100808354040283529160200191610627565b820191906000526020600020905b81548152906001019060200180831161060a57829003601f168201915b505050505081565b600760009054906101000a900473ffffffffffffffffffffffffffffffffffffffff1681565b82805461066190610be0565b90600052602060002090601f01602090048101928261068357600085556106ca565b82601f1061069c57805160ff19168380011785556106ca565b828001600101855582156106ca579182015b828111156106c95782518255916020019190600101906106ae565b5b5090506106d791906106db565b5090565b5b808211156106f45760008160009055506001016106dc565b5090565b600061070b61070684610a7b565b610a4a565b90508281526020810184848401111561072357600080fd5b61072e848285610b9e565b509392505050565b60008151905061074581610cb0565b92915050565b600082601f83011261075c57600080fd5b813561076c8482602086016106f8565b91505092915050565b60006020828403121561078757600080fd5b600061079584828501610736565b91505092915050565b6000602082840312156107b057600080fd5b600082013567ffffffffffffffff8111156107ca57600080fd5b6107d68482850161074b565b91505092915050565b6107e881610b28565b82525050565b6107f781610b46565b82525050565b61080681610b7a565b82525050565b600061081782610aab565b6108218185610ab6565b9350610831818560208601610bad565b61083a81610c9f565b840191505092915050565b600061085082610aab565b61085a8185610ac7565b935061086a818560208601610bad565b80840191505092915050565b6000610883600c83610ab6565b91507f77726f6e672073656372657400000000000000000000000000000000000000006000830152602082019050919050565b60006108c3600983610ab6565b91507f746f6f206561726c7900000000000000000000000000000000000000000000006000830152602082019050919050565b6108ff81610b70565b82525050565b60006109118284610845565b915081905092915050565b600060208201905061093160008301846107df565b92915050565b600060608201905061094c60008301866107df565b61095960208301856107df565b61096660408301846108f6565b949350505050565b600060408201905061098360008301856107df565b61099060208301846108f6565b9392505050565b60006020820190506109ac60008301846107ee565b92915050565b60006020820190506109c760008301846107fd565b92915050565b600060208201905081810360008301526109e7818461080c565b905092915050565b60006020820190508181036000830152610a0881610876565b9050919050565b60006020820190508181036000830152610a28816108b6565b9050919050565b6000602082019050610a4460008301846108f6565b92915050565b6000604051905081810181811067ffffffffffffffff82111715610a7157610a70610c70565b5b8060405250919050565b600067ffffffffffffffff821115610a9657610a95610c70565b5b601f19601f8301169050602081019050919050565b600081519050919050565b600082825260208201905092915050565b600081905092915050565b6000610add82610b70565b9150610ae883610b70565b9250827fffffffffffffffffffffffffffffffffffffffffffffffffffffffffffffffff03821115610b1d57610b1c610c12565b5b828201905092915050565b6000610b3382610b50565b9050919050565b60008115159050919050565b6000819050919050565b600073ffffffffffffffffffffffffffffffffffffffff82169050919050565b6000819050919050565b6000610b8582610b8c565b9050919050565b6000610b9782610b50565b9050919050565b82818337600083830152505050565b60005b83811015610bcb578082015181840152602081019050610bb0565b83811115610bda576000848401525b50505050565b60006002820490506001821680610bf857607f821691505b60208210811415610c0c57610c0b610c41565b5b50919050565b7f4e487b7100000000000000000000000000000000000000000000000000000000600052601160045260246000fd5b7f4e487b7100000000000000000000000000000000000000000000000000000000600052602260045260246000fd5b7f4e487b7100000000000000000000000000000000000000000000000000000000600052604160045260246000fd5b6000601f19601f8301169050919050565b610cb981610b3a565b8114610cc457600080fd5b5056fea2646970667358221220ae2d880e5189cc22fed7cd27b72fb30075ca3c0bde53329ffb7700f79223ce9c64736f6c63430008000033",
  "immutableReferences": {},
  "source": "// SPDX-License-Identifier: MIT\npragma solidity ^0.8.0; \n\nimport '@openzeppelin/contracts/token/ERC20/IERC20.sol';\n\ncontract HTLC {\n  uint public startTime;\n  uint public lockTime = 10000 seconds;\n  string public secret; //abracadabra \n  bytes32 public hash = 0xfd69353b27210d2567bc0ade61674bbc3fc01a558a61c2a0cb2b13d96f9387cd;\n  address public recipient;\n  address public owner; \n  uint public amount; \n  IERC20 public token;\n\n  constructor(address _recipient, address _token, uint _amount) { \n    recipient = _recipient;\n    owner = msg.sender; \n    amount = _amount;\n    token = IERC20(_token);\n  } \n\n  function fund() external {\n    startTime = block.timestamp;\n    token.transferFrom(msg.sender , address(this), amount);\n  }\n\n  function withdraw(string memory _secret) external { \n    require(keccak256(abi.encodePacked(_secret)) == hash, 'wrong secret');\n    secret = _secret; \n    token.transfer(recipient, amount); \n  } \n\n  function refund() external { \n    require(block.timestamp > startTime + lockTime, 'too early');\n    token.transfer(owner, amount); \n  } \n  function balance() public view returns(uint){\n    return amount;\n  }\n}",
  "sourcePath": "/home/rajnishyadav/Downloads/Blockchain/j_Extra/test/contracts/HTLC.sol",
  "compiler": {
    "name": "solc",
    "version": "0.8.0+commit.c7dfd78e.Emscripten.clang"
  },
  "schemaVersion": "3.2.2-next.0",
  "updatedAt": "2022-11-09T06:05:14.940Z",
  "networkType": "ethereum",
  "devdoc": {
    "kind": "dev",
    "methods": {},
    "version": 1
  },
  "userdoc": {
    "kind": "user",
    "methods": {},
    "version": 1
  }
}