{
  "contractName": "CoinFlip",
  "abi": [
    {
      "constant": true,
      "inputs": [],
      "name": "userFund_",
      "outputs": [
        {
          "name": "",
          "type": "uint256"
        }
      ],
      "payable": false,
      "stateMutability": "pure",
      "type": "function"
    }
  ],
  "bytecode": "0x6080604052348015600f57600080fd5b5060a28061001e6000396000f3fe608060405260043610603f576000357c0100000000000000000000000000000000000000000000000000000000900463ffffffff168063f4b3794b146044575b600080fd5b348015604f57600080fd5b506056606c565b6040518082815260200191505060405180910390f35b60006104d290509056fea165627a7a723058205965c4f7eeecc7e9a1886bc0827e8bb6f221cc24af91402024b3e9ccb85ba1c40029",
  "source": "// SPDX-License-Identifier: MIT\npragma solidity >=0.5.0 <0.9.0;\n\ncontract CoinFlip {\n\n    function userFund_() public pure returns(uint){\n        return 1234;\n    }\n}\n",
  "sourcePath": "/home/rajnishyadav/Desktop/polygonTest3/contracts/CoinFlip.sol",
  "compiler": {
    "name": "solc",
    "version": "0.5.0+commit.1d4f565a.Emscripten.clang"
  },
  "schemaVersion": "3.4.7",
  "updatedAt": "2022-12-01T10:32:39.786Z",
  "devdoc": {
    "methods": {}
  },
  "userdoc": {
    "methods": {}
  }
}