{
  "contractName": "ownwership",
  "abi": [
    {
      "inputs": [
        {
          "internalType": "address",
          "name": "product_contract",
          "type": "address"
        }
      ],
      "stateMutability": "nonpayable",
      "type": "constructor"
    },
    {
      "anonymous": false,
      "inputs": [
        {
          "indexed": true,
          "internalType": "bytes32",
          "name": "p",
          "type": "bytes32"
        },
        {
          "indexed": true,
          "internalType": "address",
          "name": "account",
          "type": "address"
        }
      ],
      "name": "TransferPartOwnership",
      "type": "event"
    },
    {
      "anonymous": false,
      "inputs": [
        {
          "indexed": true,
          "internalType": "bytes32",
          "name": "p",
          "type": "bytes32"
        },
        {
          "indexed": true,
          "internalType": "address",
          "name": "account",
          "type": "address"
        }
      ],
      "name": "TransferProductOwnership",
      "type": "event"
    },
    {
      "inputs": [
        {
          "internalType": "bytes32",
          "name": "",
          "type": "bytes32"
        }
      ],
      "name": "currentPartOwner",
      "outputs": [
        {
          "internalType": "address",
          "name": "",
          "type": "address"
        }
      ],
      "stateMutability": "view",
      "type": "function",
      "constant": true
    },
    {
      "inputs": [
        {
          "internalType": "bytes32",
          "name": "",
          "type": "bytes32"
        }
      ],
      "name": "currentProductOwner",
      "outputs": [
        {
          "internalType": "address",
          "name": "",
          "type": "address"
        }
      ],
      "stateMutability": "view",
      "type": "function",
      "constant": true
    },
    {
      "inputs": [
        {
          "internalType": "uint256",
          "name": "op_type",
          "type": "uint256"
        },
        {
          "internalType": "bytes32",
          "name": "p_hash",
          "type": "bytes32"
        }
      ],
      "name": "add_ownership",
      "outputs": [
        {
          "internalType": "bool",
          "name": "sucess",
          "type": "bool"
        }
      ],
      "stateMutability": "nonpayable",
      "type": "function"
    },
    {
      "inputs": [
        {
          "internalType": "uint256",
          "name": "op_type",
          "type": "uint256"
        },
        {
          "internalType": "bytes32",
          "name": "p_hash",
          "type": "bytes32"
        },
        {
          "internalType": "address",
          "name": "to",
          "type": "address"
        }
      ],
      "name": "changeOwnership",
      "outputs": [
        {
          "internalType": "bool",
          "name": "sucess",
          "type": "bool"
        }
      ],
      "stateMutability": "nonpayable",
      "type": "function"
    },
    {
      "inputs": [
        {
          "internalType": "bytes32",
          "name": "P",
          "type": "bytes32"
        }
      ],
      "name": "currentowner",
      "outputs": [
        {
          "internalType": "address",
          "name": "",
          "type": "address"
        }
      ],
      "stateMutability": "view",
      "type": "function",
      "constant": true
    }
  ],
  "bytecode": "0x60806040523480156200001157600080fd5b506040516200153238038062001532833981810160405281019062000037919062000096565b80600260006101000a81548173ffffffffffffffffffffffffffffffffffffffff021916908373ffffffffffffffffffffffffffffffffffffffff1602179055505062000110565b6000815190506200009081620000f6565b92915050565b600060208284031215620000a957600080fd5b6000620000b9848285016200007f565b91505092915050565b6000620000cf82620000d6565b9050919050565b600073ffffffffffffffffffffffffffffffffffffffff82169050919050565b6200010181620000c2565b81146200010d57600080fd5b50565b61141280620001206000396000f3fe608060405234801561001057600080fd5b50600436106100575760003560e01c806379ab6eba1461005c578063978011bd1461008c578063ac814490146100bc578063df247896146100ec578063f0fddc941461011c575b600080fd5b61007660048036038101906100719190610e94565b61014c565b6040516100839190611001565b60405180910390f35b6100a660048036038101906100a19190610ebd565b61017f565b6040516100b3919061101c565b60405180910390f35b6100d660048036038101906100d19190610ef9565b6106e6565b6040516100e3919061101c565b60405180910390f35b61010660048036038101906101019190610e94565b610bcd565b6040516101139190611001565b60405180910390f35b61013660048036038101906101319190610e94565b610c09565b6040516101439190611001565b60405180910390f35b60006020528060005260406000206000915054906101000a900473ffffffffffffffffffffffffffffffffffffffff1681565b60008060018111156101ba577f4e487b7100000000000000000000000000000000000000000000000000000000600052602160045260246000fd5b83141561042f576000600260009054906101000a900473ffffffffffffffffffffffffffffffffffffffff1673ffffffffffffffffffffffffffffffffffffffff16637281a039846040518263ffffffff1660e01b815260040161021e9190611037565b60006040518083038186803b15801561023657600080fd5b505afa15801561024a573d6000803e3d6000fd5b505050506040513d6000823e3d601f19601f820116820180604052508101906102739190610dac565b9091925090915090505080915050600073ffffffffffffffffffffffffffffffffffffffff1660008085815260200190815260200160002060009054906101000a900473ffffffffffffffffffffffffffffffffffffffff1673ffffffffffffffffffffffffffffffffffffffff1614610322576040517f08c379a000000000000000000000000000000000000000000000000000000000815260040161031990611072565b60405180910390fd5b3373ffffffffffffffffffffffffffffffffffffffff168173ffffffffffffffffffffffffffffffffffffffff1614610390576040517f08c379a000000000000000000000000000000000000000000000000000000000815260040161038790611052565b60405180910390fd5b3360008085815260200190815260200160002060006101000a81548173ffffffffffffffffffffffffffffffffffffffff021916908373ffffffffffffffffffffffffffffffffffffffff1602179055503373ffffffffffffffffffffffffffffffffffffffff16837f6a67eae68bb9deea9cbb16299fce22702092dc03cbcfd6a7babc7ac0036c7d4b60405160405180910390a360019150506106e0565b600180811115610468577f4e487b7100000000000000000000000000000000000000000000000000000000600052602160045260246000fd5b8314156106df576000600260009054906101000a900473ffffffffffffffffffffffffffffffffffffffff1673ffffffffffffffffffffffffffffffffffffffff1663b224149c846040518263ffffffff1660e01b81526004016104cc9190611037565b60006040518083038186803b1580156104e457600080fd5b505afa1580156104f8573d6000803e3d6000fd5b505050506040513d6000823e3d601f19601f820116820180604052508101906105219190610dac565b9091925090915090505080915050600073ffffffffffffffffffffffffffffffffffffffff166001600085815260200190815260200160002060009054906101000a900473ffffffffffffffffffffffffffffffffffffffff1673ffffffffffffffffffffffffffffffffffffffff16146105d1576040517f08c379a00000000000000000000000000000000000000000000000000000000081526004016105c890611072565b60405180910390fd5b3373ffffffffffffffffffffffffffffffffffffffff168173ffffffffffffffffffffffffffffffffffffffff161461063f576040517f08c379a000000000000000000000000000000000000000000000000000000000815260040161063690611052565b60405180910390fd5b336001600085815260200190815260200160002060006101000a81548173ffffffffffffffffffffffffffffffffffffffff021916908373ffffffffffffffffffffffffffffffffffffffff1602179055503373ffffffffffffffffffffffffffffffffffffffff16837fe2d5b74efaa0dc370d71f08be6bc6c865613194b7345262a998fb5232622c0b260405160405180910390a360019150506106e0565b5b92915050565b6000806001811115610721577f4e487b7100000000000000000000000000000000000000000000000000000000600052602160045260246000fd5b841415610866573373ffffffffffffffffffffffffffffffffffffffff1660008085815260200190815260200160002060009054906101000a900473ffffffffffffffffffffffffffffffffffffffff1673ffffffffffffffffffffffffffffffffffffffff16146107c8576040517f08c379a00000000000000000000000000000000000000000000000000000000081526004016107bf90611092565b60405180910390fd5b8160008085815260200190815260200160002060006101000a81548173ffffffffffffffffffffffffffffffffffffffff021916908373ffffffffffffffffffffffffffffffffffffffff1602179055508173ffffffffffffffffffffffffffffffffffffffff16837f6a67eae68bb9deea9cbb16299fce22702092dc03cbcfd6a7babc7ac0036c7d4b60405160405180910390a360019050610bc6565b60018081111561089f577f4e487b7100000000000000000000000000000000000000000000000000000000600052602160045260246000fd5b841415610bc5573373ffffffffffffffffffffffffffffffffffffffff166001600085815260200190815260200160002060009054906101000a900473ffffffffffffffffffffffffffffffffffffffff1673ffffffffffffffffffffffffffffffffffffffff1614610947576040517f08c379a000000000000000000000000000000000000000000000000000000000815260040161093e906110b2565b60405180910390fd5b816001600085815260200190815260200160002060006101000a81548173ffffffffffffffffffffffffffffffffffffffff021916908373ffffffffffffffffffffffffffffffffffffffff1602179055508173ffffffffffffffffffffffffffffffffffffffff16837fe2d5b74efaa0dc370d71f08be6bc6c865613194b7345262a998fb5232622c0b260405160405180910390a36000600260009054906101000a900473ffffffffffffffffffffffffffffffffffffffff1673ffffffffffffffffffffffffffffffffffffffff16636e730329856040518263ffffffff1660e01b8152600401610a3a9190611037565b60c06040518083038186803b158015610a5257600080fd5b505afa158015610a66573d6000803e3d6000fd5b505050506040513d601f19601f82011682018060405250810190610a8a9190610e6b565b905060005b6006811015610bba5783600080848460068110610ad5577f4e487b7100000000000000000000000000000000000000000000000000000000600052603260045260246000fd5b6020020151815260200190815260200160002060006101000a81548173ffffffffffffffffffffffffffffffffffffffff021916908373ffffffffffffffffffffffffffffffffffffffff1602179055508373ffffffffffffffffffffffffffffffffffffffff16828260068110610b76577f4e487b7100000000000000000000000000000000000000000000000000000000600052603260045260246000fd5b60200201517f6a67eae68bb9deea9cbb16299fce22702092dc03cbcfd6a7babc7ac0036c7d4b60405160405180910390a38080610bb290611215565b915050610a8f565b506001915050610bc6565b5b9392505050565b600080600083815260200190815260200160002060009054906101000a900473ffffffffffffffffffffffffffffffffffffffff169050919050565b60016020528060005260406000206000915054906101000a900473ffffffffffffffffffffffffffffffffffffffff1681565b6000610c4f610c4a846110f7565b6110d2565b90508082856020860282011115610c6557600080fd5b60005b85811015610c955781610c7b8882610d43565b845260208401935060208301925050600181019050610c68565b5050509392505050565b6000610cb2610cad8461111d565b6110d2565b905082815260208101848484011115610cca57600080fd5b610cd58482856111b1565b509392505050565b600081359050610cec81611397565b92915050565b600081519050610d0181611397565b92915050565b600082601f830112610d1857600080fd5b6006610d25848285610c3c565b91505092915050565b600081359050610d3d816113ae565b92915050565b600081519050610d52816113ae565b92915050565b600082601f830112610d6957600080fd5b8151610d79848260208601610c9f565b91505092915050565b600081359050610d91816113c5565b92915050565b600081519050610da6816113c5565b92915050565b600080600080600060a08688031215610dc457600080fd5b6000610dd288828901610cf2565b955050602086015167ffffffffffffffff811115610def57600080fd5b610dfb88828901610d58565b945050604086015167ffffffffffffffff811115610e1857600080fd5b610e2488828901610d58565b935050606086015167ffffffffffffffff811115610e4157600080fd5b610e4d88828901610d58565b9250506080610e5e88828901610d97565b9150509295509295909350565b600060c08284031215610e7d57600080fd5b6000610e8b84828501610d07565b91505092915050565b600060208284031215610ea657600080fd5b6000610eb484828501610d2e565b91505092915050565b60008060408385031215610ed057600080fd5b6000610ede85828601610d82565b9250506020610eef85828601610d2e565b9150509250929050565b600080600060608486031215610f0e57600080fd5b6000610f1c86828701610d82565b9350506020610f2d86828701610d2e565b9250506040610f3e86828701610cdd565b9150509250925092565b610f518161115f565b82525050565b610f6081611171565b82525050565b610f6f8161117d565b82525050565b6000610f82601e8361114e565b9150610f8d826112cd565b602082019050919050565b6000610fa5601a8361114e565b9150610fb0826112f6565b602082019050919050565b6000610fc8601e8361114e565b9150610fd38261131f565b602082019050919050565b6000610feb60218361114e565b9150610ff682611348565b604082019050919050565b60006020820190506110166000830184610f48565b92915050565b60006020820190506110316000830184610f57565b92915050565b600060208201905061104c6000830184610f66565b92915050565b6000602082019050818103600083015261106b81610f75565b9050919050565b6000602082019050818103600083015261108b81610f98565b9050919050565b600060208201905081810360008301526110ab81610fbb565b9050919050565b600060208201905081810360008301526110cb81610fde565b9050919050565b60006110dc6110ed565b90506110e882826111e4565b919050565b6000604051905090565b600067ffffffffffffffff8211156111125761111161128d565b5b602082029050919050565b600067ffffffffffffffff8211156111385761113761128d565b5b611141826112bc565b9050602081019050919050565b600082825260208201905092915050565b600061116a82611187565b9050919050565b60008115159050919050565b6000819050919050565b600073ffffffffffffffffffffffffffffffffffffffff82169050919050565b6000819050919050565b60005b838110156111cf5780820151818401526020810190506111b4565b838111156111de576000848401525b50505050565b6111ed826112bc565b810181811067ffffffffffffffff8211171561120c5761120b61128d565b5b80604052505050565b6000611220826111a7565b91507fffffffffffffffffffffffffffffffffffffffffffffffffffffffffffffffff8214156112535761125261125e565b5b600182019050919050565b7f4e487b7100000000000000000000000000000000000000000000000000000000600052601160045260246000fd5b7f4e487b7100000000000000000000000000000000000000000000000000000000600052604160045260246000fd5b6000601f19601f8301169050919050565b7f7061727420776173206e6f74206d616465206279207265717565737465720000600082015250565b7f7061727420697320616c72656164792072656769737465726564000000000000600082015250565b7f50617274206973206e6f74206f776e6564206279207265717565737465720000600082015250565b7f50726f64756374206973206e6f74206f776e656420627920726571756573746560008201527f7200000000000000000000000000000000000000000000000000000000000000602082015250565b6113a08161115f565b81146113ab57600080fd5b50565b6113b78161117d565b81146113c257600080fd5b50565b6113ce816111a7565b81146113d957600080fd5b5056fea2646970667358221220dad5c5e426c3a9d4de948af7d483105d30b81fc2c7b23e1b49735ee0fd4347a664736f6c63430008010033",
  "immutableReferences": {},
  "source": "// SPDX-License-Identifier: MIT\npragma solidity >=0.5.22 <=0.9.0;\n\ncontract Supply_Chain {\n    enum  State    {NOTVIEWED,ACCEPTED,DECLINED,PENDING,PAID}\n    struct Part {\n        address supplier;\n        string manufacturedate;\n        string part_type;\n        string serialno;\n        uint256 price;\n        \n    }\n    struct Product {\n       address manufacturer;\n        string serial_number;\n        string product_type;\n        string manufacturedate;\n        bytes32[6] parts;\n        uint256 price;\n    }\n\n    mapping(bytes32 => Product) public product;\n    mapping(bytes32 => Part) public part;\n      bytes32[] public arry;\n      State public state;\n    function getParts(bytes32 product_hash)\n        public\n        view\n        returns (bytes32[6] memory)\n    {}\n}\n\ncontract ownwership {\n      enum  State   {NOTVIEWED,ACCEPTED,DECLINED,PENDING,PAID}\n    enum Operation {PART,PRODUCT}\n    mapping(bytes32=>address) public currentPartOwner;\n    mapping(bytes32=>address) public currentProductOwner;\n    event TransferPartOwnership(bytes32 indexed p,address indexed account );\n    event TransferProductOwnership(bytes32 indexed p,address indexed account );\n    Supply_Chain private SC;\n    \n    constructor(address product_contract){\n        SC = Supply_Chain(product_contract);\n\n    }\n  \n    function add_ownership(uint op_type,bytes32 p_hash) public returns (bool sucess){\n        if(op_type==uint (Operation.PART)){\n            address manufacturer;\n             \n           \n            (manufacturer, , , , ) = SC.part(p_hash);\n            require(currentPartOwner[p_hash]==address(0),\"part is already registered\");\n            require(manufacturer==msg.sender,\"part was not made by requester\");\n           \n            currentPartOwner[p_hash]=msg.sender;\n            emit TransferPartOwnership(p_hash,msg.sender);\n                return true;\n        }\n        else if (op_type==uint (Operation.PRODUCT)){\n                address manufacturer;\n                (manufacturer, , , ,) = SC.product(p_hash);\n               require(currentProductOwner[p_hash]==address(0),\"part is already registered\");\n            require(manufacturer==msg.sender,\"part was not made by requester\");\n            currentProductOwner[p_hash]=msg.sender;\n            emit TransferProductOwnership(p_hash,msg.sender); \n            return true;\n        }\n    }\n\n    function changeOwnership(uint op_type, bytes32 p_hash, address to) public returns (bool sucess) {\n      \n        if(op_type == uint(Operation.PART)){\n            require(currentPartOwner[p_hash] == msg.sender, \"Part is not owned by requester\");\n            currentPartOwner[p_hash] = to;\n                 \n             emit TransferPartOwnership(p_hash, to);\n             return true;\n        } else if (op_type == uint(Operation.PRODUCT)){\n            require(currentProductOwner[p_hash] == msg.sender, \"Product is not owned by requester\");\n            currentProductOwner[p_hash] = to;\n            emit TransferProductOwnership(p_hash, to);\n            \n            bytes32[6] memory part_list = SC.getParts(p_hash);\n            for(uint i = 0; i < part_list.length; i++){\n                currentPartOwner[part_list[i]] = to;\n                emit TransferPartOwnership(part_list[i], to);\n            }\n            return true;\n        }\n    }\n    function currentowner(bytes32 P)public view returns(address){\n        return currentPartOwner[P];\n\n    }\n}\n",
  "sourcePath": "/home/rajnishyadav/Downloads/BC/8_supplychain/contracts/changeownership.sol",
  "compiler": {
    "name": "solc",
    "version": "0.8.1+commit.df193b15.Emscripten.clang"
  },
  "schemaVersion": "3.2.2-next.0",
  "updatedAt": "2022-07-02T05:33:52.189Z",
  "networkType": "ethereum",
  "devdoc": {
    "kind": "dev",
    "methods": {},
    "version": 1
  },
  "userdoc": {
    "kind": "user",
    "methods": {},
    "version": 1
  }
}