{
  "contractName": "Supply_Chain",
  "abi": [
    {
      "anonymous": false,
      "inputs": [
        {
          "indexed": false,
          "internalType": "address",
          "name": "reciver",
          "type": "address"
        },
        {
          "indexed": false,
          "internalType": "address",
          "name": "sender",
          "type": "address"
        },
        {
          "indexed": false,
          "internalType": "uint256",
          "name": "amount",
          "type": "uint256"
        },
        {
          "indexed": false,
          "internalType": "bytes32",
          "name": "",
          "type": "bytes32"
        }
      ],
      "name": "paymentDone",
      "type": "event"
    },
    {
      "inputs": [
        {
          "internalType": "uint256",
          "name": "",
          "type": "uint256"
        }
      ],
      "name": "arr",
      "outputs": [
        {
          "internalType": "bytes32",
          "name": "",
          "type": "bytes32"
        }
      ],
      "stateMutability": "view",
      "type": "function",
      "constant": true
    },
    {
      "inputs": [
        {
          "internalType": "uint256",
          "name": "",
          "type": "uint256"
        }
      ],
      "name": "arry",
      "outputs": [
        {
          "internalType": "bytes32",
          "name": "",
          "type": "bytes32"
        }
      ],
      "stateMutability": "view",
      "type": "function",
      "constant": true
    },
    {
      "inputs": [
        {
          "internalType": "bytes32",
          "name": "",
          "type": "bytes32"
        }
      ],
      "name": "order",
      "outputs": [
        {
          "internalType": "address",
          "name": "manufactureradd",
          "type": "address"
        },
        {
          "internalType": "string",
          "name": "part_type",
          "type": "string"
        },
        {
          "internalType": "string",
          "name": "deliverOn",
          "type": "string"
        },
        {
          "internalType": "string",
          "name": "orderdate",
          "type": "string"
        },
        {
          "internalType": "string",
          "name": "quantity",
          "type": "string"
        },
        {
          "internalType": "uint256",
          "name": "time",
          "type": "uint256"
        },
        {
          "internalType": "enum Supply_Chain.State",
          "name": "state",
          "type": "uint8"
        }
      ],
      "stateMutability": "view",
      "type": "function",
      "constant": true
    },
    {
      "inputs": [
        {
          "internalType": "bytes32",
          "name": "",
          "type": "bytes32"
        }
      ],
      "name": "part",
      "outputs": [
        {
          "internalType": "address",
          "name": "supplier",
          "type": "address"
        },
        {
          "internalType": "string",
          "name": "manufacturedate",
          "type": "string"
        },
        {
          "internalType": "string",
          "name": "part_type",
          "type": "string"
        },
        {
          "internalType": "string",
          "name": "serialno",
          "type": "string"
        },
        {
          "internalType": "uint256",
          "name": "price",
          "type": "uint256"
        },
        {
          "internalType": "enum Supply_Chain.State",
          "name": "state",
          "type": "uint8"
        }
      ],
      "stateMutability": "view",
      "type": "function",
      "constant": true
    },
    {
      "inputs": [
        {
          "internalType": "bytes32",
          "name": "",
          "type": "bytes32"
        }
      ],
      "name": "part_detail",
      "outputs": [
        {
          "internalType": "bytes32",
          "name": "orderhash",
          "type": "bytes32"
        },
        {
          "internalType": "address",
          "name": "supplier",
          "type": "address"
        },
        {
          "internalType": "uint256",
          "name": "partPrice",
          "type": "uint256"
        },
        {
          "internalType": "string",
          "name": "parttype",
          "type": "string"
        },
        {
          "internalType": "enum Supply_Chain.State",
          "name": "state",
          "type": "uint8"
        }
      ],
      "stateMutability": "view",
      "type": "function",
      "constant": true
    },
    {
      "inputs": [
        {
          "internalType": "bytes32",
          "name": "",
          "type": "bytes32"
        }
      ],
      "name": "product",
      "outputs": [
        {
          "internalType": "address",
          "name": "manufacturer",
          "type": "address"
        },
        {
          "internalType": "string",
          "name": "serial_number",
          "type": "string"
        },
        {
          "internalType": "string",
          "name": "product_type",
          "type": "string"
        },
        {
          "internalType": "string",
          "name": "manufacturedate",
          "type": "string"
        },
        {
          "internalType": "uint256",
          "name": "price",
          "type": "uint256"
        }
      ],
      "stateMutability": "view",
      "type": "function",
      "constant": true
    },
    {
      "inputs": [
        {
          "internalType": "string",
          "name": "part_type",
          "type": "string"
        },
        {
          "internalType": "string",
          "name": "deliverOn",
          "type": "string"
        },
        {
          "internalType": "string",
          "name": "orderdate",
          "type": "string"
        },
        {
          "internalType": "string",
          "name": "quantity",
          "type": "string"
        }
      ],
      "name": "create_order",
      "outputs": [
        {
          "internalType": "bytes32",
          "name": "",
          "type": "bytes32"
        }
      ],
      "stateMutability": "nonpayable",
      "type": "function"
    },
    {
      "inputs": [
        {
          "internalType": "bytes32",
          "name": "orderhash",
          "type": "bytes32"
        }
      ],
      "name": "view_order",
      "outputs": [
        {
          "components": [
            {
              "internalType": "address",
              "name": "manufactureradd",
              "type": "address"
            },
            {
              "internalType": "string",
              "name": "part_type",
              "type": "string"
            },
            {
              "internalType": "string",
              "name": "deliverOn",
              "type": "string"
            },
            {
              "internalType": "string",
              "name": "orderdate",
              "type": "string"
            },
            {
              "internalType": "string",
              "name": "quantity",
              "type": "string"
            },
            {
              "internalType": "uint256",
              "name": "time",
              "type": "uint256"
            },
            {
              "internalType": "enum Supply_Chain.State",
              "name": "state",
              "type": "uint8"
            }
          ],
          "internalType": "struct Supply_Chain.Order",
          "name": "",
          "type": "tuple"
        }
      ],
      "stateMutability": "nonpayable",
      "type": "function"
    },
    {
      "inputs": [],
      "name": "accept_order",
      "outputs": [
        {
          "internalType": "bytes32[]",
          "name": "",
          "type": "bytes32[]"
        }
      ],
      "stateMutability": "view",
      "type": "function",
      "constant": true
    },
    {
      "inputs": [
        {
          "internalType": "bytes32",
          "name": "orderhash",
          "type": "bytes32"
        },
        {
          "internalType": "string",
          "name": "manufacturedate",
          "type": "string"
        },
        {
          "internalType": "string",
          "name": "serialno",
          "type": "string"
        },
        {
          "internalType": "uint256",
          "name": "price",
          "type": "uint256"
        }
      ],
      "name": "make_part",
      "outputs": [
        {
          "internalType": "bytes32",
          "name": "partHash",
          "type": "bytes32"
        }
      ],
      "stateMutability": "nonpayable",
      "type": "function"
    },
    {
      "inputs": [],
      "name": "partowned",
      "outputs": [
        {
          "internalType": "bytes32[]",
          "name": "",
          "type": "bytes32[]"
        }
      ],
      "stateMutability": "view",
      "type": "function",
      "constant": true
    },
    {
      "inputs": [
        {
          "internalType": "bytes32",
          "name": "orderhash",
          "type": "bytes32"
        },
        {
          "internalType": "bytes32",
          "name": "partHash",
          "type": "bytes32"
        }
      ],
      "name": "partrecepit",
      "outputs": [
        {
          "internalType": "bytes32",
          "name": "",
          "type": "bytes32"
        }
      ],
      "stateMutability": "nonpayable",
      "type": "function"
    },
    {
      "inputs": [
        {
          "internalType": "bytes32",
          "name": "orderhash",
          "type": "bytes32"
        }
      ],
      "name": "getpartrecepit",
      "outputs": [
        {
          "components": [
            {
              "internalType": "bytes32",
              "name": "orderhash",
              "type": "bytes32"
            },
            {
              "internalType": "address",
              "name": "supplier",
              "type": "address"
            },
            {
              "internalType": "uint256",
              "name": "partPrice",
              "type": "uint256"
            },
            {
              "internalType": "string",
              "name": "parttype",
              "type": "string"
            },
            {
              "internalType": "enum Supply_Chain.State",
              "name": "state",
              "type": "uint8"
            }
          ],
          "internalType": "struct Supply_Chain.part_recepit",
          "name": "",
          "type": "tuple"
        }
      ],
      "stateMutability": "view",
      "type": "function",
      "constant": true
    },
    {
      "inputs": [
        {
          "internalType": "address payable",
          "name": "receiver",
          "type": "address"
        },
        {
          "internalType": "bytes32",
          "name": "orderh",
          "type": "bytes32"
        }
      ],
      "name": "getparts",
      "outputs": [
        {
          "internalType": "bool",
          "name": "",
          "type": "bool"
        }
      ],
      "stateMutability": "payable",
      "type": "function",
      "payable": true
    },
    {
      "inputs": [
        {
          "internalType": "string",
          "name": "serialno",
          "type": "string"
        },
        {
          "internalType": "string",
          "name": "product_type",
          "type": "string"
        },
        {
          "internalType": "string",
          "name": "creation_date",
          "type": "string"
        },
        {
          "internalType": "bytes32[2]",
          "name": "parts_array",
          "type": "bytes32[2]"
        },
        {
          "internalType": "uint256",
          "name": "price",
          "type": "uint256"
        }
      ],
      "name": "make_Product",
      "outputs": [
        {
          "internalType": "bytes32",
          "name": "",
          "type": "bytes32"
        }
      ],
      "stateMutability": "nonpayable",
      "type": "function"
    },
    {
      "inputs": [
        {
          "internalType": "bytes32",
          "name": "product_hash",
          "type": "bytes32"
        }
      ],
      "name": "getProductParts",
      "outputs": [
        {
          "internalType": "bytes32[2]",
          "name": "",
          "type": "bytes32[2]"
        }
      ],
      "stateMutability": "view",
      "type": "function",
      "constant": true
    },
    {
      "inputs": [
        {
          "internalType": "bytes32",
          "name": "parthash",
          "type": "bytes32"
        }
      ],
      "name": "getPartInfo",
      "outputs": [
        {
          "components": [
            {
              "internalType": "address",
              "name": "supplier",
              "type": "address"
            },
            {
              "internalType": "string",
              "name": "manufacturedate",
              "type": "string"
            },
            {
              "internalType": "string",
              "name": "part_type",
              "type": "string"
            },
            {
              "internalType": "string",
              "name": "serialno",
              "type": "string"
            },
            {
              "internalType": "uint256",
              "name": "price",
              "type": "uint256"
            },
            {
              "internalType": "enum Supply_Chain.State",
              "name": "state",
              "type": "uint8"
            }
          ],
          "internalType": "struct Supply_Chain.Part",
          "name": "detail",
          "type": "tuple"
        }
      ],
      "stateMutability": "view",
      "type": "function",
      "constant": true
    }
  ],
  "bytecode": "0x608060405234801561001057600080fd5b50613e42806100206000396000f3fe6080604052600436106100fe5760003560e01c80637281a039116100955780639a069a42116100645780639a069a42146103db578063b224149c14610406578063d760fa3d14610447578063d9a2130814610484578063e80160ab146104af576100fe565b80637281a039146102de57806379f3c588146103205780639670c79c1461035d578063977990801461039a576100fe565b80634c9b90e9116100d15780634c9b90e9146101f7578063622f06941461022757806371e5ee5f14610264578063724e203d146102a1576100fe565b8063070660e514610103578063100775bb1461014057806320ff3f4e1461017d5780634bc8e47b146101ba575b600080fd5b34801561010f57600080fd5b5061012a60048036038101906101259190612ff5565b6104f2565b6040516101379190613689565b60405180910390f35b34801561014c57600080fd5b5061016760048036038101906101629190612e73565b610516565b6040516101749190613689565b60405180910390f35b34801561018957600080fd5b506101a4600480360381019061019f9190612d7b565b61076c565b6040516101b19190613631565b60405180910390f35b3480156101c657600080fd5b506101e160048036038101906101dc9190612d7b565b610873565b6040516101ee9190613802565b60405180910390f35b610211600480360381019061020c9190612d3f565b610a23565b60405161021e919061366e565b60405180910390f35b34801561023357600080fd5b5061024e60048036038101906102499190612da4565b610cca565b60405161025b9190613689565b60405180910390f35b34801561027057600080fd5b5061028b60048036038101906102869190612ff5565b610f36565b6040516102989190613689565b60405180910390f35b3480156102ad57600080fd5b506102c860048036038101906102c39190612d7b565b610f5a565b6040516102d591906137be565b60405180910390f35b3480156102ea57600080fd5b5061030560048036038101906103009190612d7b565b611321565b604051610317969594939291906135bb565b60405180910390f35b34801561032c57600080fd5b5061034760048036038101906103429190612de0565b611522565b6040516103549190613689565b60405180910390f35b34801561036957600080fd5b50610384600480360381019061037f9190612f32565b611a34565b6040516103919190613689565b60405180910390f35b3480156103a657600080fd5b506103c160048036038101906103bc9190612d7b565b611c46565b6040516103d29594939291906136a4565b60405180910390f35b3480156103e757600080fd5b506103f0611d31565b6040516103fd919061364c565b60405180910390f35b34801561041257600080fd5b5061042d60048036038101906104289190612d7b565b611d89565b60405161043e959493929190613553565b60405180910390f35b34801561045357600080fd5b5061046e60048036038101906104699190612d7b565b611f77565b60405161047b91906137e0565b60405180910390f35b34801561049057600080fd5b50610499612241565b6040516104a6919061364c565b60405180910390f35b3480156104bb57600080fd5b506104d660048036038101906104d19190612d7b565b612299565b6040516104e997969594939291906134c8565b60405180910390f35b6001818154811061050257600080fd5b906000526020600020016000915090505481565b600080600090505b600281101561061c573373ffffffffffffffffffffffffffffffffffffffff166005600086846002811061057b577f4e487b7100000000000000000000000000000000000000000000000000000000600052603260045260246000fd5b6020020151815260200190815260200160002060000160009054906101000a900473ffffffffffffffffffffffffffffffffffffffff1673ffffffffffffffffffffffffffffffffffffffff161415610609576040517f08c379a00000000000000000000000000000000000000000000000000000000081526004016106009061373e565b60405180910390fd5b808061061490613b78565b91505061051e565b50600061062b33888888612528565b905060006040518060c001604052803373ffffffffffffffffffffffffffffffffffffffff168152602001898152602001888152602001878152602001868152602001670de0b6b3a76400008661068291906139ba565b8152509050806004600084815260200190815260200160002060008201518160000160006101000a81548173ffffffffffffffffffffffffffffffffffffffff021916908373ffffffffffffffffffffffffffffffffffffffff16021790555060208201518160010190805190602001906106fe92919061295d565b50604082015181600201908051906020019061071b92919061295d565b50606082015181600301908051906020019061073892919061295d565b506080820151816004019060026107509291906129e3565b5060a08201518160060155905050819250505095945050505050565b610774612a23565b600073ffffffffffffffffffffffffffffffffffffffff166004600084815260200190815260200160002060000160009054906101000a900473ffffffffffffffffffffffffffffffffffffffff1673ffffffffffffffffffffffffffffffffffffffff16141561081a576040517f08c379a00000000000000000000000000000000000000000000000000000000081526004016108119061377e565b60405180910390fd5b60046000838152602001908152602001600020600401600280602002604051908101604052809291908260028015610867576020028201915b815481526020019060010190808311610853575b50505050509050919050565b61087b612a45565b600260008381526020019081526020016000206040518060a0016040529081600082015481526020016001820160009054906101000a900473ffffffffffffffffffffffffffffffffffffffff1673ffffffffffffffffffffffffffffffffffffffff1673ffffffffffffffffffffffffffffffffffffffff1681526020016002820154815260200160038201805461091390613b15565b80601f016020809104026020016040519081016040528092919081815260200182805461093f90613b15565b801561098c5780601f106109615761010080835404028352916020019161098c565b820191906000526020600020905b81548152906001019060200180831161096f57829003601f168201915b505050505081526020016004820160009054906101000a900460ff1660048111156109e0577f4e487b7100000000000000000000000000000000000000000000000000000000600052602160045260246000fd5b6004811115610a18577f4e487b7100000000000000000000000000000000000000000000000000000000600052602160045260246000fd5b815250509050919050565b600081838073ffffffffffffffffffffffffffffffffffffffff166002600084815260200190815260200160002060010160009054906101000a900473ffffffffffffffffffffffffffffffffffffffff1673ffffffffffffffffffffffffffffffffffffffff1614610acb576040517f08c379a0000000000000000000000000000000000000000000000000000000008152600401610ac29061371e565b60405180910390fd5b833373ffffffffffffffffffffffffffffffffffffffff166003600083815260200190815260200160002060000160009054906101000a900473ffffffffffffffffffffffffffffffffffffffff1673ffffffffffffffffffffffffffffffffffffffff1614610b70576040517f08c379a0000000000000000000000000000000000000000000000000000000008152600401610b679061379e565b60405180910390fd5b600034905080600260008881526020019081526020016000206002015414610bcd576040517f08c379a0000000000000000000000000000000000000000000000000000000008152600401610bc49061375e565b60405180910390fd5b8673ffffffffffffffffffffffffffffffffffffffff166108fc829081150290604051600060405180830381858888f19350505050158015610c13573d6000803e3d6000fd5b50600060049050806003600089815260200190815260200160002060060160006101000a81548160ff02191690836004811115610c79577f4e487b7100000000000000000000000000000000000000000000000000000000600052602160045260246000fd5b02179055507f8872194aef2c35bdaa0eea5f770ce68d7262902a3c74661704a2912c56a88f9e8833348a604051610cb39493929190613483565b60405180910390a160019550505050505092915050565b600080600560008481526020019081526020016000206004015490506000600560008581526020019081526020016000206002018054610d0990613b15565b80601f0160208091040260200160405190810160405280929190818152602001828054610d3590613b15565b8015610d825780601f10610d5757610100808354040283529160200191610d82565b820191906000526020600020905b815481529060010190602001808311610d6557829003601f168201915b5050505050905060006005600086815260200190815260200160002060000160009054906101000a900473ffffffffffffffffffffffffffffffffffffffff16905060006003905060006040518060a001604052808981526020018473ffffffffffffffffffffffffffffffffffffffff168152602001868152602001858152602001836004811115610e3e577f4e487b7100000000000000000000000000000000000000000000000000000000600052602160045260246000fd5b815250905080600260008a81526020019081526020016000206000820151816000015560208201518160010160006101000a81548173ffffffffffffffffffffffffffffffffffffffff021916908373ffffffffffffffffffffffffffffffffffffffff160217905550604082015181600201556060820151816003019080519060200190610ece92919061295d565b5060808201518160040160006101000a81548160ff02191690836004811115610f20577f4e487b7100000000000000000000000000000000000000000000000000000000600052602160045260246000fd5b0217905550905050879550505050505092915050565b60008181548110610f4657600080fd5b906000526020600020016000915090505481565b610f62612ac5565b600060019050806003600085815260200190815260200160002060060160006101000a81548160ff02191690836004811115610fc7577f4e487b7100000000000000000000000000000000000000000000000000000000600052602160045260246000fd5b0217905550600360008481526020019081526020016000206040518060e00160405290816000820160009054906101000a900473ffffffffffffffffffffffffffffffffffffffff1673ffffffffffffffffffffffffffffffffffffffff1673ffffffffffffffffffffffffffffffffffffffff16815260200160018201805461105090613b15565b80601f016020809104026020016040519081016040528092919081815260200182805461107c90613b15565b80156110c95780601f1061109e576101008083540402835291602001916110c9565b820191906000526020600020905b8154815290600101906020018083116110ac57829003601f168201915b505050505081526020016002820180546110e290613b15565b80601f016020809104026020016040519081016040528092919081815260200182805461110e90613b15565b801561115b5780601f106111305761010080835404028352916020019161115b565b820191906000526020600020905b81548152906001019060200180831161113e57829003601f168201915b5050505050815260200160038201805461117490613b15565b80601f01602080910402602001604051908101604052809291908181526020018280546111a090613b15565b80156111ed5780601f106111c2576101008083540402835291602001916111ed565b820191906000526020600020905b8154815290600101906020018083116111d057829003601f168201915b5050505050815260200160048201805461120690613b15565b80601f016020809104026020016040519081016040528092919081815260200182805461123290613b15565b801561127f5780601f106112545761010080835404028352916020019161127f565b820191906000526020600020905b81548152906001019060200180831161126257829003601f168201915b50505050508152602001600582015481526020016006820160009054906101000a900460ff1660048111156112dd577f4e487b7100000000000000000000000000000000000000000000000000000000600052602160045260246000fd5b6004811115611315577f4e487b7100000000000000000000000000000000000000000000000000000000600052602160045260246000fd5b81525050915050919050565b60056020528060005260406000206000915090508060000160009054906101000a900473ffffffffffffffffffffffffffffffffffffffff169080600101805461136a90613b15565b80601f016020809104026020016040519081016040528092919081815260200182805461139690613b15565b80156113e35780601f106113b8576101008083540402835291602001916113e3565b820191906000526020600020905b8154815290600101906020018083116113c657829003601f168201915b5050505050908060020180546113f890613b15565b80601f016020809104026020016040519081016040528092919081815260200182805461142490613b15565b80156114715780601f1061144657610100808354040283529160200191611471565b820191906000526020600020905b81548152906001019060200180831161145457829003601f168201915b50505050509080600301805461148690613b15565b80601f01602080910402602001604051908101604052809291908181526020018280546114b290613b15565b80156114ff5780601f106114d4576101008083540402835291602001916114ff565b820191906000526020600020905b8154815290600101906020018083116114e257829003601f168201915b5050505050908060040154908060050160009054906101000a900460ff16905086565b60008061170b3360036000898152602001908152602001600020600101805461154a90613b15565b80601f016020809104026020016040519081016040528092919081815260200182805461157690613b15565b80156115c35780601f10611598576101008083540402835291602001916115c3565b820191906000526020600020905b8154815290600101906020018083116115a657829003601f168201915b5050505050600360008a815260200190815260200160002060020180546115e990613b15565b80601f016020809104026020016040519081016040528092919081815260200182805461161590613b15565b80156116625780601f1061163757610100808354040283529160200191611662565b820191906000526020600020905b81548152906001019060200180831161164557829003601f168201915b5050505050600360008b8152602001908152602001600020600301805461168890613b15565b80601f01602080910402602001604051908101604052809291908181526020018280546116b490613b15565b80156117015780601f106116d657610100808354040283529160200191611701565b820191906000526020600020905b8154815290600101906020018083116116e457829003601f168201915b5050505050612528565b9050600073ffffffffffffffffffffffffffffffffffffffff166005600083815260200190815260200160002060000160009054906101000a900473ffffffffffffffffffffffffffffffffffffffff1673ffffffffffffffffffffffffffffffffffffffff16146117b2576040517f08c379a00000000000000000000000000000000000000000000000000000000081526004016117a9906136fe565b60405180910390fd5b60006003905060006040518060c001604052803373ffffffffffffffffffffffffffffffffffffffff168152602001888152602001600360008b8152602001908152602001600020600101805461180890613b15565b80601f016020809104026020016040519081016040528092919081815260200182805461183490613b15565b80156118815780601f1061185657610100808354040283529160200191611881565b820191906000526020600020905b81548152906001019060200180831161186457829003601f168201915b50505050508152602001878152602001670de0b6b3a7640000876118a591906139ba565b81526020018360048111156118e3577f4e487b7100000000000000000000000000000000000000000000000000000000600052602160045260246000fd5b8152509050806005600085815260200190815260200160002060008201518160000160006101000a81548173ffffffffffffffffffffffffffffffffffffffff021916908373ffffffffffffffffffffffffffffffffffffffff160217905550602082015181600101908051906020019061195f92919061295d565b50604082015181600201908051906020019061197c92919061295d565b50606082015181600301908051906020019061199992919061295d565b506080820151816004015560a08201518160050160006101000a81548160ff021916908360048111156119f5577f4e487b7100000000000000000000000000000000000000000000000000000000600052602160045260246000fd5b02179055509050506001839080600181540180825580915050600190039060005260206000200160009091909190915055829350505050949350505050565b600080600090506000611a4933888888612528565b905060006040518060e001604052803373ffffffffffffffffffffffffffffffffffffffff168152602001898152602001888152602001878152602001868152602001610e1042611a9a9190613989565b8152602001846004811115611ad8577f4e487b7100000000000000000000000000000000000000000000000000000000600052602160045260246000fd5b8152509050806003600084815260200190815260200160002060008201518160000160006101000a81548173ffffffffffffffffffffffffffffffffffffffff021916908373ffffffffffffffffffffffffffffffffffffffff1602179055506020820151816001019080519060200190611b5492919061295d565b506040820151816002019080519060200190611b7192919061295d565b506060820151816003019080519060200190611b8e92919061295d565b506080820151816004019080519060200190611bab92919061295d565b5060a0820151816005015560c08201518160060160006101000a81548160ff02191690836004811115611c07577f4e487b7100000000000000000000000000000000000000000000000000000000600052602160045260246000fd5b02179055509050506000829080600181540180825580915050600190039060005260206000200160009091909190915055819350505050949350505050565b60026020528060005260406000206000915090508060000154908060010160009054906101000a900473ffffffffffffffffffffffffffffffffffffffff1690806002015490806003018054611c9b90613b15565b80601f0160208091040260200160405190810160405280929190818152602001828054611cc790613b15565b8015611d145780601f10611ce957610100808354040283529160200191611d14565b820191906000526020600020905b815481529060010190602001808311611cf757829003601f168201915b5050505050908060040160009054906101000a900460ff16905085565b60606000805480602002602001604051908101604052809291908181526020018280548015611d7f57602002820191906000526020600020905b815481526020019060010190808311611d6b575b5050505050905090565b60046020528060005260406000206000915090508060000160009054906101000a900473ffffffffffffffffffffffffffffffffffffffff1690806001018054611dd290613b15565b80601f0160208091040260200160405190810160405280929190818152602001828054611dfe90613b15565b8015611e4b5780601f10611e2057610100808354040283529160200191611e4b565b820191906000526020600020905b815481529060010190602001808311611e2e57829003601f168201915b505050505090806002018054611e6090613b15565b80601f0160208091040260200160405190810160405280929190818152602001828054611e8c90613b15565b8015611ed95780601f10611eae57610100808354040283529160200191611ed9565b820191906000526020600020905b815481529060010190602001808311611ebc57829003601f168201915b505050505090806003018054611eee90613b15565b80601f0160208091040260200160405190810160405280929190818152602001828054611f1a90613b15565b8015611f675780601f10611f3c57610100808354040283529160200191611f67565b820191906000526020600020905b815481529060010190602001808311611f4a57829003601f168201915b5050505050908060060154905085565b611f7f612b50565b600560008381526020019081526020016000206040518060c00160405290816000820160009054906101000a900473ffffffffffffffffffffffffffffffffffffffff1673ffffffffffffffffffffffffffffffffffffffff1673ffffffffffffffffffffffffffffffffffffffff16815260200160018201805461200390613b15565b80601f016020809104026020016040519081016040528092919081815260200182805461202f90613b15565b801561207c5780601f106120515761010080835404028352916020019161207c565b820191906000526020600020905b81548152906001019060200180831161205f57829003601f168201915b5050505050815260200160028201805461209590613b15565b80601f01602080910402602001604051908101604052809291908181526020018280546120c190613b15565b801561210e5780601f106120e35761010080835404028352916020019161210e565b820191906000526020600020905b8154815290600101906020018083116120f157829003601f168201915b5050505050815260200160038201805461212790613b15565b80601f016020809104026020016040519081016040528092919081815260200182805461215390613b15565b80156121a05780601f10612175576101008083540402835291602001916121a0565b820191906000526020600020905b81548152906001019060200180831161218357829003601f168201915b50505050508152602001600482015481526020016005820160009054906101000a900460ff1660048111156121fe577f4e487b7100000000000000000000000000000000000000000000000000000000600052602160045260246000fd5b6004811115612236577f4e487b7100000000000000000000000000000000000000000000000000000000600052602160045260246000fd5b815250509050919050565b6060600180548060200260200160405190810160405280929190818152602001828054801561228f57602002820191906000526020600020905b81548152602001906001019080831161227b575b5050505050905090565b60036020528060005260406000206000915090508060000160009054906101000a900473ffffffffffffffffffffffffffffffffffffffff16908060010180546122e290613b15565b80601f016020809104026020016040519081016040528092919081815260200182805461230e90613b15565b801561235b5780601f106123305761010080835404028352916020019161235b565b820191906000526020600020905b81548152906001019060200180831161233e57829003601f168201915b50505050509080600201805461237090613b15565b80601f016020809104026020016040519081016040528092919081815260200182805461239c90613b15565b80156123e95780601f106123be576101008083540402835291602001916123e9565b820191906000526020600020905b8154815290600101906020018083116123cc57829003601f168201915b5050505050908060030180546123fe90613b15565b80601f016020809104026020016040519081016040528092919081815260200182805461242a90613b15565b80156124775780601f1061244c57610100808354040283529160200191612477565b820191906000526020600020905b81548152906001019060200180831161245a57829003601f168201915b50505050509080600401805461248c90613b15565b80601f01602080910402602001604051908101604052809291908181526020018280546124b890613b15565b80156125055780601f106124da57610100808354040283529160200191612505565b820191906000526020600020905b8154815290600101906020018083116124e857829003601f168201915b5050505050908060050154908060060160009054906101000a900460ff16905087565b6000808560601b90506000859050600085905060008590506000815183518551601460ff166125579190613933565b6125619190613933565b61256b9190613933565b67ffffffffffffffff8111156125aa577f4e487b7100000000000000000000000000000000000000000000000000000000600052604160045260246000fd5b6040519080825280601f01601f1916602001820160405280156125dc5781602001600182028036833780820191505090505b50905060008190506000805b601460ff168110156126b85787816014811061262d577f4e487b7100000000000000000000000000000000000000000000000000000000600052603260045260246000fd5b1a60f81b83838061263d90613b78565b945081518110612676577f4e487b7100000000000000000000000000000000000000000000000000000000600052603260045260246000fd5b60200101907effffffffffffffffffffffffffffffffffffffffffffffffffffffffffffff1916908160001a90535080806126b090613b78565b9150506125e8565b600090505b8651811015612791578681815181106126ff577f4e487b7100000000000000000000000000000000000000000000000000000000600052603260045260246000fd5b602001015160f81c60f81b83838061271690613b78565b94508151811061274f577f4e487b7100000000000000000000000000000000000000000000000000000000600052603260045260246000fd5b60200101907effffffffffffffffffffffffffffffffffffffffffffffffffffffffffffff1916908160001a905350808061278990613b78565b9150506126bd565b600090505b855181101561286a578581815181106127d8577f4e487b7100000000000000000000000000000000000000000000000000000000600052603260045260246000fd5b602001015160f81c60f81b8383806127ef90613b78565b945081518110612828577f4e487b7100000000000000000000000000000000000000000000000000000000600052603260045260246000fd5b60200101907effffffffffffffffffffffffffffffffffffffffffffffffffffffffffffff1916908160001a905350808061286290613b78565b915050612796565b600090505b8451811015612943578481815181106128b1577f4e487b7100000000000000000000000000000000000000000000000000000000600052603260045260246000fd5b602001015160f81c60f81b8383806128c890613b78565b945081518110612901577f4e487b7100000000000000000000000000000000000000000000000000000000600052603260045260246000fd5b60200101907effffffffffffffffffffffffffffffffffffffffffffffffffffffffffffff1916908160001a905350808061293b90613b78565b91505061286f565b828051906020012098505050505050505050949350505050565b82805461296990613b15565b90600052602060002090601f01602090048101928261298b57600085556129d2565b82601f106129a457805160ff19168380011785556129d2565b828001600101855582156129d2579182015b828111156129d15782518255916020019190600101906129b6565b5b5090506129df9190612bd4565b5090565b8260028101928215612a12579160200282015b82811115612a115782518255916020019190600101906129f6565b5b509050612a1f9190612bf1565b5090565b6040518060400160405280600290602082028036833780820191505090505090565b6040518060a0016040528060008019168152602001600073ffffffffffffffffffffffffffffffffffffffff168152602001600081526020016060815260200160006004811115612abf577f4e487b7100000000000000000000000000000000000000000000000000000000600052602160045260246000fd5b81525090565b6040518060e00160405280600073ffffffffffffffffffffffffffffffffffffffff168152602001606081526020016060815260200160608152602001606081526020016000815260200160006004811115612b4a577f4e487b7100000000000000000000000000000000000000000000000000000000600052602160045260246000fd5b81525090565b6040518060c00160405280600073ffffffffffffffffffffffffffffffffffffffff1681526020016060815260200160608152602001606081526020016000815260200160006004811115612bce577f4e487b7100000000000000000000000000000000000000000000000000000000600052602160045260246000fd5b81525090565b5b80821115612bed576000816000905550600101612bd5565b5090565b5b80821115612c0a576000816000905550600101612bf2565b5090565b6000612c21612c1c84613849565b613824565b90508082856020860282011115612c3757600080fd5b60005b85811015612c675781612c4d8882612ceb565b845260208401935060208301925050600181019050612c3a565b5050509392505050565b6000612c84612c7f8461386f565b613824565b905082815260208101848484011115612c9c57600080fd5b612ca7848285613ad3565b509392505050565b600081359050612cbe81613dc7565b92915050565b600082601f830112612cd557600080fd5b6002612ce2848285612c0e565b91505092915050565b600081359050612cfa81613dde565b92915050565b600082601f830112612d1157600080fd5b8135612d21848260208601612c71565b91505092915050565b600081359050612d3981613df5565b92915050565b60008060408385031215612d5257600080fd5b6000612d6085828601612caf565b9250506020612d7185828601612ceb565b9150509250929050565b600060208284031215612d8d57600080fd5b6000612d9b84828501612ceb565b91505092915050565b60008060408385031215612db757600080fd5b6000612dc585828601612ceb565b9250506020612dd685828601612ceb565b9150509250929050565b60008060008060808587031215612df657600080fd5b6000612e0487828801612ceb565b945050602085013567ffffffffffffffff811115612e2157600080fd5b612e2d87828801612d00565b935050604085013567ffffffffffffffff811115612e4a57600080fd5b612e5687828801612d00565b9250506060612e6787828801612d2a565b91505092959194509250565b600080600080600060c08688031215612e8b57600080fd5b600086013567ffffffffffffffff811115612ea557600080fd5b612eb188828901612d00565b955050602086013567ffffffffffffffff811115612ece57600080fd5b612eda88828901612d00565b945050604086013567ffffffffffffffff811115612ef757600080fd5b612f0388828901612d00565b9350506060612f1488828901612cc4565b92505060a0612f2588828901612d2a565b9150509295509295909350565b60008060008060808587031215612f4857600080fd5b600085013567ffffffffffffffff811115612f6257600080fd5b612f6e87828801612d00565b945050602085013567ffffffffffffffff811115612f8b57600080fd5b612f9787828801612d00565b935050604085013567ffffffffffffffff811115612fb457600080fd5b612fc087828801612d00565b925050606085013567ffffffffffffffff811115612fdd57600080fd5b612fe987828801612d00565b91505092959194509250565b60006020828403121561300757600080fd5b600061301584828501612d2a565b91505092915050565b600061302a8383613127565b60208301905092915050565b61303f81613a8b565b82525050565b61304e81613a14565b82525050565b61305d81613a14565b82525050565b61306c816138ba565b61307681846138f5565b9250613081826138a0565b8060005b838110156130b2578151613099878261301e565b96506130a4836138db565b925050600181019050613085565b505050505050565b60006130c5826138c5565b6130cf8185613900565b93506130da836138aa565b8060005b8381101561310b5781516130f2888261301e565b97506130fd836138e8565b9250506001810190506130de565b5085935050505092915050565b61312181613a38565b82525050565b61313081613a44565b82525050565b61313f81613a44565b82525050565b61314e81613a9d565b82525050565b61315d81613a9d565b82525050565b600061316e826138d0565b6131788185613911565b9350613188818560208601613ae2565b61319181613cac565b840191505092915050565b60006131a7826138d0565b6131b18185613922565b93506131c1818560208601613ae2565b6131ca81613cac565b840191505092915050565b60006131e2601683613922565b91506131ed82613cbd565b602082019050919050565b6000613205601583613922565b915061321082613ce6565b602082019050919050565b6000613228601283613922565b915061323382613d0f565b602082019050919050565b600061324b601a83613922565b915061325682613d38565b602082019050919050565b600061326e601283613922565b915061327982613d61565b602082019050919050565b6000613291601a83613922565b915061329c82613d8a565b602082019050919050565b600060e0830160008301516132bf6000860182613045565b50602083015184820360208601526132d78282613163565b915050604083015184820360408601526132f18282613163565b9150506060830151848203606086015261330b8282613163565b915050608083015184820360808601526133258282613163565b91505060a083015161333a60a0860182613465565b5060c083015161334d60c0860182613145565b508091505092915050565b600060c0830160008301516133706000860182613045565b50602083015184820360208601526133888282613163565b915050604083015184820360408601526133a28282613163565b915050606083015184820360608601526133bc8282613163565b91505060808301516133d16080860182613465565b5060a08301516133e460a0860182613145565b508091505092915050565b600060a0830160008301516134076000860182613127565b50602083015161341a6020860182613045565b50604083015161342d6040860182613465565b50606083015184820360608601526134458282613163565b915050608083015161345a6080860182613145565b508091505092915050565b61346e81613a81565b82525050565b61347d81613a81565b82525050565b60006080820190506134986000830187613036565b6134a56020830186613054565b6134b26040830185613474565b6134bf6060830184613136565b95945050505050565b600060e0820190506134dd600083018a613054565b81810360208301526134ef818961319c565b90508181036040830152613503818861319c565b90508181036060830152613517818761319c565b9050818103608083015261352b818661319c565b905061353a60a0830185613474565b61354760c0830184613154565b98975050505050505050565b600060a0820190506135686000830188613054565b818103602083015261357a818761319c565b9050818103604083015261358e818661319c565b905081810360608301526135a2818561319c565b90506135b16080830184613474565b9695505050505050565b600060c0820190506135d06000830189613054565b81810360208301526135e2818861319c565b905081810360408301526135f6818761319c565b9050818103606083015261360a818661319c565b90506136196080830185613474565b61362660a0830184613154565b979650505050505050565b60006040820190506136466000830184613063565b92915050565b6000602082019050818103600083015261366681846130ba565b905092915050565b60006020820190506136836000830184613118565b92915050565b600060208201905061369e6000830184613136565b92915050565b600060a0820190506136b96000830188613136565b6136c66020830187613054565b6136d36040830186613474565b81810360608301526136e5818561319c565b90506136f46080830184613154565b9695505050505050565b60006020820190508181036000830152613717816131d5565b9050919050565b60006020820190508181036000830152613737816131f8565b9050919050565b600060208201905081810360008301526137578161321b565b9050919050565b600060208201905081810360008301526137778161323e565b9050919050565b6000602082019050818103600083015261379781613261565b9050919050565b600060208201905081810360008301526137b781613284565b9050919050565b600060208201905081810360008301526137d881846132a7565b905092915050565b600060208201905081810360008301526137fa8184613358565b905092915050565b6000602082019050818103600083015261381c81846133ef565b905092915050565b600061382e61383f565b905061383a8282613b47565b919050565b6000604051905090565b600067ffffffffffffffff82111561386457613863613c7d565b5b602082029050919050565b600067ffffffffffffffff82111561388a57613889613c7d565b5b61389382613cac565b9050602081019050919050565b6000819050919050565b6000819050602082019050919050565b600060029050919050565b600081519050919050565b600081519050919050565b6000602082019050919050565b6000602082019050919050565b600081905092915050565b600082825260208201905092915050565b600082825260208201905092915050565b600082825260208201905092915050565b600061393e82613a81565b915061394983613a81565b9250827fffffffffffffffffffffffffffffffffffffffffffffffffffffffffffffffff0382111561397e5761397d613bc1565b5b828201905092915050565b600061399482613a81565b915061399f83613a81565b9250826139af576139ae613bf0565b5b828204905092915050565b60006139c582613a81565b91506139d083613a81565b9250817fffffffffffffffffffffffffffffffffffffffffffffffffffffffffffffffff0483118215151615613a0957613a08613bc1565b5b828202905092915050565b6000613a1f82613a61565b9050919050565b6000613a3182613a61565b9050919050565b60008115159050919050565b6000819050919050565b6000819050613a5c82613db3565b919050565b600073ffffffffffffffffffffffffffffffffffffffff82169050919050565b6000819050919050565b6000613a9682613aaf565b9050919050565b6000613aa882613a4e565b9050919050565b6000613aba82613ac1565b9050919050565b6000613acc82613a61565b9050919050565b82818337600083830152505050565b60005b83811015613b00578082015181840152602081019050613ae5565b83811115613b0f576000848401525b50505050565b60006002820490506001821680613b2d57607f821691505b60208210811415613b4157613b40613c4e565b5b50919050565b613b5082613cac565b810181811067ffffffffffffffff82111715613b6f57613b6e613c7d565b5b80604052505050565b6000613b8382613a81565b91507fffffffffffffffffffffffffffffffffffffffffffffffffffffffffffffffff821415613bb657613bb5613bc1565b5b600182019050919050565b7f4e487b7100000000000000000000000000000000000000000000000000000000600052601160045260246000fd5b7f4e487b7100000000000000000000000000000000000000000000000000000000600052601260045260246000fd5b7f4e487b7100000000000000000000000000000000000000000000000000000000600052602160045260246000fd5b7f4e487b7100000000000000000000000000000000000000000000000000000000600052602260045260246000fd5b7f4e487b7100000000000000000000000000000000000000000000000000000000600052604160045260246000fd5b6000601f19601f8301169050919050565b7f70726f6475637420416c72656164792065786973747300000000000000000000600082015250565b7f63686f6f736520726967687420737570706c6965720000000000000000000000600082015250565b7f70617274206e6f7420617661696c61626c650000000000000000000000000000600082015250565b7f737570706c696572207072696365206e6f74206d617463686564000000000000600082015250565b7f50726f6475637420696e6578697374656e740000000000000000000000000000600082015250565b7f6e6f7420746865207269676874206d616e756661637475726572000000000000600082015250565b60058110613dc457613dc3613c1f565b5b50565b613dd081613a26565b8114613ddb57600080fd5b50565b613de781613a44565b8114613df257600080fd5b50565b613dfe81613a81565b8114613e0957600080fd5b5056fea264697066735822122060f972c256eb9548267678d7e68b038089984f42358be7c0822a8864cf76a02a64736f6c63430008010033",
  "immutableReferences": {},
  "source": "// SPDX-License-Identifier: MIT\npragma solidity >=0.5.22 <0.9.0;\n\ncontract Supply_Chain {\n    bytes32[] public arr;\n    bytes32[] public arry;\n    enum State {\n        NOTVIEWED,\n        ACCEPTED,\n        DECLINED,\n        PENDING,\n        PAID\n    }\n    struct Order {\n        address manufactureradd;\n        string part_type;\n        string deliverOn;\n        string orderdate;\n        string quantity;\n        uint256 time;\n        State state;\n    }\n\n    struct Part {\n        address supplier;\n        string manufacturedate;\n        string part_type;\n        string serialno;\n        uint256 price;\n        State state;\n    }\n\n    struct Product {\n        address manufacturer;\n        string serial_number;\n        string product_type;\n        string manufacturedate;\n        bytes32[2] parts;\n        uint256 price;\n    }\n    struct part_recepit {\n        bytes32 orderhash;\n        address supplier;\n        uint256 partPrice;\n        string parttype;\n        State state;\n    }\n    mapping(bytes32 => part_recepit) public part_detail;\n    mapping(bytes32 => Order) public order;\n    mapping(bytes32 => Product) public product;\n    mapping(bytes32 => Part) public part;\n    event paymentDone(address reciver, address sender, uint256 amount, bytes32);\n\n    modifier onlymanufacturer(bytes32 hash) {\n        require(\n            order[hash].manufactureradd == msg.sender,\n            \"not the right manufacturer\"\n        );\n        _;\n    }\n    modifier rightsupplier(bytes32 hash, address receiver) {\n        require(\n            part_detail[hash].supplier == receiver,\n            \"choose right supplier\"\n        );\n        _;\n    }\n\n    //making hash\n    function INFO_AND_HASH(\n        address _address,\n        string memory orderdate,\n        string memory part_type,\n        string memory deliverOn\n    ) private pure returns (bytes32) {\n        bytes20 b_a1 = bytes20(_address);\n        bytes memory b_s1 = bytes(orderdate);\n        bytes memory b_s2 = bytes(part_type);\n        bytes memory b_s3 = bytes(deliverOn);\n\n        string memory s_full = new string(\n            b_a1.length + b_s1.length + b_s2.length + b_s3.length\n        );\n        bytes memory b_full = bytes(s_full);\n        uint256 j = 0;\n        uint256 i;\n        for (i = 0; i < b_a1.length; i++) {\n            b_full[j++] = b_a1[i];\n        }\n        for (i = 0; i < b_s1.length; i++) {\n            b_full[j++] = b_s1[i];\n        }\n        for (i = 0; i < b_s2.length; i++) {\n            b_full[j++] = b_s2[i];\n        }\n        for (i = 0; i < b_s3.length; i++) {\n            b_full[j++] = b_s3[i];\n        }\n        return keccak256(b_full);\n    }\n\n    // creating order\n    function create_order(\n        string memory part_type,\n        string memory deliverOn,\n        string memory orderdate,\n        string memory quantity\n    ) public returns (bytes32) {\n        State state = State.NOTVIEWED;\n        bytes32 order_hash = INFO_AND_HASH(\n            msg.sender,\n            part_type,\n            deliverOn,\n            orderdate\n        );\n        Order memory new_order = Order(\n            msg.sender,\n            part_type,\n            deliverOn,\n            orderdate,\n            quantity,\n            block.timestamp / 3600,\n            state\n        );\n\n        order[order_hash] = new_order;\n        arr.push(order_hash);\n        return order_hash;\n    }\n\n    function view_order(bytes32 orderhash) public returns (Order memory) {\n        State s = State.ACCEPTED;\n        order[orderhash].state = s;\n        return order[orderhash];\n    }\n\n    //accepting the order\n\n    function accept_order() public view returns (bytes32[] memory) {\n        return arr;\n    }\n\n    //making part after order recivied\n    function make_part(\n        bytes32 orderhash,\n        string memory manufacturedate,\n        string memory serialno,\n        uint256 price\n    ) public returns (bytes32 partHash) {\n        \n        bytes32 part_hash = INFO_AND_HASH(\n            msg.sender,\n            order[orderhash].part_type,\n            order[orderhash].deliverOn,\n            order[orderhash].orderdate\n        );\n        require(\n            part[part_hash].supplier == address(0),\n            \"product Already exists\"\n        );\n        State state = State.PENDING;\n        Part memory new_part = Part(\n            msg.sender,\n            manufacturedate,\n            order[orderhash].part_type,\n            serialno,\n            price * 10**18,\n            state\n        );\n        part[part_hash] = new_part;\n        arry.push(part_hash);\n        return part_hash;\n    }\n    function partowned() public view returns(bytes32[] memory){\n        return arry;\n    }\n    //after making part ,configuring part receipt\n    function partrecepit(bytes32 orderhash, bytes32 partHash)\n        public\n        returns (bytes32)\n    {\n        uint256 price = part[partHash].price;\n        string memory parttype = part[partHash].part_type;\n        address supplier = part[partHash].supplier;\n        State state = State.PENDING;\n        part_recepit memory recepit = part_recepit(\n            orderhash,\n            supplier,\n            price,\n            parttype,\n            state\n        );\n        part_detail[orderhash] = recepit;\n        return orderhash;\n    }\n\n    function getpartrecepit(bytes32 orderhash)\n        public\n        view\n        returns (part_recepit memory)\n    {\n        return part_detail[orderhash];\n    }\n\n    //making payment to get part\n    function getparts(address payable receiver, bytes32 orderh)\n        external\n        payable\n        rightsupplier(orderh, receiver)\n        onlymanufacturer(orderh)\n        returns (bool)\n    {\n        uint256 amount = msg.value;\n        require(\n            part_detail[orderh].partPrice == amount,\n            \"supplier price not matched\"\n        );\n\n        receiver.transfer(amount);\n        State state = State.PAID;\n        order[orderh].state = state;\n        emit paymentDone(receiver, msg.sender, msg.value, orderh);\n        return true;\n    }\n\n    function make_Product(\n        string memory serialno,\n        string memory product_type,\n        string memory creation_date,\n        bytes32[2] memory parts_array,\n        uint256 price\n    ) public returns (bytes32) {\n        for (uint256 index = 0; index < parts_array.length; index++) {\n            require(\n                part[parts_array[index]].supplier != msg.sender,\n                \"part not available\"\n            );\n        }\n        bytes32 product_hash = INFO_AND_HASH(\n            msg.sender,\n            serialno,\n            product_type,\n            creation_date\n        );\n\n        Product memory new_product = Product(\n            msg.sender,\n            serialno,\n            product_type,\n            creation_date,\n            parts_array,\n            price * 10**18\n        );\n\n        product[product_hash] = new_product;\n\n        return product_hash;\n    }\n\n    function getProductParts(bytes32 product_hash)\n        public\n        view\n        returns (bytes32[2] memory)\n    {\n        require(\n            product[product_hash].manufacturer != address(0),\n            \"Product inexistent\"\n        );\n        return product[product_hash].parts;\n    }\n\n    function getPartInfo(bytes32 parthash)\n        public\n        view\n        returns (Part memory detail)\n    {\n        return part[parthash];\n    }\n}\n",
  "sourcePath": "/home/rajnishyadav/Downloads/BC/8_supplychain/contracts/supplychain.sol",
  "compiler": {
    "name": "solc",
    "version": "0.8.1+commit.df193b15.Emscripten.clang"
  },
  "schemaVersion": "3.2.2-next.0",
  "updatedAt": "2022-07-02T05:33:52.173Z",
  "networkType": "ethereum",
  "devdoc": {
    "kind": "dev",
    "methods": {},
    "version": 1
  },
  "userdoc": {
    "kind": "user",
    "methods": {},
    "version": 1
  }
}