{
  "contractName": "Require",
  "abi": [
    {
      "inputs": [],
      "name": "age",
      "outputs": [
        {
          "internalType": "uint256",
          "name": "",
          "type": "uint256"
        }
      ],
      "stateMutability": "view",
      "type": "function"
    },
    {
      "inputs": [],
      "name": "owner",
      "outputs": [
        {
          "internalType": "address",
          "name": "",
          "type": "address"
        }
      ],
      "stateMutability": "view",
      "type": "function"
    },
    {
      "inputs": [
        {
          "internalType": "uint256",
          "name": "_x",
          "type": "uint256"
        }
      ],
      "name": "checkRequire",
      "outputs": [],
      "stateMutability": "nonpayable",
      "type": "function"
    }
  ],
  "bytecode": "0x6080604052336000806101000a81548173ffffffffffffffffffffffffffffffffffffffff021916908373ffffffffffffffffffffffffffffffffffffffff160217905550601960015534801561005557600080fd5b50610349806100656000396000f3fe608060405234801561001057600080fd5b50600436106100415760003560e01c80630565572714610046578063262a9dff146100625780638da5cb5b14610080575b600080fd5b610060600480360381019061005b919061015e565b61009e565b005b61006a6100f9565b604051610077919061019a565b60405180910390f35b6100886100ff565b60405161009591906101f6565b60405180910390f35b60056001546100ad9190610240565b600181905550600281116100f6576040517f08c379a00000000000000000000000000000000000000000000000000000000081526004016100ed906102f3565b60405180910390fd5b50565b60015481565b60008054906101000a900473ffffffffffffffffffffffffffffffffffffffff1681565b600080fd5b6000819050919050565b61013b81610128565b811461014657600080fd5b50565b60008135905061015881610132565b92915050565b60006020828403121561017457610173610123565b5b600061018284828501610149565b91505092915050565b61019481610128565b82525050565b60006020820190506101af600083018461018b565b92915050565b600073ffffffffffffffffffffffffffffffffffffffff82169050919050565b60006101e0826101b5565b9050919050565b6101f0816101d5565b82525050565b600060208201905061020b60008301846101e7565b92915050565b7f4e487b7100000000000000000000000000000000000000000000000000000000600052601160045260246000fd5b600061024b82610128565b915061025683610128565b9250827fffffffffffffffffffffffffffffffffffffffffffffffffffffffffffffffff0382111561028b5761028a610211565b5b828201905092915050565b600082825260208201905092915050565b7f4c657373205468616e2032204568746572000000000000000000000000000000600082015250565b60006102dd601183610296565b91506102e8826102a7565b602082019050919050565b6000602082019050818103600083015261030c816102d0565b905091905056fea2646970667358221220c81cbe94f8a7399f4b0ea5367d776f799e4f34c59816b419283300e0c06eed2164736f6c634300080d0033",
  "immutableReferences": {},
  "source": "// SPDX-License-Identifier: MIT\npragma solidity >=0.4.22 <0.9.0;\n\ncontract Require{\n    address public owner =msg.sender;\n    uint public age =25;\n\n    function checkRequire(uint _x) public{\n        age=age+5;\n        require (_x>2,\"Less Than 2 Ehter\");\n    }\n}",
  "sourcePath": "/home/rajnishyadav/Downloads/BC/1truffleReact/contracts/Require.sol",
  "compiler": {
    "name": "solc",
    "version": "0.8.13+commit.abaa5c0e.Emscripten.clang"
  },
  "schemaVersion": "3.4.7",
  "updatedAt": "2022-05-25T05:15:44.329Z",
  "devdoc": {
    "kind": "dev",
    "methods": {},
    "version": 1
  },
  "userdoc": {
    "kind": "user",
    "methods": {},
    "version": 1
  }
}