{
  "contractName": "NFT_MarketPlace",
  "abi": [
    {
      "inputs": [],
      "stateMutability": "nonpayable",
      "type": "constructor"
    },
    {
      "anonymous": false,
      "inputs": [
        {
          "indexed": true,
          "internalType": "address",
          "name": "account",
          "type": "address"
        },
        {
          "indexed": true,
          "internalType": "address",
          "name": "operator",
          "type": "address"
        },
        {
          "indexed": false,
          "internalType": "bool",
          "name": "approved",
          "type": "bool"
        }
      ],
      "name": "ApprovalForAll",
      "type": "event"
    },
    {
      "anonymous": false,
      "inputs": [
        {
          "indexed": true,
          "internalType": "uint256",
          "name": "itemId",
          "type": "uint256"
        },
        {
          "indexed": true,
          "internalType": "uint256",
          "name": "tokenId",
          "type": "uint256"
        },
        {
          "indexed": false,
          "internalType": "address",
          "name": "seller",
          "type": "address"
        },
        {
          "indexed": false,
          "internalType": "address",
          "name": "owner",
          "type": "address"
        },
        {
          "indexed": false,
          "internalType": "uint256",
          "name": "price",
          "type": "uint256"
        },
        {
          "indexed": false,
          "internalType": "bool",
          "name": "sold",
          "type": "bool"
        }
      ],
      "name": "MarketItemCreated",
      "type": "event"
    },
    {
      "anonymous": false,
      "inputs": [
        {
          "indexed": true,
          "internalType": "address",
          "name": "previousOwner",
          "type": "address"
        },
        {
          "indexed": true,
          "internalType": "address",
          "name": "newOwner",
          "type": "address"
        }
      ],
      "name": "OwnershipTransferred",
      "type": "event"
    },
    {
      "anonymous": false,
      "inputs": [
        {
          "indexed": true,
          "internalType": "address",
          "name": "sender",
          "type": "address"
        },
        {
          "indexed": true,
          "internalType": "address",
          "name": "receiver",
          "type": "address"
        },
        {
          "indexed": false,
          "internalType": "uint256",
          "name": "value",
          "type": "uint256"
        }
      ],
      "name": "Transfer",
      "type": "event"
    },
    {
      "anonymous": false,
      "inputs": [
        {
          "indexed": true,
          "internalType": "address",
          "name": "operator",
          "type": "address"
        },
        {
          "indexed": true,
          "internalType": "address",
          "name": "from",
          "type": "address"
        },
        {
          "indexed": true,
          "internalType": "address",
          "name": "to",
          "type": "address"
        },
        {
          "indexed": false,
          "internalType": "uint256[]",
          "name": "ids",
          "type": "uint256[]"
        },
        {
          "indexed": false,
          "internalType": "uint256[]",
          "name": "values",
          "type": "uint256[]"
        }
      ],
      "name": "TransferBatch",
      "type": "event"
    },
    {
      "anonymous": false,
      "inputs": [
        {
          "indexed": true,
          "internalType": "address",
          "name": "operator",
          "type": "address"
        },
        {
          "indexed": true,
          "internalType": "address",
          "name": "from",
          "type": "address"
        },
        {
          "indexed": true,
          "internalType": "address",
          "name": "to",
          "type": "address"
        },
        {
          "indexed": false,
          "internalType": "uint256",
          "name": "id",
          "type": "uint256"
        },
        {
          "indexed": false,
          "internalType": "uint256",
          "name": "value",
          "type": "uint256"
        }
      ],
      "name": "TransferSingle",
      "type": "event"
    },
    {
      "anonymous": false,
      "inputs": [
        {
          "indexed": false,
          "internalType": "string",
          "name": "value",
          "type": "string"
        },
        {
          "indexed": true,
          "internalType": "uint256",
          "name": "id",
          "type": "uint256"
        }
      ],
      "name": "URI",
      "type": "event"
    },
    {
      "inputs": [
        {
          "internalType": "address",
          "name": "",
          "type": "address"
        }
      ],
      "name": "_balances",
      "outputs": [
        {
          "internalType": "uint256",
          "name": "",
          "type": "uint256"
        }
      ],
      "stateMutability": "view",
      "type": "function",
      "constant": true
    },
    {
      "inputs": [],
      "name": "_itemIds",
      "outputs": [
        {
          "internalType": "uint256",
          "name": "_value",
          "type": "uint256"
        }
      ],
      "stateMutability": "view",
      "type": "function",
      "constant": true
    },
    {
      "inputs": [],
      "name": "_itemsSold",
      "outputs": [
        {
          "internalType": "uint256",
          "name": "_value",
          "type": "uint256"
        }
      ],
      "stateMutability": "view",
      "type": "function",
      "constant": true
    },
    {
      "inputs": [],
      "name": "_tokenIds",
      "outputs": [
        {
          "internalType": "uint256",
          "name": "_value",
          "type": "uint256"
        }
      ],
      "stateMutability": "view",
      "type": "function",
      "constant": true
    },
    {
      "inputs": [
        {
          "internalType": "uint256",
          "name": "",
          "type": "uint256"
        }
      ],
      "name": "_tokenURIs",
      "outputs": [
        {
          "internalType": "string",
          "name": "",
          "type": "string"
        }
      ],
      "stateMutability": "view",
      "type": "function",
      "constant": true
    },
    {
      "inputs": [
        {
          "internalType": "address",
          "name": "account",
          "type": "address"
        },
        {
          "internalType": "uint256",
          "name": "id",
          "type": "uint256"
        }
      ],
      "name": "balanceOf",
      "outputs": [
        {
          "internalType": "uint256",
          "name": "",
          "type": "uint256"
        }
      ],
      "stateMutability": "view",
      "type": "function",
      "constant": true
    },
    {
      "inputs": [
        {
          "internalType": "address[]",
          "name": "accounts",
          "type": "address[]"
        },
        {
          "internalType": "uint256[]",
          "name": "ids",
          "type": "uint256[]"
        }
      ],
      "name": "balanceOfBatch",
      "outputs": [
        {
          "internalType": "uint256[]",
          "name": "",
          "type": "uint256[]"
        }
      ],
      "stateMutability": "view",
      "type": "function",
      "constant": true
    },
    {
      "inputs": [
        {
          "internalType": "uint256",
          "name": "",
          "type": "uint256"
        }
      ],
      "name": "idToMarketItem",
      "outputs": [
        {
          "internalType": "uint256",
          "name": "itemId",
          "type": "uint256"
        },
        {
          "internalType": "uint256",
          "name": "tokenId",
          "type": "uint256"
        },
        {
          "internalType": "address payable",
          "name": "seller",
          "type": "address"
        },
        {
          "internalType": "address payable",
          "name": "owner",
          "type": "address"
        },
        {
          "internalType": "uint256",
          "name": "price",
          "type": "uint256"
        },
        {
          "internalType": "bool",
          "name": "sold",
          "type": "bool"
        }
      ],
      "stateMutability": "view",
      "type": "function",
      "constant": true
    },
    {
      "inputs": [
        {
          "internalType": "address",
          "name": "account",
          "type": "address"
        },
        {
          "internalType": "address",
          "name": "operator",
          "type": "address"
        }
      ],
      "name": "isApprovedForAll",
      "outputs": [
        {
          "internalType": "bool",
          "name": "",
          "type": "bool"
        }
      ],
      "stateMutability": "view",
      "type": "function",
      "constant": true
    },
    {
      "inputs": [],
      "name": "owner",
      "outputs": [
        {
          "internalType": "address",
          "name": "",
          "type": "address"
        }
      ],
      "stateMutability": "view",
      "type": "function",
      "constant": true
    },
    {
      "inputs": [],
      "name": "renounceOwnership",
      "outputs": [],
      "stateMutability": "nonpayable",
      "type": "function"
    },
    {
      "inputs": [
        {
          "internalType": "address",
          "name": "from",
          "type": "address"
        },
        {
          "internalType": "address",
          "name": "to",
          "type": "address"
        },
        {
          "internalType": "uint256[]",
          "name": "ids",
          "type": "uint256[]"
        },
        {
          "internalType": "uint256[]",
          "name": "amounts",
          "type": "uint256[]"
        },
        {
          "internalType": "bytes",
          "name": "data",
          "type": "bytes"
        }
      ],
      "name": "safeBatchTransferFrom",
      "outputs": [],
      "stateMutability": "nonpayable",
      "type": "function"
    },
    {
      "inputs": [
        {
          "internalType": "address",
          "name": "operator",
          "type": "address"
        },
        {
          "internalType": "bool",
          "name": "approved",
          "type": "bool"
        }
      ],
      "name": "setApprovalForAll",
      "outputs": [],
      "stateMutability": "nonpayable",
      "type": "function"
    },
    {
      "inputs": [
        {
          "internalType": "bytes4",
          "name": "interfaceId",
          "type": "bytes4"
        }
      ],
      "name": "supportsInterface",
      "outputs": [
        {
          "internalType": "bool",
          "name": "",
          "type": "bool"
        }
      ],
      "stateMutability": "view",
      "type": "function",
      "constant": true
    },
    {
      "inputs": [
        {
          "internalType": "address",
          "name": "newOwner",
          "type": "address"
        }
      ],
      "name": "transferOwnership",
      "outputs": [],
      "stateMutability": "nonpayable",
      "type": "function"
    },
    {
      "inputs": [],
      "name": "getListingPrice",
      "outputs": [
        {
          "internalType": "uint256",
          "name": "",
          "type": "uint256"
        }
      ],
      "stateMutability": "view",
      "type": "function",
      "constant": true
    },
    {
      "inputs": [
        {
          "internalType": "string",
          "name": "tokenURI",
          "type": "string"
        },
        {
          "internalType": "uint256",
          "name": "amount",
          "type": "uint256"
        },
        {
          "internalType": "uint256",
          "name": "price",
          "type": "uint256"
        }
      ],
      "name": "mintToken",
      "outputs": [
        {
          "internalType": "uint256",
          "name": "",
          "type": "uint256"
        }
      ],
      "stateMutability": "nonpayable",
      "type": "function"
    },
    {
      "inputs": [
        {
          "internalType": "address",
          "name": "to",
          "type": "address"
        },
        {
          "internalType": "uint256[]",
          "name": "ids",
          "type": "uint256[]"
        },
        {
          "internalType": "uint256[]",
          "name": "amounts",
          "type": "uint256[]"
        },
        {
          "internalType": "bytes",
          "name": "data",
          "type": "bytes"
        }
      ],
      "name": "mintBatch",
      "outputs": [],
      "stateMutability": "nonpayable",
      "type": "function"
    },
    {
      "inputs": [],
      "name": "fetchMarketItems",
      "outputs": [
        {
          "components": [
            {
              "internalType": "uint256",
              "name": "itemId",
              "type": "uint256"
            },
            {
              "internalType": "uint256",
              "name": "tokenId",
              "type": "uint256"
            },
            {
              "internalType": "address payable",
              "name": "seller",
              "type": "address"
            },
            {
              "internalType": "address payable",
              "name": "owner",
              "type": "address"
            },
            {
              "internalType": "uint256",
              "name": "price",
              "type": "uint256"
            },
            {
              "internalType": "bool",
              "name": "sold",
              "type": "bool"
            }
          ],
          "internalType": "struct NFT_MarketPlace.MarketItem[]",
          "name": "",
          "type": "tuple[]"
        }
      ],
      "stateMutability": "view",
      "type": "function",
      "constant": true
    },
    {
      "inputs": [
        {
          "internalType": "uint256",
          "name": "itemId",
          "type": "uint256"
        },
        {
          "internalType": "uint256",
          "name": "amount",
          "type": "uint256"
        }
      ],
      "name": "createMarketSale",
      "outputs": [],
      "stateMutability": "payable",
      "type": "function",
      "payable": true
    },
    {
      "inputs": [],
      "name": "fetchMyNFTs",
      "outputs": [
        {
          "components": [
            {
              "internalType": "uint256",
              "name": "itemId",
              "type": "uint256"
            },
            {
              "internalType": "uint256",
              "name": "tokenId",
              "type": "uint256"
            },
            {
              "internalType": "address payable",
              "name": "seller",
              "type": "address"
            },
            {
              "internalType": "address payable",
              "name": "owner",
              "type": "address"
            },
            {
              "internalType": "uint256",
              "name": "price",
              "type": "uint256"
            },
            {
              "internalType": "bool",
              "name": "sold",
              "type": "bool"
            }
          ],
          "internalType": "struct NFT_MarketPlace.MarketItem[]",
          "name": "",
          "type": "tuple[]"
        }
      ],
      "stateMutability": "view",
      "type": "function",
      "constant": true
    },
    {
      "inputs": [],
      "name": "fetchItemsListed",
      "outputs": [
        {
          "components": [
            {
              "internalType": "uint256",
              "name": "itemId",
              "type": "uint256"
            },
            {
              "internalType": "uint256",
              "name": "tokenId",
              "type": "uint256"
            },
            {
              "internalType": "address payable",
              "name": "seller",
              "type": "address"
            },
            {
              "internalType": "address payable",
              "name": "owner",
              "type": "address"
            },
            {
              "internalType": "uint256",
              "name": "price",
              "type": "uint256"
            },
            {
              "internalType": "bool",
              "name": "sold",
              "type": "bool"
            }
          ],
          "internalType": "struct NFT_MarketPlace.MarketItem[]",
          "name": "",
          "type": "tuple[]"
        }
      ],
      "stateMutability": "view",
      "type": "function",
      "constant": true
    },
    {
      "inputs": [
        {
          "internalType": "address",
          "name": "from",
          "type": "address"
        },
        {
          "internalType": "address",
          "name": "to",
          "type": "address"
        },
        {
          "internalType": "uint256",
          "name": "id",
          "type": "uint256"
        },
        {
          "internalType": "uint256",
          "name": "amount",
          "type": "uint256"
        },
        {
          "internalType": "bytes",
          "name": "data",
          "type": "bytes"
        }
      ],
      "name": "safeTransferFrom",
      "outputs": [],
      "stateMutability": "nonpayable",
      "type": "function"
    },
    {
      "inputs": [
        {
          "internalType": "address",
          "name": "_operator",
          "type": "address"
        },
        {
          "internalType": "address",
          "name": "_from",
          "type": "address"
        },
        {
          "internalType": "uint256",
          "name": "_id",
          "type": "uint256"
        },
        {
          "internalType": "uint256",
          "name": "_value",
          "type": "uint256"
        },
        {
          "internalType": "bytes",
          "name": "_data",
          "type": "bytes"
        }
      ],
      "name": "onERC1155Received",
      "outputs": [
        {
          "internalType": "bytes4",
          "name": "",
          "type": "bytes4"
        }
      ],
      "stateMutability": "nonpayable",
      "type": "function"
    },
    {
      "inputs": [
        {
          "internalType": "uint256",
          "name": "tokenId",
          "type": "uint256"
        }
      ],
      "name": "uri",
      "outputs": [
        {
          "internalType": "string",
          "name": "",
          "type": "string"
        }
      ],
      "stateMutability": "view",
      "type": "function",
      "constant": true
    },
    {
      "inputs": [
        {
          "internalType": "string",
          "name": "newuri",
          "type": "string"
        }
      ],
      "name": "setURI",
      "outputs": [],
      "stateMutability": "nonpayable",
      "type": "function"
    },
    {
      "inputs": [
        {
          "internalType": "address",
          "name": "account",
          "type": "address"
        }
      ],
      "name": "balanceOfAddress",
      "outputs": [
        {
          "internalType": "uint256",
          "name": "",
          "type": "uint256"
        }
      ],
      "stateMutability": "view",
      "type": "function",
      "constant": true
    },
    {
      "inputs": [
        {
          "internalType": "address",
          "name": "_to",
          "type": "address"
        },
        {
          "internalType": "uint256",
          "name": "_amount",
          "type": "uint256"
        }
      ],
      "name": "_transfer",
      "outputs": [
        {
          "internalType": "bool",
          "name": "success",
          "type": "bool"
        }
      ],
      "stateMutability": "payable",
      "type": "function",
      "payable": true
    }
  ],
  "bytecode": "0x608060405260405180602001604052806000815250600590805190602001906200002b9291906200018a565b5060196009556103e8600a556658d15e17628000600e553480156200004f57600080fd5b50604051806020016040528060008152506200007181620000a060201b60201c565b506200009262000086620000bc60201b60201c565b620000c460201b60201c565b60016004819055506200029f565b8060029080519060200190620000b89291906200018a565b5050565b600033905090565b6000600360009054906101000a900473ffffffffffffffffffffffffffffffffffffffff16905081600360006101000a81548173ffffffffffffffffffffffffffffffffffffffff021916908373ffffffffffffffffffffffffffffffffffffffff1602179055508173ffffffffffffffffffffffffffffffffffffffff168173ffffffffffffffffffffffffffffffffffffffff167f8be0079c531659141344cd1fd0a4f28419497f9722a3daafe3b4186f6b6457e060405160405180910390a35050565b82805462000198906200023a565b90600052602060002090601f016020900481019282620001bc576000855562000208565b82601f10620001d757805160ff191683800117855562000208565b8280016001018555821562000208579182015b8281111562000207578251825591602001919060010190620001ea565b5b5090506200021791906200021b565b5090565b5b80821115620002365760008160009055506001016200021c565b5090565b600060028204905060018216806200025357607f821691505b602082108114156200026a576200026962000270565b5b50919050565b7f4e487b7100000000000000000000000000000000000000000000000000000000600052602260045260246000fd5b614f2080620002af6000396000f3fe6080604052600436106101b65760003560e01c80636ebcf607116100ec578063aa46a4001161008a578063e985e9c511610064578063e985e9c514610644578063f23a6e6114610681578063f242432a146106be578063f2fde38b146106e7576101b6565b8063aa46a4001461059a578063e3765620146105c5578063e61a70c014610602576101b6565b806387506a0d116100c657806387506a0d146104ff5780638da5cb5b1461052a578063a1c11ca814610555578063a22cb46514610571576101b6565b80636ebcf6071461046e578063715018a6146104ab57806386212b8f146104c2576101b6565b80631f7fdffa1161015957806334a7f1931161013357806334a7f193146103ab57806345f8fa80146103d65780634847a79c146104015780634e1273f414610431576101b6565b80631f7fdffa1461032e578063202e3740146103575780632eb2c2d614610382576101b6565b80630bb78ec1116101955780630bb78ec11461025e5780630e89341c1461029b5780630f08efe0146102d857806312e8558514610303576101b6565b8062fdd58e146101bb57806301ffc9a7146101f857806302fe530514610235575b600080fd5b3480156101c757600080fd5b506101e260048036038101906101dd9190613936565b610710565b6040516101ef9190614487565b60405180910390f35b34801561020457600080fd5b5061021f600480360381019061021a91906139de565b6107d9565b60405161022c919061422f565b60405180910390f35b34801561024157600080fd5b5061025c60048036038101906102579190613a30565b6108bb565b005b34801561026a57600080fd5b5061028560048036038101906102809190613ad8565b6108cf565b6040516102929190614265565b60405180910390f35b3480156102a757600080fd5b506102c260048036038101906102bd9190613ad8565b61096f565b6040516102cf9190614265565b60405180910390f35b3480156102e457600080fd5b506102ed610a54565b6040516102fa91906141b4565b60405180910390f35b34801561030f57600080fd5b50610318610d13565b6040516103259190614487565b60405180910390f35b34801561033a57600080fd5b506103556004803603810190610350919061384f565b610d1d565b005b34801561036357600080fd5b5061036c610d37565b60405161037991906141b4565b60405180910390f35b34801561038e57600080fd5b506103a960048036038101906103a4919061366f565b61107b565b005b3480156103b757600080fd5b506103c061111c565b6040516103cd9190614487565b60405180910390f35b3480156103e257600080fd5b506103eb611128565b6040516103f891906141b4565b60405180910390f35b61041b60048036038101906104169190613936565b61146c565b604051610428919061422f565b60405180910390f35b34801561043d57600080fd5b5061045860048036038101906104539190613972565b61160b565b60405161046591906141d6565b60405180910390f35b34801561047a57600080fd5b506104956004803603810190610490919061360a565b6117bc565b6040516104a29190614487565b60405180910390f35b3480156104b757600080fd5b506104c06117d4565b005b3480156104ce57600080fd5b506104e960048036038101906104e4919061360a565b6117e8565b6040516104f69190614487565b60405180910390f35b34801561050b57600080fd5b50610514611831565b6040516105219190614487565b60405180910390f35b34801561053657600080fd5b5061053f61183d565b60405161054c9190614092565b60405180910390f35b61056f600480360381019061056a9190613b01565b611867565b005b34801561057d57600080fd5b50610598600480360381019061059391906138fa565b6119e0565b005b3480156105a657600080fd5b506105af6119f6565b6040516105bc9190614487565b60405180910390f35b3480156105d157600080fd5b506105ec60048036038101906105e79190613a71565b611a02565b6040516105f99190614487565b60405180910390f35b34801561060e57600080fd5b5061062960048036038101906106249190613ad8565b611a57565b60405161063b969594939291906144cb565b60405180910390f35b34801561065057600080fd5b5061066b60048036038101906106669190613633565b611ae0565b604051610678919061422f565b60405180910390f35b34801561068d57600080fd5b506106a860048036038101906106a3919061372e565b611b74565b6040516106b5919061424a565b60405180910390f35b3480156106ca57600080fd5b506106e560048036038101906106e091906137c0565b611ba3565b005b3480156106f357600080fd5b5061070e6004803603810190610709919061360a565b611c44565b005b60008073ffffffffffffffffffffffffffffffffffffffff168373ffffffffffffffffffffffffffffffffffffffff161415610781576040517f08c379a000000000000000000000000000000000000000000000000000000000815260040161077890614307565b60405180910390fd5b60008083815260200190815260200160002060008473ffffffffffffffffffffffffffffffffffffffff1673ffffffffffffffffffffffffffffffffffffffff16815260200190815260200160002054905092915050565b60007fd9b67a26000000000000000000000000000000000000000000000000000000007bffffffffffffffffffffffffffffffffffffffffffffffffffffffff1916827bffffffffffffffffffffffffffffffffffffffffffffffffffffffff191614806108a457507f0e89341c000000000000000000000000000000000000000000000000000000007bffffffffffffffffffffffffffffffffffffffffffffffffffffffff1916827bffffffffffffffffffffffffffffffffffffffffffffffffffffffff1916145b806108b457506108b382611cc8565b5b9050919050565b6108c3611d32565b6108cc81611db0565b50565b600660205280600052604060002060009150905080546108ee90614827565b80601f016020809104026020016040519081016040528092919081815260200182805461091a90614827565b80156109675780601f1061093c57610100808354040283529160200191610967565b820191906000526020600020905b81548152906001019060200180831161094a57829003601f168201915b505050505081565b6060600060066000848152602001908152602001600020805461099190614827565b80601f01602080910402602001604051908101604052809291908181526020018280546109bd90614827565b8015610a0a5780601f106109df57610100808354040283529160200191610a0a565b820191906000526020600020905b8154815290600101906020018083116109ed57829003601f168201915b505050505090506000815111610a2857610a2383611dca565b610a4c565b600581604051602001610a3c92919061406e565b6040516020818303038152906040525b915050919050565b60606000610a62600d611e5e565b90506000610a70600c611e5e565b610a7a600d611e5e565b610a84919061472b565b90506000808267ffffffffffffffff811115610ac9577f4e487b7100000000000000000000000000000000000000000000000000000000600052604160045260246000fd5b604051908082528060200260200182016040528015610b0257816020015b610aef613254565b815260200190600190039081610ae75790505b50905060005b84811015610d08573073ffffffffffffffffffffffffffffffffffffffff1660076000600184610b3891906146d5565b815260200190815260200160002060030160009054906101000a900473ffffffffffffffffffffffffffffffffffffffff1673ffffffffffffffffffffffffffffffffffffffff161415610cf5576000600182610b9591906146d5565b90506000600760008381526020019081526020016000209050806040518060c001604052908160008201548152602001600182015481526020016002820160009054906101000a900473ffffffffffffffffffffffffffffffffffffffff1673ffffffffffffffffffffffffffffffffffffffff1673ffffffffffffffffffffffffffffffffffffffff1681526020016003820160009054906101000a900473ffffffffffffffffffffffffffffffffffffffff1673ffffffffffffffffffffffffffffffffffffffff1673ffffffffffffffffffffffffffffffffffffffff168152602001600482015481526020016005820160009054906101000a900460ff161515151581525050848681518110610cd8577f4e487b7100000000000000000000000000000000000000000000000000000000600052603260045260246000fd5b6020026020010181905250600185610cf091906146d5565b945050505b8080610d009061488a565b915050610b08565b508094505050505090565b6000600e54905090565b610d25611d32565b610d3184848484611e6c565b50505050565b60606000610d45600d611e5e565b905060008060005b83811015610dee573373ffffffffffffffffffffffffffffffffffffffff1660076000600184610d7d91906146d5565b815260200190815260200160002060030160009054906101000a900473ffffffffffffffffffffffffffffffffffffffff1673ffffffffffffffffffffffffffffffffffffffff161415610ddb57600183610dd891906146d5565b92505b8080610de69061488a565b915050610d4d565b5060008267ffffffffffffffff811115610e31577f4e487b7100000000000000000000000000000000000000000000000000000000600052604160045260246000fd5b604051908082528060200260200182016040528015610e6a57816020015b610e57613254565b815260200190600190039081610e4f5790505b50905060005b84811015611070573373ffffffffffffffffffffffffffffffffffffffff1660076000600184610ea091906146d5565b815260200190815260200160002060030160009054906101000a900473ffffffffffffffffffffffffffffffffffffffff1673ffffffffffffffffffffffffffffffffffffffff16141561105d576000600182610efd91906146d5565b90506000600760008381526020019081526020016000209050806040518060c001604052908160008201548152602001600182015481526020016002820160009054906101000a900473ffffffffffffffffffffffffffffffffffffffff1673ffffffffffffffffffffffffffffffffffffffff1673ffffffffffffffffffffffffffffffffffffffff1681526020016003820160009054906101000a900473ffffffffffffffffffffffffffffffffffffffff1673ffffffffffffffffffffffffffffffffffffffff1673ffffffffffffffffffffffffffffffffffffffff168152602001600482015481526020016005820160009054906101000a900460ff161515151581525050848681518110611040577f4e487b7100000000000000000000000000000000000000000000000000000000600052603260045260246000fd5b602002602001018190525060018561105891906146d5565b945050505b80806110689061488a565b915050610e70565b508094505050505090565b6110836120e5565b73ffffffffffffffffffffffffffffffffffffffff168573ffffffffffffffffffffffffffffffffffffffff1614806110c957506110c8856110c36120e5565b611ae0565b5b611108576040517f08c379a00000000000000000000000000000000000000000000000000000000081526004016110ff90614327565b60405180910390fd5b61111585858585856120ed565b5050505050565b600b8060000154905081565b60606000611136600d611e5e565b905060008060005b838110156111df573373ffffffffffffffffffffffffffffffffffffffff166007600060018461116e91906146d5565b815260200190815260200160002060020160009054906101000a900473ffffffffffffffffffffffffffffffffffffffff1673ffffffffffffffffffffffffffffffffffffffff1614156111cc576001836111c991906146d5565b92505b80806111d79061488a565b91505061113e565b5060008267ffffffffffffffff811115611222577f4e487b7100000000000000000000000000000000000000000000000000000000600052604160045260246000fd5b60405190808252806020026020018201604052801561125b57816020015b611248613254565b8152602001906001900390816112405790505b50905060005b84811015611461573373ffffffffffffffffffffffffffffffffffffffff166007600060018461129191906146d5565b815260200190815260200160002060020160009054906101000a900473ffffffffffffffffffffffffffffffffffffffff1673ffffffffffffffffffffffffffffffffffffffff16141561144e5760006001826112ee91906146d5565b90506000600760008381526020019081526020016000209050806040518060c001604052908160008201548152602001600182015481526020016002820160009054906101000a900473ffffffffffffffffffffffffffffffffffffffff1673ffffffffffffffffffffffffffffffffffffffff1673ffffffffffffffffffffffffffffffffffffffff1681526020016003820160009054906101000a900473ffffffffffffffffffffffffffffffffffffffff1673ffffffffffffffffffffffffffffffffffffffff1673ffffffffffffffffffffffffffffffffffffffff168152602001600482015481526020016005820160009054906101000a900460ff161515151581525050848681518110611431577f4e487b7100000000000000000000000000000000000000000000000000000000600052603260045260246000fd5b602002602001018190525060018561144991906146d5565b945050505b80806114599061488a565b915050611261565b508094505050505090565b6000600860003373ffffffffffffffffffffffffffffffffffffffff1673ffffffffffffffffffffffffffffffffffffffff168152602001908152602001600020548211156114f0576040517f08c379a00000000000000000000000000000000000000000000000000000000081526004016114e7906142c7565b60405180910390fd5b81600860003373ffffffffffffffffffffffffffffffffffffffff1673ffffffffffffffffffffffffffffffffffffffff168152602001908152602001600020600082825461153f919061472b565b9250508190555081600860008573ffffffffffffffffffffffffffffffffffffffff1673ffffffffffffffffffffffffffffffffffffffff168152602001908152602001600020600082825461159591906146d5565b925050819055508273ffffffffffffffffffffffffffffffffffffffff163373ffffffffffffffffffffffffffffffffffffffff167fddf252ad1be2c89b69c2b068fc378daa952ba7f163c4a11628f55a4df523b3ef846040516115f99190614487565b60405180910390a36001905092915050565b60608151835114611651576040517f08c379a0000000000000000000000000000000000000000000000000000000008152600401611648906143c7565b60405180910390fd5b6000835167ffffffffffffffff811115611694577f4e487b7100000000000000000000000000000000000000000000000000000000600052604160045260246000fd5b6040519080825280602002602001820160405280156116c25781602001602082028036833780820191505090505b50905060005b84518110156117b15761175b85828151811061170d577f4e487b7100000000000000000000000000000000000000000000000000000000600052603260045260246000fd5b602002602001015185838151811061174e577f4e487b7100000000000000000000000000000000000000000000000000000000600052603260045260246000fd5b6020026020010151610710565b828281518110611794577f4e487b7100000000000000000000000000000000000000000000000000000000600052603260045260246000fd5b602002602001018181525050806117aa9061488a565b90506116c8565b508091505092915050565b60086020528060005260406000206000915090505481565b6117dc611d32565b6117e6600061245b565b565b6000600860008373ffffffffffffffffffffffffffffffffffffffff1673ffffffffffffffffffffffffffffffffffffffff168152602001908152602001600020549050919050565b600c8060000154905081565b6000600360009054906101000a900473ffffffffffffffffffffffffffffffffffffffff16905090565b61186f612521565b60006007600084815260200190815260200160002060040154905060006007600085815260200190815260200160002060020160009054906101000a900473ffffffffffffffffffffffffffffffffffffffff1690506000600760008681526020019081526020016000206001015490508173ffffffffffffffffffffffffffffffffffffffff166108fc849081150290604051600060405180830381858888f19350505050158015611926573d6000803e3d6000fd5b50336007600087815260200190815260200160002060030160006101000a81548173ffffffffffffffffffffffffffffffffffffffff021916908373ffffffffffffffffffffffffffffffffffffffff16021790555060016007600087815260200190815260200160002060050160006101000a81548160ff0219169083151502179055506119b5600c612571565b6119d13033838760405180602001604052806000815250612587565b5050506119dc612823565b5050565b6119f26119eb6120e5565b838361282d565b5050565b600d8060000154905081565b6000611a0e600d612571565b6000611a1a600d611e5e565b9050611a373382866040518060200160405280600081525061299a565b611a418186612b4b565b611a4c818486612b77565b809150509392505050565b60076020528060005260406000206000915090508060000154908060010154908060020160009054906101000a900473ffffffffffffffffffffffffffffffffffffffff16908060030160009054906101000a900473ffffffffffffffffffffffffffffffffffffffff16908060040154908060050160009054906101000a900460ff16905086565b6000600160008473ffffffffffffffffffffffffffffffffffffffff1673ffffffffffffffffffffffffffffffffffffffff16815260200190815260200160002060008373ffffffffffffffffffffffffffffffffffffffff1673ffffffffffffffffffffffffffffffffffffffff16815260200190815260200160002060009054906101000a900460ff16905092915050565b60007ff23a6e612e1ff4830e658fe43f4e3cb4a5f8170bd5d9e69fb5d7a7fa9e4fdf9790509695505050505050565b611bab6120e5565b73ffffffffffffffffffffffffffffffffffffffff168573ffffffffffffffffffffffffffffffffffffffff161480611bf15750611bf085611beb6120e5565b611ae0565b5b611c30576040517f08c379a0000000000000000000000000000000000000000000000000000000008152600401611c2790614287565b60405180910390fd5b611c3d8585858585612587565b5050505050565b611c4c611d32565b600073ffffffffffffffffffffffffffffffffffffffff168173ffffffffffffffffffffffffffffffffffffffff161415611cbc576040517f08c379a0000000000000000000000000000000000000000000000000000000008152600401611cb3906142e7565b60405180910390fd5b611cc58161245b565b50565b60007f01ffc9a7000000000000000000000000000000000000000000000000000000007bffffffffffffffffffffffffffffffffffffffffffffffffffffffff1916827bffffffffffffffffffffffffffffffffffffffffffffffffffffffff1916149050919050565b611d3a6120e5565b73ffffffffffffffffffffffffffffffffffffffff16611d5861183d565b73ffffffffffffffffffffffffffffffffffffffff1614611dae576040517f08c379a0000000000000000000000000000000000000000000000000000000008152600401611da590614387565b60405180910390fd5b565b8060029080519060200190611dc69291906132b8565b5050565b606060028054611dd990614827565b80601f0160208091040260200160405190810160405280929190818152602001828054611e0590614827565b8015611e525780601f10611e2757610100808354040283529160200191611e52565b820191906000526020600020905b815481529060010190602001808311611e3557829003601f168201915b50505050509050919050565b600081600001549050919050565b600073ffffffffffffffffffffffffffffffffffffffff168473ffffffffffffffffffffffffffffffffffffffff161415611edc576040517f08c379a0000000000000000000000000000000000000000000000000000000008152600401611ed390614407565b60405180910390fd5b8151835114611f20576040517f08c379a0000000000000000000000000000000000000000000000000000000008152600401611f17906143e7565b60405180910390fd5b6000611f2a6120e5565b9050611f3b81600087878787612d8d565b60005b845181101561204057838181518110611f80577f4e487b7100000000000000000000000000000000000000000000000000000000600052603260045260246000fd5b6020026020010151600080878481518110611fc4577f4e487b7100000000000000000000000000000000000000000000000000000000600052603260045260246000fd5b6020026020010151815260200190815260200160002060008873ffffffffffffffffffffffffffffffffffffffff1673ffffffffffffffffffffffffffffffffffffffff168152602001908152602001600020600082825461202691906146d5565b9250508190555080806120389061488a565b915050611f3e565b508473ffffffffffffffffffffffffffffffffffffffff16600073ffffffffffffffffffffffffffffffffffffffff168273ffffffffffffffffffffffffffffffffffffffff167f4a39dc06d4c0dbc64b70af90fd698a233a518aa5d07e595d983b8c0526c8f7fb87876040516120b89291906141f8565b60405180910390a46120cf81600087878787612d95565b6120de81600087878787612d9d565b5050505050565b600033905090565b8151835114612131576040517f08c379a0000000000000000000000000000000000000000000000000000000008152600401612128906143e7565b60405180910390fd5b600073ffffffffffffffffffffffffffffffffffffffff168473ffffffffffffffffffffffffffffffffffffffff1614156121a1576040517f08c379a000000000000000000000000000000000000000000000000000000000815260040161219890614347565b60405180910390fd5b60006121ab6120e5565b90506121bb818787878787612d8d565b60005b84518110156123b8576000858281518110612202577f4e487b7100000000000000000000000000000000000000000000000000000000600052603260045260246000fd5b602002602001015190506000858381518110612247577f4e487b7100000000000000000000000000000000000000000000000000000000600052603260045260246000fd5b60200260200101519050600080600084815260200190815260200160002060008b73ffffffffffffffffffffffffffffffffffffffff1673ffffffffffffffffffffffffffffffffffffffff168152602001908152602001600020549050818110156122e8576040517f08c379a00000000000000000000000000000000000000000000000000000000081526004016122df90614367565b60405180910390fd5b81810360008085815260200190815260200160002060008c73ffffffffffffffffffffffffffffffffffffffff1673ffffffffffffffffffffffffffffffffffffffff168152602001908152602001600020819055508160008085815260200190815260200160002060008b73ffffffffffffffffffffffffffffffffffffffff1673ffffffffffffffffffffffffffffffffffffffff168152602001908152602001600020600082825461239d91906146d5565b92505081905550505050806123b19061488a565b90506121be565b508473ffffffffffffffffffffffffffffffffffffffff168673ffffffffffffffffffffffffffffffffffffffff168273ffffffffffffffffffffffffffffffffffffffff167f4a39dc06d4c0dbc64b70af90fd698a233a518aa5d07e595d983b8c0526c8f7fb878760405161242f9291906141f8565b60405180910390a4612445818787878787612d95565b612453818787878787612d9d565b505050505050565b6000600360009054906101000a900473ffffffffffffffffffffffffffffffffffffffff16905081600360006101000a81548173ffffffffffffffffffffffffffffffffffffffff021916908373ffffffffffffffffffffffffffffffffffffffff1602179055508173ffffffffffffffffffffffffffffffffffffffff168173ffffffffffffffffffffffffffffffffffffffff167f8be0079c531659141344cd1fd0a4f28419497f9722a3daafe3b4186f6b6457e060405160405180910390a35050565b60026004541415612567576040517f08c379a000000000000000000000000000000000000000000000000000000000815260040161255e90614427565b60405180910390fd5b6002600481905550565b6001816000016000828254019250508190555050565b600073ffffffffffffffffffffffffffffffffffffffff168473ffffffffffffffffffffffffffffffffffffffff1614156125f7576040517f08c379a00000000000000000000000000000000000000000000000000000000081526004016125ee90614347565b60405180910390fd5b60006126016120e5565b9050600061260e85612f84565b9050600061261b85612f84565b905061262b838989858589612d8d565b600080600088815260200190815260200160002060008a73ffffffffffffffffffffffffffffffffffffffff1673ffffffffffffffffffffffffffffffffffffffff168152602001908152602001600020549050858110156126c2576040517f08c379a00000000000000000000000000000000000000000000000000000000081526004016126b990614367565b60405180910390fd5b85810360008089815260200190815260200160002060008b73ffffffffffffffffffffffffffffffffffffffff1673ffffffffffffffffffffffffffffffffffffffff168152602001908152602001600020819055508560008089815260200190815260200160002060008a73ffffffffffffffffffffffffffffffffffffffff1673ffffffffffffffffffffffffffffffffffffffff168152602001908152602001600020600082825461277791906146d5565b925050819055508773ffffffffffffffffffffffffffffffffffffffff168973ffffffffffffffffffffffffffffffffffffffff168573ffffffffffffffffffffffffffffffffffffffff167fc3d58168c5ae7397731d063d5bbf3d657854427343f4c083240f7aacaa2d0f628a8a6040516127f49291906144a2565b60405180910390a461280a848a8a86868a612d95565b612818848a8a8a8a8a61304a565b505050505050505050565b6001600481905550565b8173ffffffffffffffffffffffffffffffffffffffff168373ffffffffffffffffffffffffffffffffffffffff16141561289c576040517f08c379a0000000000000000000000000000000000000000000000000000000008152600401612893906143a7565b60405180910390fd5b80600160008573ffffffffffffffffffffffffffffffffffffffff1673ffffffffffffffffffffffffffffffffffffffff16815260200190815260200160002060008473ffffffffffffffffffffffffffffffffffffffff1673ffffffffffffffffffffffffffffffffffffffff16815260200190815260200160002060006101000a81548160ff0219169083151502179055508173ffffffffffffffffffffffffffffffffffffffff168373ffffffffffffffffffffffffffffffffffffffff167f17307eab39ab6107e8899845ad3d59bd9653f200f220920489ca2b5937696c318360405161298d919061422f565b60405180910390a3505050565b600073ffffffffffffffffffffffffffffffffffffffff168473ffffffffffffffffffffffffffffffffffffffff161415612a0a576040517f08c379a0000000000000000000000000000000000000000000000000000000008152600401612a0190614407565b60405180910390fd5b6000612a146120e5565b90506000612a2185612f84565b90506000612a2e85612f84565b9050612a3f83600089858589612d8d565b8460008088815260200190815260200160002060008973ffffffffffffffffffffffffffffffffffffffff1673ffffffffffffffffffffffffffffffffffffffff1681526020019081526020016000206000828254612a9e91906146d5565b925050819055508673ffffffffffffffffffffffffffffffffffffffff16600073ffffffffffffffffffffffffffffffffffffffff168473ffffffffffffffffffffffffffffffffffffffff167fc3d58168c5ae7397731d063d5bbf3d657854427343f4c083240f7aacaa2d0f628989604051612b1c9291906144a2565b60405180910390a4612b3383600089858589612d95565b612b428360008989898961304a565b50505050505050565b80600660008481526020019081526020016000209080519060200190612b729291906132b8565b505050565b612b7f612521565b612b89600b612571565b6000612b95600b611e5e565b905060008311612bda576040517f08c379a0000000000000000000000000000000000000000000000000000000008152600401612bd190614447565b60405180910390fd5b6040518060c001604052808281526020018581526020013373ffffffffffffffffffffffffffffffffffffffff1681526020013073ffffffffffffffffffffffffffffffffffffffff1681526020018481526020016000151581525060076000838152602001908152602001600020600082015181600001556020820151816001015560408201518160020160006101000a81548173ffffffffffffffffffffffffffffffffffffffff021916908373ffffffffffffffffffffffffffffffffffffffff16021790555060608201518160030160006101000a81548173ffffffffffffffffffffffffffffffffffffffff021916908373ffffffffffffffffffffffffffffffffffffffff1602179055506080820151816004015560a08201518160050160006101000a81548160ff021916908315150217905550905050612d233060016119e0565b612d3f3330868560405180602001604052806000815250611ba3565b83817f4a29ff6f650682addfdf8030b3eeb4610ec651b42d8603f2527633347f9489c93330876000604051612d779493929190614115565b60405180910390a350612d88612823565b505050565b505050505050565b505050505050565b612dbc8473ffffffffffffffffffffffffffffffffffffffff16613231565b15612f7c578373ffffffffffffffffffffffffffffffffffffffff1663bc197c8187878686866040518663ffffffff1660e01b8152600401612e029594939291906140ad565b602060405180830381600087803b158015612e1c57600080fd5b505af1925050508015612e4d57506040513d601f19601f82011682018060405250810190612e4a9190613a07565b60015b612ef357612e59614960565b806308c379a01415612eb65750612e6e614df8565b80612e795750612eb8565b806040517f08c379a0000000000000000000000000000000000000000000000000000000008152600401612ead9190614265565b60405180910390fd5b505b6040517f08c379a0000000000000000000000000000000000000000000000000000000008152600401612eea90614467565b60405180910390fd5b63bc197c8160e01b7bffffffffffffffffffffffffffffffffffffffffffffffffffffffff1916817bffffffffffffffffffffffffffffffffffffffffffffffffffffffff191614612f7a576040517f08c379a0000000000000000000000000000000000000000000000000000000008152600401612f71906142a7565b60405180910390fd5b505b505050505050565b60606000600167ffffffffffffffff811115612fc9577f4e487b7100000000000000000000000000000000000000000000000000000000600052604160045260246000fd5b604051908082528060200260200182016040528015612ff75781602001602082028036833780820191505090505b5090508281600081518110613035577f4e487b7100000000000000000000000000000000000000000000000000000000600052603260045260246000fd5b60200260200101818152505080915050919050565b6130698473ffffffffffffffffffffffffffffffffffffffff16613231565b15613229578373ffffffffffffffffffffffffffffffffffffffff1663f23a6e6187878686866040518663ffffffff1660e01b81526004016130af95949392919061415a565b602060405180830381600087803b1580156130c957600080fd5b505af19250505080156130fa57506040513d601f19601f820116820180604052508101906130f79190613a07565b60015b6131a057613106614960565b806308c379a01415613163575061311b614df8565b806131265750613165565b806040517f08c379a000000000000000000000000000000000000000000000000000000000815260040161315a9190614265565b60405180910390fd5b505b6040517f08c379a000000000000000000000000000000000000000000000000000000000815260040161319790614467565b60405180910390fd5b63f23a6e6160e01b7bffffffffffffffffffffffffffffffffffffffffffffffffffffffff1916817bffffffffffffffffffffffffffffffffffffffffffffffffffffffff191614613227576040517f08c379a000000000000000000000000000000000000000000000000000000000815260040161321e906142a7565b60405180910390fd5b505b505050505050565b6000808273ffffffffffffffffffffffffffffffffffffffff163b119050919050565b6040518060c001604052806000815260200160008152602001600073ffffffffffffffffffffffffffffffffffffffff168152602001600073ffffffffffffffffffffffffffffffffffffffff168152602001600081526020016000151581525090565b8280546132c490614827565b90600052602060002090601f0160209004810192826132e6576000855561332d565b82601f106132ff57805160ff191683800117855561332d565b8280016001018555821561332d579182015b8281111561332c578251825591602001919060010190613311565b5b50905061333a919061333e565b5090565b5b8082111561335757600081600090555060010161333f565b5090565b600061336e61336984614551565b61452c565b9050808382526020820190508285602086028201111561338d57600080fd5b60005b858110156133bd57816133a388826134af565b845260208401935060208301925050600181019050613390565b5050509392505050565b60006133da6133d58461457d565b61452c565b905080838252602082019050828560208602820111156133f957600080fd5b60005b85811015613429578161340f88826135f5565b8452602084019350602083019250506001810190506133fc565b5050509392505050565b6000613446613441846145a9565b61452c565b90508281526020810184848401111561345e57600080fd5b6134698482856147e5565b509392505050565b600061348461347f846145da565b61452c565b90508281526020810184848401111561349c57600080fd5b6134a78482856147e5565b509392505050565b6000813590506134be81614e8e565b92915050565b600082601f8301126134d557600080fd5b81356134e584826020860161335b565b91505092915050565b600082601f8301126134ff57600080fd5b813561350f8482602086016133c7565b91505092915050565b60008135905061352781614ea5565b92915050565b60008135905061353c81614ebc565b92915050565b60008151905061355181614ebc565b92915050565b60008083601f84011261356957600080fd5b8235905067ffffffffffffffff81111561358257600080fd5b60208301915083600182028301111561359a57600080fd5b9250929050565b600082601f8301126135b257600080fd5b81356135c2848260208601613433565b91505092915050565b600082601f8301126135dc57600080fd5b81356135ec848260208601613471565b91505092915050565b60008135905061360481614ed3565b92915050565b60006020828403121561361c57600080fd5b600061362a848285016134af565b91505092915050565b6000806040838503121561364657600080fd5b6000613654858286016134af565b9250506020613665858286016134af565b9150509250929050565b600080600080600060a0868803121561368757600080fd5b6000613695888289016134af565b95505060206136a6888289016134af565b945050604086013567ffffffffffffffff8111156136c357600080fd5b6136cf888289016134ee565b935050606086013567ffffffffffffffff8111156136ec57600080fd5b6136f8888289016134ee565b925050608086013567ffffffffffffffff81111561371557600080fd5b613721888289016135a1565b9150509295509295909350565b60008060008060008060a0878903121561374757600080fd5b600061375589828a016134af565b965050602061376689828a016134af565b955050604061377789828a016135f5565b945050606061378889828a016135f5565b935050608087013567ffffffffffffffff8111156137a557600080fd5b6137b189828a01613557565b92509250509295509295509295565b600080600080600060a086880312156137d857600080fd5b60006137e6888289016134af565b95505060206137f7888289016134af565b9450506040613808888289016135f5565b9350506060613819888289016135f5565b925050608086013567ffffffffffffffff81111561383657600080fd5b613842888289016135a1565b9150509295509295909350565b6000806000806080858703121561386557600080fd5b6000613873878288016134af565b945050602085013567ffffffffffffffff81111561389057600080fd5b61389c878288016134ee565b935050604085013567ffffffffffffffff8111156138b957600080fd5b6138c5878288016134ee565b925050606085013567ffffffffffffffff8111156138e257600080fd5b6138ee878288016135a1565b91505092959194509250565b6000806040838503121561390d57600080fd5b600061391b858286016134af565b925050602061392c85828601613518565b9150509250929050565b6000806040838503121561394957600080fd5b6000613957858286016134af565b9250506020613968858286016135f5565b9150509250929050565b6000806040838503121561398557600080fd5b600083013567ffffffffffffffff81111561399f57600080fd5b6139ab858286016134c4565b925050602083013567ffffffffffffffff8111156139c857600080fd5b6139d4858286016134ee565b9150509250929050565b6000602082840312156139f057600080fd5b60006139fe8482850161352d565b91505092915050565b600060208284031215613a1957600080fd5b6000613a2784828501613542565b91505092915050565b600060208284031215613a4257600080fd5b600082013567ffffffffffffffff811115613a5c57600080fd5b613a68848285016135cb565b91505092915050565b600080600060608486031215613a8657600080fd5b600084013567ffffffffffffffff811115613aa057600080fd5b613aac868287016135cb565b9350506020613abd868287016135f5565b9250506040613ace868287016135f5565b9150509250925092565b600060208284031215613aea57600080fd5b6000613af8848285016135f5565b91505092915050565b60008060408385031215613b1457600080fd5b6000613b22858286016135f5565b9250506020613b33858286016135f5565b9150509250929050565b6000613b498383613fd5565b60c08301905092915050565b6000613b618383614050565b60208301905092915050565b613b7681614771565b82525050565b613b8581614771565b82525050565b613b948161475f565b82525050565b6000613ba582614640565b613baf8185614686565b9350613bba8361460b565b8060005b83811015613beb578151613bd28882613b3d565b9750613bdd8361466c565b925050600181019050613bbe565b5085935050505092915050565b6000613c038261464b565b613c0d8185614697565b9350613c188361461b565b8060005b83811015613c49578151613c308882613b55565b9750613c3b83614679565b925050600181019050613c1c565b5085935050505092915050565b613c5f81614783565b82525050565b613c6e81614783565b82525050565b613c7d8161478f565b82525050565b6000613c8e82614656565b613c9881856146a8565b9350613ca88185602086016147f4565b613cb181614982565b840191505092915050565b6000613cc782614661565b613cd181856146b9565b9350613ce18185602086016147f4565b613cea81614982565b840191505092915050565b6000613d0082614661565b613d0a81856146ca565b9350613d1a8185602086016147f4565b80840191505092915050565b60008154613d3381614827565b613d3d81866146ca565b94506001821660008114613d585760018114613d6957613d9c565b60ff19831686528186019350613d9c565b613d728561462b565b60005b83811015613d9457815481890152600182019150602081019050613d75565b838801955050505b50505092915050565b6000613db2602f836146b9565b9150613dbd826149a0565b604082019050919050565b6000613dd56028836146b9565b9150613de0826149ef565b604082019050919050565b6000613df86016836146b9565b9150613e0382614a3e565b602082019050919050565b6000613e1b6026836146b9565b9150613e2682614a67565b604082019050919050565b6000613e3e602a836146b9565b9150613e4982614ab6565b604082019050919050565b6000613e61602e836146b9565b9150613e6c82614b05565b604082019050919050565b6000613e846025836146b9565b9150613e8f82614b54565b604082019050919050565b6000613ea7602a836146b9565b9150613eb282614ba3565b604082019050919050565b6000613eca6020836146b9565b9150613ed582614bf2565b602082019050919050565b6000613eed6029836146b9565b9150613ef882614c1b565b604082019050919050565b6000613f106029836146b9565b9150613f1b82614c6a565b604082019050919050565b6000613f336028836146b9565b9150613f3e82614cb9565b604082019050919050565b6000613f566021836146b9565b9150613f6182614d08565b604082019050919050565b6000613f79601f836146b9565b9150613f8482614d57565b602082019050919050565b6000613f9c601c836146b9565b9150613fa782614d80565b602082019050919050565b6000613fbf6034836146b9565b9150613fca82614da9565b604082019050919050565b60c082016000820151613feb6000850182614050565b506020820151613ffe6020850182614050565b5060408201516140116040850182613b6d565b5060608201516140246060850182613b6d565b5060808201516140376080850182614050565b5060a082015161404a60a0850182613c56565b50505050565b614059816147db565b82525050565b614068816147db565b82525050565b600061407a8285613d26565b91506140868284613cf5565b91508190509392505050565b60006020820190506140a76000830184613b8b565b92915050565b600060a0820190506140c26000830188613b8b565b6140cf6020830187613b8b565b81810360408301526140e18186613bf8565b905081810360608301526140f58185613bf8565b905081810360808301526141098184613c83565b90509695505050505050565b600060808201905061412a6000830187613b8b565b6141376020830186613b8b565b614144604083018561405f565b6141516060830184613c65565b95945050505050565b600060a08201905061416f6000830188613b8b565b61417c6020830187613b8b565b614189604083018661405f565b614196606083018561405f565b81810360808301526141a88184613c83565b90509695505050505050565b600060208201905081810360008301526141ce8184613b9a565b905092915050565b600060208201905081810360008301526141f08184613bf8565b905092915050565b600060408201905081810360008301526142128185613bf8565b905081810360208301526142268184613bf8565b90509392505050565b60006020820190506142446000830184613c65565b92915050565b600060208201905061425f6000830184613c74565b92915050565b6000602082019050818103600083015261427f8184613cbc565b905092915050565b600060208201905081810360008301526142a081613da5565b9050919050565b600060208201905081810360008301526142c081613dc8565b9050919050565b600060208201905081810360008301526142e081613deb565b9050919050565b6000602082019050818103600083015261430081613e0e565b9050919050565b6000602082019050818103600083015261432081613e31565b9050919050565b6000602082019050818103600083015261434081613e54565b9050919050565b6000602082019050818103600083015261436081613e77565b9050919050565b6000602082019050818103600083015261438081613e9a565b9050919050565b600060208201905081810360008301526143a081613ebd565b9050919050565b600060208201905081810360008301526143c081613ee0565b9050919050565b600060208201905081810360008301526143e081613f03565b9050919050565b6000602082019050818103600083015261440081613f26565b9050919050565b6000602082019050818103600083015261442081613f49565b9050919050565b6000602082019050818103600083015261444081613f6c565b9050919050565b6000602082019050818103600083015261446081613f8f565b9050919050565b6000602082019050818103600083015261448081613fb2565b9050919050565b600060208201905061449c600083018461405f565b92915050565b60006040820190506144b7600083018561405f565b6144c4602083018461405f565b9392505050565b600060c0820190506144e0600083018961405f565b6144ed602083018861405f565b6144fa6040830187613b7c565b6145076060830186613b7c565b614514608083018561405f565b61452160a0830184613c65565b979650505050505050565b6000614536614547565b90506145428282614859565b919050565b6000604051905090565b600067ffffffffffffffff82111561456c5761456b614931565b5b602082029050602081019050919050565b600067ffffffffffffffff82111561459857614597614931565b5b602082029050602081019050919050565b600067ffffffffffffffff8211156145c4576145c3614931565b5b6145cd82614982565b9050602081019050919050565b600067ffffffffffffffff8211156145f5576145f4614931565b5b6145fe82614982565b9050602081019050919050565b6000819050602082019050919050565b6000819050602082019050919050565b60008190508160005260206000209050919050565b600081519050919050565b600081519050919050565b600081519050919050565b600081519050919050565b6000602082019050919050565b6000602082019050919050565b600082825260208201905092915050565b600082825260208201905092915050565b600082825260208201905092915050565b600082825260208201905092915050565b600081905092915050565b60006146e0826147db565b91506146eb836147db565b9250827fffffffffffffffffffffffffffffffffffffffffffffffffffffffffffffffff038211156147205761471f6148d3565b5b828201905092915050565b6000614736826147db565b9150614741836147db565b925082821015614754576147536148d3565b5b828203905092915050565b600061476a826147bb565b9050919050565b600061477c826147bb565b9050919050565b60008115159050919050565b60007fffffffff0000000000000000000000000000000000000000000000000000000082169050919050565b600073ffffffffffffffffffffffffffffffffffffffff82169050919050565b6000819050919050565b82818337600083830152505050565b60005b838110156148125780820151818401526020810190506147f7565b83811115614821576000848401525b50505050565b6000600282049050600182168061483f57607f821691505b6020821081141561485357614852614902565b5b50919050565b61486282614982565b810181811067ffffffffffffffff8211171561488157614880614931565b5b80604052505050565b6000614895826147db565b91507fffffffffffffffffffffffffffffffffffffffffffffffffffffffffffffffff8214156148c8576148c76148d3565b5b600182019050919050565b7f4e487b7100000000000000000000000000000000000000000000000000000000600052601160045260246000fd5b7f4e487b7100000000000000000000000000000000000000000000000000000000600052602260045260246000fd5b7f4e487b7100000000000000000000000000000000000000000000000000000000600052604160045260246000fd5b600060033d111561497f5760046000803e61497c600051614993565b90505b90565b6000601f19601f8301169050919050565b60008160e01c9050919050565b7f455243313135353a2063616c6c6572206973206e6f7420746f6b656e206f776e60008201527f6572206e6f7220617070726f7665640000000000000000000000000000000000602082015250565b7f455243313135353a204552433131353552656365697665722072656a6563746560008201527f6420746f6b656e73000000000000000000000000000000000000000000000000602082015250565b7f7472616e73666572207265717569726564206661696c00000000000000000000600082015250565b7f4f776e61626c653a206e6577206f776e657220697320746865207a65726f206160008201527f6464726573730000000000000000000000000000000000000000000000000000602082015250565b7f455243313135353a2061646472657373207a65726f206973206e6f742061207660008201527f616c6964206f776e657200000000000000000000000000000000000000000000602082015250565b7f455243313135353a2063616c6c6572206973206e6f7420746f6b656e206f776e60008201527f6572206f7220617070726f766564000000000000000000000000000000000000602082015250565b7f455243313135353a207472616e7366657220746f20746865207a65726f20616460008201527f6472657373000000000000000000000000000000000000000000000000000000602082015250565b7f455243313135353a20696e73756666696369656e742062616c616e636520666f60008201527f72207472616e7366657200000000000000000000000000000000000000000000602082015250565b7f4f776e61626c653a2063616c6c6572206973206e6f7420746865206f776e6572600082015250565b7f455243313135353a2073657474696e6720617070726f76616c2073746174757360008201527f20666f722073656c660000000000000000000000000000000000000000000000602082015250565b7f455243313135353a206163636f756e747320616e6420696473206c656e67746860008201527f206d69736d617463680000000000000000000000000000000000000000000000602082015250565b7f455243313135353a2069647320616e6420616d6f756e7473206c656e6774682060008201527f6d69736d61746368000000000000000000000000000000000000000000000000602082015250565b7f455243313135353a206d696e7420746f20746865207a65726f2061646472657360008201527f7300000000000000000000000000000000000000000000000000000000000000602082015250565b7f5265656e7472616e637947756172643a207265656e7472616e742063616c6c00600082015250565b7f5072696365206d757374206265206174206c6561737420312077656900000000600082015250565b7f455243313135353a207472616e7366657220746f206e6f6e2d4552433131353560008201527f526563656976657220696d706c656d656e746572000000000000000000000000602082015250565b600060443d1015614e0857614e8b565b614e10614547565b60043d036004823e80513d602482011167ffffffffffffffff82111715614e38575050614e8b565b808201805167ffffffffffffffff811115614e565750505050614e8b565b80602083010160043d038501811115614e73575050505050614e8b565b614e8282602001850186614859565b82955050505050505b90565b614e978161475f565b8114614ea257600080fd5b50565b614eae81614783565b8114614eb957600080fd5b50565b614ec58161478f565b8114614ed057600080fd5b50565b614edc816147db565b8114614ee757600080fd5b5056fea26469706673582212208664190811281f0ffea185ee44ab81abe27070d5f4234702b277eff88f7a18ea64736f6c63430008010033",
  "immutableReferences": {},
  "source": "// SPDX-License-Identifier: MIT\npragma solidity ^0.8.0;\n\nimport \"@openzeppelin/contracts/token/ERC1155/ERC1155.sol\";\nimport \"@openzeppelin/contracts/access/Ownable.sol\";\nimport \"@openzeppelin/contracts/token/ERC1155/extensions/ERC1155Supply.sol\";\nimport \"@openzeppelin/contracts/utils/Counters.sol\";\n// import \"hardhat/console.sol\";\n// import \"@openzeppelin/contracts/utils/Strings.sol\";\nimport \"@openzeppelin/contracts/security/ReentrancyGuard.sol\";\n// Token URL \n// https://gateway.pinata.cloud/ipfs/QmUrGsnXcvQgJDSAFnsomjT9nQWdDPrbscu9x4Y48EEFkm/1.jpg\n\ncontract NFT_MarketPlace is ERC1155, Ownable,ReentrancyGuard {\n  \n    constructor() ERC1155(\"\")\n     {\n  \n     }\n//25000000000000000\n   // using Strings for uint256;\n    using Counters for Counters.Counter;\n    string private _baseURI = \"\";\n    mapping(uint256 => string) public _tokenURIs;\n    mapping(uint256 => MarketItem) public idToMarketItem;\n    mapping(address => uint256) public _balances;\n    uint256 private platformFee = 25;\n    uint256 private deno = 1000;\n\n    Counters.Counter public _itemIds;\n    Counters.Counter public _itemsSold; \n    Counters.Counter public _tokenIds;\n//25000000000000000\n\n    uint256 listingprice=0.025 ether;\n\n    struct MarketItem {\n       uint256 itemId;\n        uint256 tokenId;\n        address payable seller;\n        address payable owner;\n        uint256 price;\n        bool sold;\n    }\n    event MarketItemCreated(\n        uint256 indexed itemId,\n        uint256 indexed tokenId,\n        address seller,\n        address owner,\n        uint256 price,\n        bool sold\n    );\n    event Transfer(address indexed sender,address indexed receiver,uint256 value);\n\n    /** Return the listing price of contract */\n     function getListingPrice() public view returns(uint256)\n     {\n         return listingprice;\n      }\n\n\n    function mintToken(\n        string memory tokenURI,\n        uint256 amount,\n        uint256 price\n    ) public returns (uint256) {\n         _tokenIds.increment();\n        uint256 newItemId = _tokenIds.current();\n        _mint(msg.sender, newItemId, amount, \"\");\n        _setTokenUri(newItemId, tokenURI);\n        createMarketItem(newItemId, price, amount);\n        \n        return newItemId;\n    }\n\n    function mintBatch(\n        address to,\n        uint256[] memory ids,\n        uint256[] memory amounts,\n        bytes memory data\n    ) public onlyOwner {\n        _mintBatch(to, ids, amounts, data);\n    }\n\n// create marketplace items\n    function createMarketItem(\n        uint256 tokenId,\n        uint256 price,\n        uint256 amount\n    ) private  nonReentrant{\n      _itemIds.increment();\n         uint256 itemId=_itemIds.current();\n        require(price > 0, \"Price must be at least 1 wei\");\n        idToMarketItem[itemId] = MarketItem(\n           itemId,\n            tokenId,\n            payable(msg.sender),\n            payable(address(this)),\n            price,\n            false\n        );\n        setApprovalForAll(address(this), true);\n\n        safeTransferFrom(msg.sender, address(this), tokenId, amount, \"\");\n\n        emit MarketItemCreated(\n          itemId,\n            tokenId,\n            msg.sender,\n            address(this),\n            price,\n            false\n        );     \n    }\n    \n/* Returns all unsold market items */\n    function fetchMarketItems() public view returns (MarketItem[] memory) {\n\n    uint256 itemCount = _tokenIds.current();\n    uint256 unsoldItemCount = _tokenIds.current() - _itemsSold.current();\n    uint currentIndex=0;\n\n    MarketItem[] memory items=new MarketItem[](unsoldItemCount);\n\n    for(uint i=0;i<itemCount;i++)\n    {\n         if(idToMarketItem[i+1].owner==address(this))\n         {\n            uint currentId=i+1;\n            MarketItem storage currentItem=idToMarketItem[currentId];\n            items[currentIndex]=currentItem;\n            currentIndex+=1;\n        }\n    }\n    return items;\n\n    }\n\n/**Create the Sale of a marketplace item */\n/**Transfer ownership of the item, as well as funds between partied */\nfunction createMarketSale( uint256 itemId,uint256 amount) public payable  nonReentrant\n{\n        uint256 price = idToMarketItem[itemId].price;\n    \n      //  address owner = idToMarketItem[itemId].owner;\n        address seller = idToMarketItem[itemId].seller;\n        uint256 tokenId = idToMarketItem[itemId].tokenId;\n\n        payable(seller).transfer( price);\n       // _owner.transfer( listingprice);\n     \n      // payable(address(this)).transfer(listingprice);\n     //   _transfer(address(this),listingprice);\n\n        idToMarketItem[itemId].owner = payable(msg.sender);\n        idToMarketItem[itemId].sold = true;\n        _itemsSold.increment();\n\n        _safeTransferFrom(address(this), msg.sender, tokenId, amount, \"\");\n\n        // console.log(\"seller address::\",idToMarketItem[itemId].seller);\n        // console.log(\"owner address::\",idToMarketItem[itemId].owner);\n        // console.log(\"sold address::\",idToMarketItem[itemId].sold);\n        // console.log(\"seller address::\",seller);\n        //  console.log(\"address(this):\", address(this));\n\n\n\n             //  idToMarketItem[itemId].seller = payable(address(0));\n     //   setApprovalForAll(address(this), true);  \n    //    payable(seller).transfer(msg.value);\n\n//     uint price = idToMarketItem[itemId].price;\n//     uint tokenId = idToMarketItem[itemId].tokenId;\n//     require(msg.value == price, \"Please sumbit the asking price in order to complete the purchase\");\n\n//     idToMarketItem[itemId].seller.transfer(msg.value);\n//    _safeTransferFrom(address(this), msg.sender, tokenId, amount, \"\");\n//     idToMarketItem[itemId].owner = payable(msg.sender);\n//     idToMarketItem[itemId].sold = true;\n//     _itemsSold.increment();\n//     payable(owner).transfer(listingprice);\n        \n       // payable(seller).transfer(listingprice);\n      //   payable(seller).transfer(listingprice);\n}\n\n/* Returns only items that a user has purchased */\n    function fetchMyNFTs() public view returns (MarketItem[] memory) {\n        uint256 totalItemCount = _tokenIds.current();\n        uint256 itemCount = 0;\n        uint256 currentIndex = 0;\n\n        for (uint256 i = 0; i < totalItemCount; i++) {\n            if (idToMarketItem[i + 1].owner == msg.sender) {\n                itemCount += 1;\n            }\n        }\n\n        MarketItem[] memory items = new MarketItem[](itemCount);\n        for (uint256 i = 0; i < totalItemCount; i++) {\n            if (idToMarketItem[i + 1].owner == msg.sender) {\n                uint256 currentId = i + 1;\n                MarketItem storage currentItem = idToMarketItem[currentId];\n                items[currentIndex] = currentItem;\n                currentIndex += 1;\n            }\n        }\n        return items;\n    }\n\n/* Returns only items a user has listed */\n    function fetchItemsListed() public view returns (MarketItem[] memory) {\n        uint256 totalItemCount = _tokenIds.current();\n        uint256 itemCount = 0;\n        uint256 currentIndex = 0;\n\n        for (uint256 i = 0; i < totalItemCount; i++) {\n            if (idToMarketItem[i + 1].seller == msg.sender) {\n                itemCount += 1;\n            }\n        }\n\n        MarketItem[] memory items = new MarketItem[](itemCount);\n        for (uint256 i = 0; i < totalItemCount; i++) {\n            if (idToMarketItem[i + 1].seller == msg.sender) {\n                uint256 currentId = i + 1;\n                MarketItem storage currentItem = idToMarketItem[currentId];\n                items[currentIndex] = currentItem;\n                currentIndex += 1;\n            }\n        }\n        return items;\n    }\n\n    function safeTransferFrom(\n        address from,\n        address to,\n        uint256 id,\n        uint256 amount,\n        bytes memory data\n    ) public virtual override {\n        require(\n            from == _msgSender() || isApprovedForAll(from, _msgSender()),\n            \"ERC1155: caller is not token owner nor approved\"\n        );\n        _safeTransferFrom(from, to, id, amount, data);\n    }\n\n    function onERC1155Received(\n        address _operator,\n        address _from,\n        uint256 _id,\n        uint256 _value,\n        bytes calldata _data\n    ) external  returns (bytes4) {\n        return\n            bytes4(\n                keccak256(\n                    \"onERC1155Received(address,address,uint256,uint256,bytes)\"\n                )\n            );\n    }\n\n// Get URI link of any Token.\n  function uri(uint256 tokenId) public view virtual override returns (string memory) {\n        string memory tokenURI = _tokenURIs[tokenId];\n\n        // If token URI is set, concatenate base URI and tokenURI (via abi.encodePacked).\n        return bytes(tokenURI).length > 0 ? string(abi.encodePacked(_baseURI, tokenURI)) : super.uri(tokenId);\n    }\n\n//    function uri(uint256 _tokenid) override public pure returns (string memory) {\n//         return string(string(abi.encodePacked(\"\", _tokenid.toString())));\n//     }\n\n    // function uri(uint256 _tokenid) override public pure returns (string memory) {\n    //     return string(\n    //         abi.encodePacked(\n    //             \"https://gateway.pinata.cloud/ipfs/QmW6BQqh6zRtcFtaqUNaxnDEzDtfG24dHaLp7txXoQuMhv/\",\n    //             Strings.toString(_tokenid),\".json\"\n    //         )\n    //     );\n    // }\n\n//To chnage the URL String after the contract is deployed\n    function setURI(string memory newuri) public onlyOwner {\n        _setURI(newuri);\n    }\n\n    function _setTokenUri(uint256 tokenId, string memory tokenURI) private {\n        _tokenURIs[tokenId] = tokenURI;\n    }\n\n     function balanceOfAddress(address account) public view returns (uint256) {\n        return _balances[account];\n    }\n\n    // transfer function\nfunction _transfer(address _to,uint256 _amount)public payable returns (bool success)\n{\n    // console.log(\"transfer starting\");\n    require(_amount <= _balances[payable(msg.sender)],\"transfer required fail\");\n         _balances[msg.sender] -= _amount;\n         _balances[_to] += _amount;\n          \n        emit Transfer(msg.sender, _to, _amount);\n        return true;\n        // console.log(\"transfer true\");\n}\n\n// // The following functions are overrides required by Solidity.\n//     function _beforeTokenTransfer(\n//         address operator,\n//         address from,\n//         address to,\n//         uint256[] memory ids,\n//         uint256[] memory amounts,\n//         bytes memory data\n//     ) internal override(ERC1155, ERC1155Supply) {\n//         super._beforeTokenTransfer(operator, from, to, ids, amounts, data);\n//     }\n\n//     function getMarketArrayitem(uint256 _tokenid1) public view returns(MarketItem memory)\n//     {\n//        return idToMarketItem[_tokenid1];\n//     }\n\n   \n    \n}\n",
  "sourcePath": "/home/rajnishyadav/Downloads/Blockchain/m_erc721/contracts/NFT_MarketPlace.sol",
  "compiler": {
    "name": "solc",
    "version": "0.8.1+commit.df193b15.Emscripten.clang"
  },
  "schemaVersion": "3.2.2-next.0",
  "updatedAt": "2022-11-21T08:47:13.707Z",
  "networkType": "ethereum",
  "devdoc": {
    "kind": "dev",
    "methods": {
      "balanceOf(address,uint256)": {
        "details": "See {IERC1155-balanceOf}. Requirements: - `account` cannot be the zero address."
      },
      "balanceOfBatch(address[],uint256[])": {
        "details": "See {IERC1155-balanceOfBatch}. Requirements: - `accounts` and `ids` must have the same length."
      },
      "isApprovedForAll(address,address)": {
        "details": "See {IERC1155-isApprovedForAll}."
      },
      "owner()": {
        "details": "Returns the address of the current owner."
      },
      "renounceOwnership()": {
        "details": "Leaves the contract without owner. It will not be possible to call `onlyOwner` functions anymore. Can only be called by the current owner. NOTE: Renouncing ownership will leave the contract without an owner, thereby removing any functionality that is only available to the owner."
      },
      "safeBatchTransferFrom(address,address,uint256[],uint256[],bytes)": {
        "details": "See {IERC1155-safeBatchTransferFrom}."
      },
      "safeTransferFrom(address,address,uint256,uint256,bytes)": {
        "details": "See {IERC1155-safeTransferFrom}."
      },
      "setApprovalForAll(address,bool)": {
        "details": "See {IERC1155-setApprovalForAll}."
      },
      "supportsInterface(bytes4)": {
        "details": "See {IERC165-supportsInterface}."
      },
      "transferOwnership(address)": {
        "details": "Transfers ownership of the contract to a new account (`newOwner`). Can only be called by the current owner."
      }
    },
    "version": 1
  },
  "userdoc": {
    "kind": "user",
    "methods": {
      "createMarketSale(uint256,uint256)": {
        "notice": "Transfer ownership of the item, as well as funds between partied "
      },
      "getListingPrice()": {
        "notice": "Return the listing price of contract "
      }
    },
    "version": 1
  }
}